{
	"contracts/MedicalData.sol": {
		"MedicalData": {
			"abi": [
				{
					"inputs": [],
					"stateMutability": "nonpayable",
					"type": "constructor"
				},
				{
					"anonymous": false,
					"inputs": [
						{
							"indexed": true,
							"internalType": "address",
							"name": "patient",
							"type": "address"
						},
						{
							"indexed": true,
							"internalType": "address",
							"name": "doctor",
							"type": "address"
						},
						{
							"indexed": false,
							"internalType": "bool",
							"name": "allowed",
							"type": "bool"
						}
					],
					"name": "AccessGranted",
					"type": "event"
				},
				{
					"anonymous": false,
					"inputs": [
						{
							"indexed": true,
							"internalType": "address",
							"name": "wallet",
							"type": "address"
						}
					],
					"name": "DoctorRegistered",
					"type": "event"
				},
				{
					"anonymous": false,
					"inputs": [
						{
							"indexed": true,
							"internalType": "address",
							"name": "wallet",
							"type": "address"
						}
					],
					"name": "PatientRegistered",
					"type": "event"
				},
				{
					"anonymous": false,
					"inputs": [
						{
							"indexed": true,
							"internalType": "uint256",
							"name": "id",
							"type": "uint256"
						},
						{
							"indexed": true,
							"internalType": "address",
							"name": "patient",
							"type": "address"
						},
						{
							"indexed": true,
							"internalType": "address",
							"name": "doctor",
							"type": "address"
						},
						{
							"indexed": false,
							"internalType": "string",
							"name": "medicationName",
							"type": "string"
						}
					],
					"name": "PrescriptionCreated",
					"type": "event"
				},
				{
					"inputs": [
						{
							"internalType": "address",
							"name": "_doctor",
							"type": "address"
						},
						{
							"internalType": "address",
							"name": "_patient",
							"type": "address"
						},
						{
							"internalType": "string",
							"name": "_medicationName",
							"type": "string"
						},
						{
							"internalType": "string",
							"name": "_dosage",
							"type": "string"
						},
						{
							"internalType": "string",
							"name": "_schedule",
							"type": "string"
						},
						{
							"internalType": "string",
							"name": "_ipfsHash",
							"type": "string"
						}
					],
					"name": "addPrescriptionByRelayer",
					"outputs": [],
					"stateMutability": "nonpayable",
					"type": "function"
				},
				{
					"inputs": [],
					"name": "admin",
					"outputs": [
						{
							"internalType": "address",
							"name": "",
							"type": "address"
						}
					],
					"stateMutability": "view",
					"type": "function"
				},
				{
					"inputs": [
						{
							"internalType": "uint256",
							"name": "_id",
							"type": "uint256"
						}
					],
					"name": "getPrescription",
					"outputs": [
						{
							"internalType": "uint256",
							"name": "id",
							"type": "uint256"
						},
						{
							"internalType": "address",
							"name": "patient",
							"type": "address"
						},
						{
							"internalType": "address",
							"name": "doctor",
							"type": "address"
						},
						{
							"internalType": "string",
							"name": "medicationName",
							"type": "string"
						},
						{
							"internalType": "string",
							"name": "dosage",
							"type": "string"
						},
						{
							"internalType": "string",
							"name": "schedule",
							"type": "string"
						},
						{
							"internalType": "uint256",
							"name": "timestamp",
							"type": "uint256"
						},
						{
							"internalType": "string",
							"name": "ipfsHash",
							"type": "string"
						}
					],
					"stateMutability": "view",
					"type": "function"
				},
				{
					"inputs": [
						{
							"internalType": "address",
							"name": "_patient",
							"type": "address"
						}
					],
					"name": "getPrescriptionsForPatient",
					"outputs": [
						{
							"internalType": "uint256[]",
							"name": "",
							"type": "uint256[]"
						}
					],
					"stateMutability": "view",
					"type": "function"
				},
				{
					"inputs": [
						{
							"internalType": "address",
							"name": "",
							"type": "address"
						}
					],
					"name": "isDoctor",
					"outputs": [
						{
							"internalType": "bool",
							"name": "",
							"type": "bool"
						}
					],
					"stateMutability": "view",
					"type": "function"
				},
				{
					"inputs": [
						{
							"internalType": "address",
							"name": "",
							"type": "address"
						}
					],
					"name": "isPatient",
					"outputs": [
						{
							"internalType": "bool",
							"name": "",
							"type": "bool"
						}
					],
					"stateMutability": "view",
					"type": "function"
				},
				{
					"inputs": [],
					"name": "nextPrescriptionId",
					"outputs": [
						{
							"internalType": "uint256",
							"name": "",
							"type": "uint256"
						}
					],
					"stateMutability": "view",
					"type": "function"
				},
				{
					"inputs": [
						{
							"internalType": "address",
							"name": "",
							"type": "address"
						},
						{
							"internalType": "address",
							"name": "",
							"type": "address"
						}
					],
					"name": "patientToDoctorAccess",
					"outputs": [
						{
							"internalType": "bool",
							"name": "",
							"type": "bool"
						}
					],
					"stateMutability": "view",
					"type": "function"
				},
				{
					"inputs": [
						{
							"internalType": "address",
							"name": "_wallet",
							"type": "address"
						}
					],
					"name": "registerDoctor",
					"outputs": [],
					"stateMutability": "nonpayable",
					"type": "function"
				},
				{
					"inputs": [
						{
							"internalType": "address",
							"name": "_wallet",
							"type": "address"
						}
					],
					"name": "registerPatient",
					"outputs": [],
					"stateMutability": "nonpayable",
					"type": "function"
				},
				{
					"inputs": [
						{
							"internalType": "address",
							"name": "_patient",
							"type": "address"
						},
						{
							"internalType": "address",
							"name": "_doctor",
							"type": "address"
						},
						{
							"internalType": "bool",
							"name": "_allowed",
							"type": "bool"
						}
					],
					"name": "setDoctorAccess",
					"outputs": [],
					"stateMutability": "nonpayable",
					"type": "function"
				}
			],
			"devdoc": {
				"events": {
					"AccessGranted(address,address,bool)": {
						"details": "Адмін змінив право доступу лікаря до пацієнта"
					},
					"DoctorRegistered(address)": {
						"details": "Лікар зареєстрований на блокчейні"
					},
					"PatientRegistered(address)": {
						"details": "Пацієнт зареєстрований на блокчейні"
					},
					"PrescriptionCreated(uint256,address,address,string)": {
						"details": "Створено нове призначення"
					}
				},
				"kind": "dev",
				"methods": {},
				"stateVariables": {
					"patientPrescriptionIds": {
						"details": "Для швидкого пошуку призначень пацієнта"
					},
					"patientToDoctorAccess": {
						"details": "Права доступу: чи може конкретний лікар працювати з конкретним пацієнтом"
					},
					"prescriptions": {
						"details": "Зберігаємо всі призначення за ID"
					}
				},
				"version": 1
			},
			"evm": {
				"assembly": "    /* \"contracts/MedicalData.sol\":63:5669  contract MedicalData {... */\n  mstore(0x40, 0x80)\n    /* \"contracts/MedicalData.sol\":564:565  1 */\n  0x01\n    /* \"contracts/MedicalData.sol\":528:565  uint256 public nextPrescriptionId = 1 */\n  0x03\n  sstore\n    /* \"contracts/MedicalData.sol\":2212:2263  constructor() {... */\n  callvalue\n  dup1\n  iszero\n  tag_1\n  jumpi\n  revert(0x00, 0x00)\ntag_1:\n  pop\n    /* \"contracts/MedicalData.sol\":2245:2255  msg.sender */\n  caller\n    /* \"contracts/MedicalData.sol\":2237:2242  admin */\n  0x00\n  0x00\n    /* \"contracts/MedicalData.sol\":2237:2255  admin = msg.sender */\n  0x0100\n  exp\n  dup2\n  sload\n  dup2\n  0xffffffffffffffffffffffffffffffffffffffff\n  mul\n  not\n  and\n  swap1\n  dup4\n  0xffffffffffffffffffffffffffffffffffffffff\n  and\n  mul\n  or\n  swap1\n  sstore\n  pop\n    /* \"contracts/MedicalData.sol\":63:5669  contract MedicalData {... */\n  dataSize(sub_0)\n  dup1\n  dataOffset(sub_0)\n  0x00\n  codecopy\n  0x00\n  return\nstop\n\nsub_0: assembly {\n        /* \"contracts/MedicalData.sol\":63:5669  contract MedicalData {... */\n      mstore(0x40, 0x80)\n      callvalue\n      dup1\n      iszero\n      tag_1\n      jumpi\n      revert(0x00, 0x00)\n    tag_1:\n      pop\n      jumpi(tag_2, lt(calldatasize, 0x04))\n      shr(0xe0, calldataload(0x00))\n      dup1\n      0x8e21e579\n      gt\n      tag_14\n      jumpi\n      dup1\n      0x8e21e579\n      eq\n      tag_8\n      jumpi\n      dup1\n      0x8f9c79ed\n      eq\n      tag_9\n      jumpi\n      dup1\n      0x996440c6\n      eq\n      tag_10\n      jumpi\n      dup1\n      0xc8154e0d\n      eq\n      tag_11\n      jumpi\n      dup1\n      0xd3e2034d\n      eq\n      tag_12\n      jumpi\n      dup1\n      0xf851a440\n      eq\n      tag_13\n      jumpi\n      jump(tag_2)\n    tag_14:\n      dup1\n      0x039801ce\n      eq\n      tag_3\n      jumpi\n      dup1\n      0x1388c519\n      eq\n      tag_4\n      jumpi\n      dup1\n      0x366d4675\n      eq\n      tag_5\n      jumpi\n      dup1\n      0x699ca998\n      eq\n      tag_6\n      jumpi\n      dup1\n      0x6f16af10\n      eq\n      tag_7\n      jumpi\n    tag_2:\n      revert(0x00, 0x00)\n        /* \"contracts/MedicalData.sol\":3073:3425  function setDoctorAccess(... */\n    tag_3:\n      tag_15\n      0x04\n      dup1\n      calldatasize\n      sub\n      dup2\n      add\n      swap1\n      tag_16\n      swap2\n      swap1\n      tag_17\n      jump\t// in\n    tag_16:\n      tag_18\n      jump\t// in\n    tag_15:\n      stop\n        /* \"contracts/MedicalData.sol\":2326:2605  function registerPatient(address _wallet) external onlyAdmin {... */\n    tag_4:\n      tag_19\n      0x04\n      dup1\n      calldatasize\n      sub\n      dup2\n      add\n      swap1\n      tag_20\n      swap2\n      swap1\n      tag_21\n      jump\t// in\n    tag_20:\n      tag_22\n      jump\t// in\n    tag_19:\n      stop\n        /* \"contracts/MedicalData.sol\":4640:4864  function getPrescriptionsForPatient(address _patient)... */\n    tag_5:\n      tag_23\n      0x04\n      dup1\n      calldatasize\n      sub\n      dup2\n      add\n      swap1\n      tag_24\n      swap2\n      swap1\n      tag_21\n      jump\t// in\n    tag_24:\n      tag_25\n      jump\t// in\n    tag_23:\n      mload(0x40)\n      tag_26\n      swap2\n      swap1\n      tag_27\n      jump\t// in\n    tag_26:\n      mload(0x40)\n      dup1\n      swap2\n      sub\n      swap1\n      return\n        /* \"contracts/MedicalData.sol\":2664:2938  function registerDoctor(address _wallet) external onlyAdmin {... */\n    tag_6:\n      tag_28\n      0x04\n      dup1\n      calldatasize\n      sub\n      dup2\n      add\n      swap1\n      tag_29\n      swap2\n      swap1\n      tag_21\n      jump\t// in\n    tag_29:\n      tag_30\n      jump\t// in\n    tag_28:\n      stop\n        /* \"contracts/MedicalData.sol\":4946:5666  function getPrescription(uint256 _id)... */\n    tag_7:\n      tag_31\n      0x04\n      dup1\n      calldatasize\n      sub\n      dup2\n      add\n      swap1\n      tag_32\n      swap2\n      swap1\n      tag_33\n      jump\t// in\n    tag_32:\n      tag_34\n      jump\t// in\n    tag_31:\n      mload(0x40)\n      tag_35\n      swap9\n      swap8\n      swap7\n      swap6\n      swap5\n      swap4\n      swap3\n      swap2\n      swap1\n      tag_36\n      jump\t// in\n    tag_35:\n      mload(0x40)\n      dup1\n      swap2\n      sub\n      swap1\n      return\n        /* \"contracts/MedicalData.sol\":528:565  uint256 public nextPrescriptionId = 1 */\n    tag_8:\n      tag_37\n      tag_38\n      jump\t// in\n    tag_37:\n      mload(0x40)\n      tag_39\n      swap2\n      swap1\n      tag_40\n      jump\t// in\n    tag_39:\n      mload(0x40)\n      dup1\n      swap2\n      sub\n      swap1\n      return\n        /* \"contracts/MedicalData.sol\":120:161  mapping(address => bool) public isPatient */\n    tag_9:\n      tag_41\n      0x04\n      dup1\n      calldatasize\n      sub\n      dup2\n      add\n      swap1\n      tag_42\n      swap2\n      swap1\n      tag_21\n      jump\t// in\n    tag_42:\n      tag_43\n      jump\t// in\n    tag_41:\n      mload(0x40)\n      tag_44\n      swap2\n      swap1\n      tag_45\n      jump\t// in\n    tag_44:\n      mload(0x40)\n      dup1\n      swap2\n      sub\n      swap1\n      return\n        /* \"contracts/MedicalData.sol\":168:208  mapping(address => bool) public isDoctor */\n    tag_10:\n      tag_46\n      0x04\n      dup1\n      calldatasize\n      sub\n      dup2\n      add\n      swap1\n      tag_47\n      swap2\n      swap1\n      tag_21\n      jump\t// in\n    tag_47:\n      tag_48\n      jump\t// in\n    tag_46:\n      mload(0x40)\n      tag_49\n      swap2\n      swap1\n      tag_45\n      jump\t// in\n    tag_49:\n      mload(0x40)\n      dup1\n      swap2\n      sub\n      swap1\n      return\n        /* \"contracts/MedicalData.sol\":3504:4537  function addPrescriptionByRelayer(... */\n    tag_11:\n      tag_50\n      0x04\n      dup1\n      calldatasize\n      sub\n      dup2\n      add\n      swap1\n      tag_51\n      swap2\n      swap1\n      tag_52\n      jump\t// in\n    tag_51:\n      tag_53\n      jump\t// in\n    tag_50:\n      stop\n        /* \"contracts/MedicalData.sol\":1017:1090  mapping(address => mapping(address => bool)) public patientToDoctorAccess */\n    tag_12:\n      tag_54\n      0x04\n      dup1\n      calldatasize\n      sub\n      dup2\n      add\n      swap1\n      tag_55\n      swap2\n      swap1\n      tag_56\n      jump\t// in\n    tag_55:\n      tag_57\n      jump\t// in\n    tag_54:\n      mload(0x40)\n      tag_58\n      swap2\n      swap1\n      tag_45\n      jump\t// in\n    tag_58:\n      mload(0x40)\n      dup1\n      swap2\n      sub\n      swap1\n      return\n        /* \"contracts/MedicalData.sol\":91:111  address public admin */\n    tag_13:\n      tag_59\n      tag_60\n      jump\t// in\n    tag_59:\n      mload(0x40)\n      tag_61\n      swap2\n      swap1\n      tag_62\n      jump\t// in\n    tag_61:\n      mload(0x40)\n      dup1\n      swap2\n      sub\n      swap1\n      return\n        /* \"contracts/MedicalData.sol\":3073:3425  function setDoctorAccess(... */\n    tag_18:\n        /* \"contracts/MedicalData.sol\":1870:1875  admin */\n      0x00\n      0x00\n      swap1\n      sload\n      swap1\n      0x0100\n      exp\n      swap1\n      div\n      0xffffffffffffffffffffffffffffffffffffffff\n      and\n        /* \"contracts/MedicalData.sol\":1856:1875  msg.sender == admin */\n      0xffffffffffffffffffffffffffffffffffffffff\n      and\n        /* \"contracts/MedicalData.sol\":1856:1866  msg.sender */\n      caller\n        /* \"contracts/MedicalData.sol\":1856:1875  msg.sender == admin */\n      0xffffffffffffffffffffffffffffffffffffffff\n      and\n      eq\n        /* \"contracts/MedicalData.sol\":1848:1913  require(msg.sender == admin, \"Only admin can call this function\") */\n      tag_64\n      jumpi\n      mload(0x40)\n      0x08c379a000000000000000000000000000000000000000000000000000000000\n      dup2\n      mstore\n      0x04\n      add\n      tag_65\n      swap1\n      tag_66\n      jump\t// in\n    tag_65:\n      mload(0x40)\n      dup1\n      swap2\n      sub\n      swap1\n      revert\n    tag_64:\n        /* \"contracts/MedicalData.sol\":3221:3229  _patient */\n      dup3\n        /* \"contracts/MedicalData.sol\":2135:2144  isPatient */\n      0x01\n        /* \"contracts/MedicalData.sol\":2135:2154  isPatient[_patient] */\n      0x00\n        /* \"contracts/MedicalData.sol\":2145:2153  _patient */\n      dup3\n        /* \"contracts/MedicalData.sol\":2135:2154  isPatient[_patient] */\n      0xffffffffffffffffffffffffffffffffffffffff\n      and\n      0xffffffffffffffffffffffffffffffffffffffff\n      and\n      dup2\n      mstore\n      0x20\n      add\n      swap1\n      dup2\n      mstore\n      0x20\n      add\n      0x00\n      keccak256\n      0x00\n      swap1\n      sload\n      swap1\n      0x0100\n      exp\n      swap1\n      div\n      0xff\n      and\n        /* \"contracts/MedicalData.sol\":2127:2184  require(isPatient[_patient], \"Patient is not registered\") */\n      tag_68\n      jumpi\n      mload(0x40)\n      0x08c379a000000000000000000000000000000000000000000000000000000000\n      dup2\n      mstore\n      0x04\n      add\n      tag_69\n      swap1\n      tag_70\n      jump\t// in\n    tag_69:\n      mload(0x40)\n      dup1\n      swap2\n      sub\n      swap1\n      revert\n    tag_68:\n        /* \"contracts/MedicalData.sol\":3250:3258  isDoctor */\n      0x02\n        /* \"contracts/MedicalData.sol\":3250:3267  isDoctor[_doctor] */\n      0x00\n        /* \"contracts/MedicalData.sol\":3259:3266  _doctor */\n      dup5\n        /* \"contracts/MedicalData.sol\":3250:3267  isDoctor[_doctor] */\n      0xffffffffffffffffffffffffffffffffffffffff\n      and\n      0xffffffffffffffffffffffffffffffffffffffff\n      and\n      dup2\n      mstore\n      0x20\n      add\n      swap1\n      dup2\n      mstore\n      0x20\n      add\n      0x00\n      keccak256\n      0x00\n      swap1\n      sload\n      swap1\n      0x0100\n      exp\n      swap1\n      div\n      0xff\n      and\n        /* \"contracts/MedicalData.sol\":3242:3293  require(isDoctor[_doctor], \"Doctor not registered\") */\n      tag_72\n      jumpi\n      mload(0x40)\n      0x08c379a000000000000000000000000000000000000000000000000000000000\n      dup2\n      mstore\n      0x04\n      add\n      tag_73\n      swap1\n      tag_74\n      jump\t// in\n    tag_73:\n      mload(0x40)\n      dup1\n      swap2\n      sub\n      swap1\n      revert\n    tag_72:\n        /* \"contracts/MedicalData.sol\":3349:3357  _allowed */\n      dup2\n        /* \"contracts/MedicalData.sol\":3306:3327  patientToDoctorAccess */\n      0x06\n        /* \"contracts/MedicalData.sol\":3306:3337  patientToDoctorAccess[_patient] */\n      0x00\n        /* \"contracts/MedicalData.sol\":3328:3336  _patient */\n      dup7\n        /* \"contracts/MedicalData.sol\":3306:3337  patientToDoctorAccess[_patient] */\n      0xffffffffffffffffffffffffffffffffffffffff\n      and\n      0xffffffffffffffffffffffffffffffffffffffff\n      and\n      dup2\n      mstore\n      0x20\n      add\n      swap1\n      dup2\n      mstore\n      0x20\n      add\n      0x00\n      keccak256\n        /* \"contracts/MedicalData.sol\":3306:3346  patientToDoctorAccess[_patient][_doctor] */\n      0x00\n        /* \"contracts/MedicalData.sol\":3338:3345  _doctor */\n      dup6\n        /* \"contracts/MedicalData.sol\":3306:3346  patientToDoctorAccess[_patient][_doctor] */\n      0xffffffffffffffffffffffffffffffffffffffff\n      and\n      0xffffffffffffffffffffffffffffffffffffffff\n      and\n      dup2\n      mstore\n      0x20\n      add\n      swap1\n      dup2\n      mstore\n      0x20\n      add\n      0x00\n      keccak256\n      0x00\n        /* \"contracts/MedicalData.sol\":3306:3357  patientToDoctorAccess[_patient][_doctor] = _allowed */\n      0x0100\n      exp\n      dup2\n      sload\n      dup2\n      0xff\n      mul\n      not\n      and\n      swap1\n      dup4\n      iszero\n      iszero\n      mul\n      or\n      swap1\n      sstore\n      pop\n        /* \"contracts/MedicalData.sol\":3399:3406  _doctor */\n      dup3\n        /* \"contracts/MedicalData.sol\":3375:3417  AccessGranted(_patient, _doctor, _allowed) */\n      0xffffffffffffffffffffffffffffffffffffffff\n      and\n        /* \"contracts/MedicalData.sol\":3389:3397  _patient */\n      dup5\n        /* \"contracts/MedicalData.sol\":3375:3417  AccessGranted(_patient, _doctor, _allowed) */\n      0xffffffffffffffffffffffffffffffffffffffff\n      and\n      0x833a8c184ec07bf938dc27595f1302167abdf9f957ee775fa12ae55ae701a2e3\n        /* \"contracts/MedicalData.sol\":3408:3416  _allowed */\n      dup5\n        /* \"contracts/MedicalData.sol\":3375:3417  AccessGranted(_patient, _doctor, _allowed) */\n      mload(0x40)\n      tag_75\n      swap2\n      swap1\n      tag_45\n      jump\t// in\n    tag_75:\n      mload(0x40)\n      dup1\n      swap2\n      sub\n      swap1\n      log3\n        /* \"contracts/MedicalData.sol\":1924:1925  _ */\n      pop\n        /* \"contracts/MedicalData.sol\":3073:3425  function setDoctorAccess(... */\n      pop\n      pop\n      pop\n      jump\t// out\n        /* \"contracts/MedicalData.sol\":2326:2605  function registerPatient(address _wallet) external onlyAdmin {... */\n    tag_22:\n        /* \"contracts/MedicalData.sol\":1870:1875  admin */\n      0x00\n      0x00\n      swap1\n      sload\n      swap1\n      0x0100\n      exp\n      swap1\n      div\n      0xffffffffffffffffffffffffffffffffffffffff\n      and\n        /* \"contracts/MedicalData.sol\":1856:1875  msg.sender == admin */\n      0xffffffffffffffffffffffffffffffffffffffff\n      and\n        /* \"contracts/MedicalData.sol\":1856:1866  msg.sender */\n      caller\n        /* \"contracts/MedicalData.sol\":1856:1875  msg.sender == admin */\n      0xffffffffffffffffffffffffffffffffffffffff\n      and\n      eq\n        /* \"contracts/MedicalData.sol\":1848:1913  require(msg.sender == admin, \"Only admin can call this function\") */\n      tag_77\n      jumpi\n      mload(0x40)\n      0x08c379a000000000000000000000000000000000000000000000000000000000\n      dup2\n      mstore\n      0x04\n      add\n      tag_78\n      swap1\n      tag_66\n      jump\t// in\n    tag_78:\n      mload(0x40)\n      dup1\n      swap2\n      sub\n      swap1\n      revert\n    tag_77:\n        /* \"contracts/MedicalData.sol\":2425:2426  0 */\n      0x00\n        /* \"contracts/MedicalData.sol\":2406:2427  _wallet != address(0) */\n      0xffffffffffffffffffffffffffffffffffffffff\n      and\n        /* \"contracts/MedicalData.sol\":2406:2413  _wallet */\n      dup2\n        /* \"contracts/MedicalData.sol\":2406:2427  _wallet != address(0) */\n      0xffffffffffffffffffffffffffffffffffffffff\n      and\n      sub\n        /* \"contracts/MedicalData.sol\":2398:2446  require(_wallet != address(0), \"Invalid wallet\") */\n      tag_80\n      jumpi\n      mload(0x40)\n      0x08c379a000000000000000000000000000000000000000000000000000000000\n      dup2\n      mstore\n      0x04\n      add\n      tag_81\n      swap1\n      tag_82\n      jump\t// in\n    tag_81:\n      mload(0x40)\n      dup1\n      swap2\n      sub\n      swap1\n      revert\n    tag_80:\n        /* \"contracts/MedicalData.sol\":2466:2475  isPatient */\n      0x01\n        /* \"contracts/MedicalData.sol\":2466:2484  isPatient[_wallet] */\n      0x00\n        /* \"contracts/MedicalData.sol\":2476:2483  _wallet */\n      dup3\n        /* \"contracts/MedicalData.sol\":2466:2484  isPatient[_wallet] */\n      0xffffffffffffffffffffffffffffffffffffffff\n      and\n      0xffffffffffffffffffffffffffffffffffffffff\n      and\n      dup2\n      mstore\n      0x20\n      add\n      swap1\n      dup2\n      mstore\n      0x20\n      add\n      0x00\n      keccak256\n      0x00\n      swap1\n      sload\n      swap1\n      0x0100\n      exp\n      swap1\n      div\n      0xff\n      and\n        /* \"contracts/MedicalData.sol\":2465:2484  !isPatient[_wallet] */\n      iszero\n        /* \"contracts/MedicalData.sol\":2457:2515  require(!isPatient[_wallet], \"Patient already registered\") */\n      tag_83\n      jumpi\n      mload(0x40)\n      0x08c379a000000000000000000000000000000000000000000000000000000000\n      dup2\n      mstore\n      0x04\n      add\n      tag_84\n      swap1\n      tag_85\n      jump\t// in\n    tag_84:\n      mload(0x40)\n      dup1\n      swap2\n      sub\n      swap1\n      revert\n    tag_83:\n        /* \"contracts/MedicalData.sol\":2549:2553  true */\n      0x01\n        /* \"contracts/MedicalData.sol\":2528:2537  isPatient */\n      dup1\n        /* \"contracts/MedicalData.sol\":2528:2546  isPatient[_wallet] */\n      0x00\n        /* \"contracts/MedicalData.sol\":2538:2545  _wallet */\n      dup4\n        /* \"contracts/MedicalData.sol\":2528:2546  isPatient[_wallet] */\n      0xffffffffffffffffffffffffffffffffffffffff\n      and\n      0xffffffffffffffffffffffffffffffffffffffff\n      and\n      dup2\n      mstore\n      0x20\n      add\n      swap1\n      dup2\n      mstore\n      0x20\n      add\n      0x00\n      keccak256\n      0x00\n        /* \"contracts/MedicalData.sol\":2528:2553  isPatient[_wallet] = true */\n      0x0100\n      exp\n      dup2\n      sload\n      dup2\n      0xff\n      mul\n      not\n      and\n      swap1\n      dup4\n      iszero\n      iszero\n      mul\n      or\n      swap1\n      sstore\n      pop\n        /* \"contracts/MedicalData.sol\":2589:2596  _wallet */\n      dup1\n        /* \"contracts/MedicalData.sol\":2571:2597  PatientRegistered(_wallet) */\n      0xffffffffffffffffffffffffffffffffffffffff\n      and\n      0xc9fa2003fca4ce0dfc8cb0deae32266b715536df6685365b05b5be96ede8e49c\n      mload(0x40)\n      mload(0x40)\n      dup1\n      swap2\n      sub\n      swap1\n      log2\n        /* \"contracts/MedicalData.sol\":2326:2605  function registerPatient(address _wallet) external onlyAdmin {... */\n      pop\n      jump\t// out\n        /* \"contracts/MedicalData.sol\":4640:4864  function getPrescriptionsForPatient(address _patient)... */\n    tag_25:\n        /* \"contracts/MedicalData.sol\":4783:4799  uint256[] memory */\n      0x60\n        /* \"contracts/MedicalData.sol\":4755:4763  _patient */\n      dup2\n        /* \"contracts/MedicalData.sol\":2135:2144  isPatient */\n      0x01\n        /* \"contracts/MedicalData.sol\":2135:2154  isPatient[_patient] */\n      0x00\n        /* \"contracts/MedicalData.sol\":2145:2153  _patient */\n      dup3\n        /* \"contracts/MedicalData.sol\":2135:2154  isPatient[_patient] */\n      0xffffffffffffffffffffffffffffffffffffffff\n      and\n      0xffffffffffffffffffffffffffffffffffffffff\n      and\n      dup2\n      mstore\n      0x20\n      add\n      swap1\n      dup2\n      mstore\n      0x20\n      add\n      0x00\n      keccak256\n      0x00\n      swap1\n      sload\n      swap1\n      0x0100\n      exp\n      swap1\n      div\n      0xff\n      and\n        /* \"contracts/MedicalData.sol\":2127:2184  require(isPatient[_patient], \"Patient is not registered\") */\n      tag_87\n      jumpi\n      mload(0x40)\n      0x08c379a000000000000000000000000000000000000000000000000000000000\n      dup2\n      mstore\n      0x04\n      add\n      tag_88\n      swap1\n      tag_70\n      jump\t// in\n    tag_88:\n      mload(0x40)\n      dup1\n      swap2\n      sub\n      swap1\n      revert\n    tag_87:\n        /* \"contracts/MedicalData.sol\":4824:4846  patientPrescriptionIds */\n      0x05\n        /* \"contracts/MedicalData.sol\":4824:4856  patientPrescriptionIds[_patient] */\n      0x00\n        /* \"contracts/MedicalData.sol\":4847:4855  _patient */\n      dup5\n        /* \"contracts/MedicalData.sol\":4824:4856  patientPrescriptionIds[_patient] */\n      0xffffffffffffffffffffffffffffffffffffffff\n      and\n      0xffffffffffffffffffffffffffffffffffffffff\n      and\n      dup2\n      mstore\n      0x20\n      add\n      swap1\n      dup2\n      mstore\n      0x20\n      add\n      0x00\n      keccak256\n        /* \"contracts/MedicalData.sol\":4817:4856  return patientPrescriptionIds[_patient] */\n      dup1\n      sload\n      dup1\n      0x20\n      mul\n      0x20\n      add\n      mload(0x40)\n      swap1\n      dup2\n      add\n      0x40\n      mstore\n      dup1\n      swap3\n      swap2\n      swap1\n      dup2\n      dup2\n      mstore\n      0x20\n      add\n      dup3\n      dup1\n      sload\n      dup1\n      iszero\n      tag_90\n      jumpi\n      0x20\n      mul\n      dup3\n      add\n      swap2\n      swap1\n      0x00\n      mstore\n      keccak256(0x00, 0x20)\n      swap1\n    tag_91:\n      dup2\n      sload\n      dup2\n      mstore\n      0x20\n      add\n      swap1\n      0x01\n      add\n      swap1\n      dup1\n      dup4\n      gt\n      tag_91\n      jumpi\n    tag_90:\n      pop\n      pop\n      pop\n      pop\n      pop\n      swap2\n      pop\n        /* \"contracts/MedicalData.sol\":4640:4864  function getPrescriptionsForPatient(address _patient)... */\n      pop\n      swap2\n      swap1\n      pop\n      jump\t// out\n        /* \"contracts/MedicalData.sol\":2664:2938  function registerDoctor(address _wallet) external onlyAdmin {... */\n    tag_30:\n        /* \"contracts/MedicalData.sol\":1870:1875  admin */\n      0x00\n      0x00\n      swap1\n      sload\n      swap1\n      0x0100\n      exp\n      swap1\n      div\n      0xffffffffffffffffffffffffffffffffffffffff\n      and\n        /* \"contracts/MedicalData.sol\":1856:1875  msg.sender == admin */\n      0xffffffffffffffffffffffffffffffffffffffff\n      and\n        /* \"contracts/MedicalData.sol\":1856:1866  msg.sender */\n      caller\n        /* \"contracts/MedicalData.sol\":1856:1875  msg.sender == admin */\n      0xffffffffffffffffffffffffffffffffffffffff\n      and\n      eq\n        /* \"contracts/MedicalData.sol\":1848:1913  require(msg.sender == admin, \"Only admin can call this function\") */\n      tag_93\n      jumpi\n      mload(0x40)\n      0x08c379a000000000000000000000000000000000000000000000000000000000\n      dup2\n      mstore\n      0x04\n      add\n      tag_94\n      swap1\n      tag_66\n      jump\t// in\n    tag_94:\n      mload(0x40)\n      dup1\n      swap2\n      sub\n      swap1\n      revert\n    tag_93:\n        /* \"contracts/MedicalData.sol\":2762:2763  0 */\n      0x00\n        /* \"contracts/MedicalData.sol\":2743:2764  _wallet != address(0) */\n      0xffffffffffffffffffffffffffffffffffffffff\n      and\n        /* \"contracts/MedicalData.sol\":2743:2750  _wallet */\n      dup2\n        /* \"contracts/MedicalData.sol\":2743:2764  _wallet != address(0) */\n      0xffffffffffffffffffffffffffffffffffffffff\n      and\n      sub\n        /* \"contracts/MedicalData.sol\":2735:2783  require(_wallet != address(0), \"Invalid wallet\") */\n      tag_96\n      jumpi\n      mload(0x40)\n      0x08c379a000000000000000000000000000000000000000000000000000000000\n      dup2\n      mstore\n      0x04\n      add\n      tag_97\n      swap1\n      tag_82\n      jump\t// in\n    tag_97:\n      mload(0x40)\n      dup1\n      swap2\n      sub\n      swap1\n      revert\n    tag_96:\n        /* \"contracts/MedicalData.sol\":2803:2811  isDoctor */\n      0x02\n        /* \"contracts/MedicalData.sol\":2803:2820  isDoctor[_wallet] */\n      0x00\n        /* \"contracts/MedicalData.sol\":2812:2819  _wallet */\n      dup3\n        /* \"contracts/MedicalData.sol\":2803:2820  isDoctor[_wallet] */\n      0xffffffffffffffffffffffffffffffffffffffff\n      and\n      0xffffffffffffffffffffffffffffffffffffffff\n      and\n      dup2\n      mstore\n      0x20\n      add\n      swap1\n      dup2\n      mstore\n      0x20\n      add\n      0x00\n      keccak256\n      0x00\n      swap1\n      sload\n      swap1\n      0x0100\n      exp\n      swap1\n      div\n      0xff\n      and\n        /* \"contracts/MedicalData.sol\":2802:2820  !isDoctor[_wallet] */\n      iszero\n        /* \"contracts/MedicalData.sol\":2794:2850  require(!isDoctor[_wallet], \"Doctor already registered\") */\n      tag_98\n      jumpi\n      mload(0x40)\n      0x08c379a000000000000000000000000000000000000000000000000000000000\n      dup2\n      mstore\n      0x04\n      add\n      tag_99\n      swap1\n      tag_100\n      jump\t// in\n    tag_99:\n      mload(0x40)\n      dup1\n      swap2\n      sub\n      swap1\n      revert\n    tag_98:\n        /* \"contracts/MedicalData.sol\":2883:2887  true */\n      0x01\n        /* \"contracts/MedicalData.sol\":2863:2871  isDoctor */\n      0x02\n        /* \"contracts/MedicalData.sol\":2863:2880  isDoctor[_wallet] */\n      0x00\n        /* \"contracts/MedicalData.sol\":2872:2879  _wallet */\n      dup4\n        /* \"contracts/MedicalData.sol\":2863:2880  isDoctor[_wallet] */\n      0xffffffffffffffffffffffffffffffffffffffff\n      and\n      0xffffffffffffffffffffffffffffffffffffffff\n      and\n      dup2\n      mstore\n      0x20\n      add\n      swap1\n      dup2\n      mstore\n      0x20\n      add\n      0x00\n      keccak256\n      0x00\n        /* \"contracts/MedicalData.sol\":2863:2887  isDoctor[_wallet] = true */\n      0x0100\n      exp\n      dup2\n      sload\n      dup2\n      0xff\n      mul\n      not\n      and\n      swap1\n      dup4\n      iszero\n      iszero\n      mul\n      or\n      swap1\n      sstore\n      pop\n        /* \"contracts/MedicalData.sol\":2922:2929  _wallet */\n      dup1\n        /* \"contracts/MedicalData.sol\":2905:2930  DoctorRegistered(_wallet) */\n      0xffffffffffffffffffffffffffffffffffffffff\n      and\n      0x2dc8105a7545248d0e354c4c6b02fb583071cc719fb4bef1ca74d72d475570bc\n      mload(0x40)\n      mload(0x40)\n      dup1\n      swap2\n      sub\n      swap1\n      log2\n        /* \"contracts/MedicalData.sol\":2664:2938  function registerDoctor(address _wallet) external onlyAdmin {... */\n      pop\n      jump\t// out\n        /* \"contracts/MedicalData.sol\":4946:5666  function getPrescription(uint256 _id)... */\n    tag_34:\n        /* \"contracts/MedicalData.sol\":5048:5058  uint256 id */\n      0x00\n        /* \"contracts/MedicalData.sol\":5073:5088  address patient */\n      0x00\n        /* \"contracts/MedicalData.sol\":5103:5117  address doctor */\n      0x00\n        /* \"contracts/MedicalData.sol\":5132:5160  string memory medicationName */\n      0x60\n        /* \"contracts/MedicalData.sol\":5175:5195  string memory dosage */\n      dup1\n        /* \"contracts/MedicalData.sol\":5210:5232  string memory schedule */\n      0x60\n        /* \"contracts/MedicalData.sol\":5247:5264  uint256 timestamp */\n      0x00\n        /* \"contracts/MedicalData.sol\":5279:5301  string memory ipfsHash */\n      0x60\n        /* \"contracts/MedicalData.sol\":5329:5350  Prescription memory p */\n      0x00\n        /* \"contracts/MedicalData.sol\":5353:5366  prescriptions */\n      0x04\n        /* \"contracts/MedicalData.sol\":5353:5371  prescriptions[_id] */\n      0x00\n        /* \"contracts/MedicalData.sol\":5367:5370  _id */\n      dup12\n        /* \"contracts/MedicalData.sol\":5353:5371  prescriptions[_id] */\n      dup2\n      mstore\n      0x20\n      add\n      swap1\n      dup2\n      mstore\n      0x20\n      add\n      0x00\n      keccak256\n        /* \"contracts/MedicalData.sol\":5329:5371  Prescription memory p = prescriptions[_id] */\n      mload(0x40)\n      dup1\n      0x0100\n      add\n      0x40\n      mstore\n      swap1\n      dup2\n      0x00\n      dup3\n      add\n      sload\n      dup2\n      mstore\n      0x20\n      add\n      0x01\n      dup3\n      add\n      0x00\n      swap1\n      sload\n      swap1\n      0x0100\n      exp\n      swap1\n      div\n      0xffffffffffffffffffffffffffffffffffffffff\n      and\n      0xffffffffffffffffffffffffffffffffffffffff\n      and\n      0xffffffffffffffffffffffffffffffffffffffff\n      and\n      dup2\n      mstore\n      0x20\n      add\n      0x02\n      dup3\n      add\n      0x00\n      swap1\n      sload\n      swap1\n      0x0100\n      exp\n      swap1\n      div\n      0xffffffffffffffffffffffffffffffffffffffff\n      and\n      0xffffffffffffffffffffffffffffffffffffffff\n      and\n      0xffffffffffffffffffffffffffffffffffffffff\n      and\n      dup2\n      mstore\n      0x20\n      add\n      0x03\n      dup3\n      add\n      dup1\n      sload\n      tag_102\n      swap1\n      tag_103\n      jump\t// in\n    tag_102:\n      dup1\n      0x1f\n      add\n      0x20\n      dup1\n      swap2\n      div\n      mul\n      0x20\n      add\n      mload(0x40)\n      swap1\n      dup2\n      add\n      0x40\n      mstore\n      dup1\n      swap3\n      swap2\n      swap1\n      dup2\n      dup2\n      mstore\n      0x20\n      add\n      dup3\n      dup1\n      sload\n      tag_104\n      swap1\n      tag_103\n      jump\t// in\n    tag_104:\n      dup1\n      iszero\n      tag_105\n      jumpi\n      dup1\n      0x1f\n      lt\n      tag_106\n      jumpi\n      0x0100\n      dup1\n      dup4\n      sload\n      div\n      mul\n      dup4\n      mstore\n      swap2\n      0x20\n      add\n      swap2\n      jump(tag_105)\n    tag_106:\n      dup3\n      add\n      swap2\n      swap1\n      0x00\n      mstore\n      keccak256(0x00, 0x20)\n      swap1\n    tag_107:\n      dup2\n      sload\n      dup2\n      mstore\n      swap1\n      0x01\n      add\n      swap1\n      0x20\n      add\n      dup1\n      dup4\n      gt\n      tag_107\n      jumpi\n      dup3\n      swap1\n      sub\n      0x1f\n      and\n      dup3\n      add\n      swap2\n    tag_105:\n      pop\n      pop\n      pop\n      pop\n      pop\n      dup2\n      mstore\n      0x20\n      add\n      0x04\n      dup3\n      add\n      dup1\n      sload\n      tag_108\n      swap1\n      tag_103\n      jump\t// in\n    tag_108:\n      dup1\n      0x1f\n      add\n      0x20\n      dup1\n      swap2\n      div\n      mul\n      0x20\n      add\n      mload(0x40)\n      swap1\n      dup2\n      add\n      0x40\n      mstore\n      dup1\n      swap3\n      swap2\n      swap1\n      dup2\n      dup2\n      mstore\n      0x20\n      add\n      dup3\n      dup1\n      sload\n      tag_109\n      swap1\n      tag_103\n      jump\t// in\n    tag_109:\n      dup1\n      iszero\n      tag_110\n      jumpi\n      dup1\n      0x1f\n      lt\n      tag_111\n      jumpi\n      0x0100\n      dup1\n      dup4\n      sload\n      div\n      mul\n      dup4\n      mstore\n      swap2\n      0x20\n      add\n      swap2\n      jump(tag_110)\n    tag_111:\n      dup3\n      add\n      swap2\n      swap1\n      0x00\n      mstore\n      keccak256(0x00, 0x20)\n      swap1\n    tag_112:\n      dup2\n      sload\n      dup2\n      mstore\n      swap1\n      0x01\n      add\n      swap1\n      0x20\n      add\n      dup1\n      dup4\n      gt\n      tag_112\n      jumpi\n      dup3\n      swap1\n      sub\n      0x1f\n      and\n      dup3\n      add\n      swap2\n    tag_110:\n      pop\n      pop\n      pop\n      pop\n      pop\n      dup2\n      mstore\n      0x20\n      add\n      0x05\n      dup3\n      add\n      dup1\n      sload\n      tag_113\n      swap1\n      tag_103\n      jump\t// in\n    tag_113:\n      dup1\n      0x1f\n      add\n      0x20\n      dup1\n      swap2\n      div\n      mul\n      0x20\n      add\n      mload(0x40)\n      swap1\n      dup2\n      add\n      0x40\n      mstore\n      dup1\n      swap3\n      swap2\n      swap1\n      dup2\n      dup2\n      mstore\n      0x20\n      add\n      dup3\n      dup1\n      sload\n      tag_114\n      swap1\n      tag_103\n      jump\t// in\n    tag_114:\n      dup1\n      iszero\n      tag_115\n      jumpi\n      dup1\n      0x1f\n      lt\n      tag_116\n      jumpi\n      0x0100\n      dup1\n      dup4\n      sload\n      div\n      mul\n      dup4\n      mstore\n      swap2\n      0x20\n      add\n      swap2\n      jump(tag_115)\n    tag_116:\n      dup3\n      add\n      swap2\n      swap1\n      0x00\n      mstore\n      keccak256(0x00, 0x20)\n      swap1\n    tag_117:\n      dup2\n      sload\n      dup2\n      mstore\n      swap1\n      0x01\n      add\n      swap1\n      0x20\n      add\n      dup1\n      dup4\n      gt\n      tag_117\n      jumpi\n      dup3\n      swap1\n      sub\n      0x1f\n      and\n      dup3\n      add\n      swap2\n    tag_115:\n      pop\n      pop\n      pop\n      pop\n      pop\n      dup2\n      mstore\n      0x20\n      add\n      0x06\n      dup3\n      add\n      sload\n      dup2\n      mstore\n      0x20\n      add\n      0x07\n      dup3\n      add\n      dup1\n      sload\n      tag_118\n      swap1\n      tag_103\n      jump\t// in\n    tag_118:\n      dup1\n      0x1f\n      add\n      0x20\n      dup1\n      swap2\n      div\n      mul\n      0x20\n      add\n      mload(0x40)\n      swap1\n      dup2\n      add\n      0x40\n      mstore\n      dup1\n      swap3\n      swap2\n      swap1\n      dup2\n      dup2\n      mstore\n      0x20\n      add\n      dup3\n      dup1\n      sload\n      tag_119\n      swap1\n      tag_103\n      jump\t// in\n    tag_119:\n      dup1\n      iszero\n      tag_120\n      jumpi\n      dup1\n      0x1f\n      lt\n      tag_121\n      jumpi\n      0x0100\n      dup1\n      dup4\n      sload\n      div\n      mul\n      dup4\n      mstore\n      swap2\n      0x20\n      add\n      swap2\n      jump(tag_120)\n    tag_121:\n      dup3\n      add\n      swap2\n      swap1\n      0x00\n      mstore\n      keccak256(0x00, 0x20)\n      swap1\n    tag_122:\n      dup2\n      sload\n      dup2\n      mstore\n      swap1\n      0x01\n      add\n      swap1\n      0x20\n      add\n      dup1\n      dup4\n      gt\n      tag_122\n      jumpi\n      dup3\n      swap1\n      sub\n      0x1f\n      and\n      dup3\n      add\n      swap2\n    tag_120:\n      pop\n      pop\n      pop\n      pop\n      pop\n      dup2\n      mstore\n      pop\n      pop\n      swap1\n      pop\n        /* \"contracts/MedicalData.sol\":5398:5399  0 */\n      0x00\n        /* \"contracts/MedicalData.sol\":5390:5391  p */\n      dup2\n        /* \"contracts/MedicalData.sol\":5390:5394  p.id */\n      0x00\n      add\n      mload\n        /* \"contracts/MedicalData.sol\":5390:5399  p.id != 0 */\n      sub\n        /* \"contracts/MedicalData.sol\":5382:5431  require(p.id != 0, \"Prescription does not exist\") */\n      tag_123\n      jumpi\n      mload(0x40)\n      0x08c379a000000000000000000000000000000000000000000000000000000000\n      dup2\n      mstore\n      0x04\n      add\n      tag_124\n      swap1\n      tag_125\n      jump\t// in\n    tag_124:\n      mload(0x40)\n      dup1\n      swap2\n      sub\n      swap1\n      revert\n    tag_123:\n        /* \"contracts/MedicalData.sol\":5466:5467  p */\n      dup1\n        /* \"contracts/MedicalData.sol\":5466:5470  p.id */\n      0x00\n      add\n      mload\n        /* \"contracts/MedicalData.sol\":5485:5486  p */\n      dup2\n        /* \"contracts/MedicalData.sol\":5485:5494  p.patient */\n      0x20\n      add\n      mload\n        /* \"contracts/MedicalData.sol\":5509:5510  p */\n      dup3\n        /* \"contracts/MedicalData.sol\":5509:5517  p.doctor */\n      0x40\n      add\n      mload\n        /* \"contracts/MedicalData.sol\":5532:5533  p */\n      dup4\n        /* \"contracts/MedicalData.sol\":5532:5548  p.medicationName */\n      0x60\n      add\n      mload\n        /* \"contracts/MedicalData.sol\":5563:5564  p */\n      dup5\n        /* \"contracts/MedicalData.sol\":5563:5571  p.dosage */\n      0x80\n      add\n      mload\n        /* \"contracts/MedicalData.sol\":5586:5587  p */\n      dup6\n        /* \"contracts/MedicalData.sol\":5586:5596  p.schedule */\n      0xa0\n      add\n      mload\n        /* \"contracts/MedicalData.sol\":5611:5612  p */\n      dup7\n        /* \"contracts/MedicalData.sol\":5611:5622  p.timestamp */\n      0xc0\n      add\n      mload\n        /* \"contracts/MedicalData.sol\":5637:5638  p */\n      dup8\n        /* \"contracts/MedicalData.sol\":5637:5647  p.ipfsHash */\n      0xe0\n      add\n      mload\n        /* \"contracts/MedicalData.sol\":5444:5658  return (... */\n      swap9\n      pop\n      swap9\n      pop\n      swap9\n      pop\n      swap9\n      pop\n      swap9\n      pop\n      swap9\n      pop\n      swap9\n      pop\n      swap9\n      pop\n      pop\n        /* \"contracts/MedicalData.sol\":4946:5666  function getPrescription(uint256 _id)... */\n      swap2\n      swap4\n      swap6\n      swap8\n      pop\n      swap2\n      swap4\n      swap6\n      swap8\n      jump\t// out\n        /* \"contracts/MedicalData.sol\":528:565  uint256 public nextPrescriptionId = 1 */\n    tag_38:\n      sload(0x03)\n      dup2\n      jump\t// out\n        /* \"contracts/MedicalData.sol\":120:161  mapping(address => bool) public isPatient */\n    tag_43:\n      mstore(0x20, 0x01)\n      dup1\n      0x00\n      mstore\n      keccak256(0x00, 0x40)\n      0x00\n      swap2\n      pop\n      sload\n      swap1\n      0x0100\n      exp\n      swap1\n      div\n      0xff\n      and\n      dup2\n      jump\t// out\n        /* \"contracts/MedicalData.sol\":168:208  mapping(address => bool) public isDoctor */\n    tag_48:\n      mstore(0x20, 0x02)\n      dup1\n      0x00\n      mstore\n      keccak256(0x00, 0x40)\n      0x00\n      swap2\n      pop\n      sload\n      swap1\n      0x0100\n      exp\n      swap1\n      div\n      0xff\n      and\n      dup2\n      jump\t// out\n        /* \"contracts/MedicalData.sol\":3504:4537  function addPrescriptionByRelayer(... */\n    tag_53:\n        /* \"contracts/MedicalData.sol\":1870:1875  admin */\n      0x00\n      0x00\n      swap1\n      sload\n      swap1\n      0x0100\n      exp\n      swap1\n      div\n      0xffffffffffffffffffffffffffffffffffffffff\n      and\n        /* \"contracts/MedicalData.sol\":1856:1875  msg.sender == admin */\n      0xffffffffffffffffffffffffffffffffffffffff\n      and\n        /* \"contracts/MedicalData.sol\":1856:1866  msg.sender */\n      caller\n        /* \"contracts/MedicalData.sol\":1856:1875  msg.sender == admin */\n      0xffffffffffffffffffffffffffffffffffffffff\n      and\n      eq\n        /* \"contracts/MedicalData.sol\":1848:1913  require(msg.sender == admin, \"Only admin can call this function\") */\n      tag_127\n      jumpi\n      mload(0x40)\n      0x08c379a000000000000000000000000000000000000000000000000000000000\n      dup2\n      mstore\n      0x04\n      add\n      tag_128\n      swap1\n      tag_66\n      jump\t// in\n    tag_128:\n      mload(0x40)\n      dup1\n      swap2\n      sub\n      swap1\n      revert\n    tag_127:\n        /* \"contracts/MedicalData.sol\":3812:3820  _patient */\n      dup9\n        /* \"contracts/MedicalData.sol\":2135:2144  isPatient */\n      0x01\n        /* \"contracts/MedicalData.sol\":2135:2154  isPatient[_patient] */\n      0x00\n        /* \"contracts/MedicalData.sol\":2145:2153  _patient */\n      dup3\n        /* \"contracts/MedicalData.sol\":2135:2154  isPatient[_patient] */\n      0xffffffffffffffffffffffffffffffffffffffff\n      and\n      0xffffffffffffffffffffffffffffffffffffffff\n      and\n      dup2\n      mstore\n      0x20\n      add\n      swap1\n      dup2\n      mstore\n      0x20\n      add\n      0x00\n      keccak256\n      0x00\n      swap1\n      sload\n      swap1\n      0x0100\n      exp\n      swap1\n      div\n      0xff\n      and\n        /* \"contracts/MedicalData.sol\":2127:2184  require(isPatient[_patient], \"Patient is not registered\") */\n      tag_130\n      jumpi\n      mload(0x40)\n      0x08c379a000000000000000000000000000000000000000000000000000000000\n      dup2\n      mstore\n      0x04\n      add\n      tag_131\n      swap1\n      tag_70\n      jump\t// in\n    tag_131:\n      mload(0x40)\n      dup1\n      swap2\n      sub\n      swap1\n      revert\n    tag_130:\n        /* \"contracts/MedicalData.sol\":3846:3854  isDoctor */\n      0x02\n        /* \"contracts/MedicalData.sol\":3846:3863  isDoctor[_doctor] */\n      0x00\n        /* \"contracts/MedicalData.sol\":3855:3862  _doctor */\n      dup13\n        /* \"contracts/MedicalData.sol\":3846:3863  isDoctor[_doctor] */\n      0xffffffffffffffffffffffffffffffffffffffff\n      and\n      0xffffffffffffffffffffffffffffffffffffffff\n      and\n      dup2\n      mstore\n      0x20\n      add\n      swap1\n      dup2\n      mstore\n      0x20\n      add\n      0x00\n      keccak256\n      0x00\n      swap1\n      sload\n      swap1\n      0x0100\n      exp\n      swap1\n      div\n      0xff\n      and\n        /* \"contracts/MedicalData.sol\":3838:3889  require(isDoctor[_doctor], \"Doctor not registered\") */\n      tag_133\n      jumpi\n      mload(0x40)\n      0x08c379a000000000000000000000000000000000000000000000000000000000\n      dup2\n      mstore\n      0x04\n      add\n      tag_134\n      swap1\n      tag_74\n      jump\t// in\n    tag_134:\n      mload(0x40)\n      dup1\n      swap2\n      sub\n      swap1\n      revert\n    tag_133:\n        /* \"contracts/MedicalData.sol\":3922:3943  patientToDoctorAccess */\n      0x06\n        /* \"contracts/MedicalData.sol\":3922:3953  patientToDoctorAccess[_patient] */\n      0x00\n        /* \"contracts/MedicalData.sol\":3944:3952  _patient */\n      dup12\n        /* \"contracts/MedicalData.sol\":3922:3953  patientToDoctorAccess[_patient] */\n      0xffffffffffffffffffffffffffffffffffffffff\n      and\n      0xffffffffffffffffffffffffffffffffffffffff\n      and\n      dup2\n      mstore\n      0x20\n      add\n      swap1\n      dup2\n      mstore\n      0x20\n      add\n      0x00\n      keccak256\n        /* \"contracts/MedicalData.sol\":3922:3962  patientToDoctorAccess[_patient][_doctor] */\n      0x00\n        /* \"contracts/MedicalData.sol\":3954:3961  _doctor */\n      dup13\n        /* \"contracts/MedicalData.sol\":3922:3962  patientToDoctorAccess[_patient][_doctor] */\n      0xffffffffffffffffffffffffffffffffffffffff\n      and\n      0xffffffffffffffffffffffffffffffffffffffff\n      and\n      dup2\n      mstore\n      0x20\n      add\n      swap1\n      dup2\n      mstore\n      0x20\n      add\n      0x00\n      keccak256\n      0x00\n      swap1\n      sload\n      swap1\n      0x0100\n      exp\n      swap1\n      div\n      0xff\n      and\n        /* \"contracts/MedicalData.sol\":3900:4026  require(... */\n      tag_135\n      jumpi\n      mload(0x40)\n      0x08c379a000000000000000000000000000000000000000000000000000000000\n      dup2\n      mstore\n      0x04\n      add\n      tag_136\n      swap1\n      tag_137\n      jump\t// in\n    tag_136:\n      mload(0x40)\n      dup1\n      swap2\n      sub\n      swap1\n      revert\n    tag_135:\n        /* \"contracts/MedicalData.sol\":4039:4049  uint256 id */\n      0x00\n        /* \"contracts/MedicalData.sol\":4052:4070  nextPrescriptionId */\n      0x03\n      0x00\n        /* \"contracts/MedicalData.sol\":4052:4072  nextPrescriptionId++ */\n      dup2\n      sload\n      dup1\n      swap3\n      swap2\n      swap1\n      tag_138\n      swap1\n      tag_139\n      jump\t// in\n    tag_138:\n      swap2\n      swap1\n      pop\n      sstore\n        /* \"contracts/MedicalData.sol\":4039:4072  uint256 id = nextPrescriptionId++ */\n      swap1\n      pop\n        /* \"contracts/MedicalData.sol\":4105:4398  Prescription({... */\n      mload(0x40)\n      dup1\n      0x0100\n      add\n      0x40\n      mstore\n      dup1\n        /* \"contracts/MedicalData.sol\":4137:4139  id */\n      dup3\n        /* \"contracts/MedicalData.sol\":4105:4398  Prescription({... */\n      dup2\n      mstore\n      0x20\n      add\n        /* \"contracts/MedicalData.sol\":4163:4171  _patient */\n      dup13\n        /* \"contracts/MedicalData.sol\":4105:4398  Prescription({... */\n      0xffffffffffffffffffffffffffffffffffffffff\n      and\n      dup2\n      mstore\n      0x20\n      add\n        /* \"contracts/MedicalData.sol\":4194:4201  _doctor */\n      dup14\n        /* \"contracts/MedicalData.sol\":4105:4398  Prescription({... */\n      0xffffffffffffffffffffffffffffffffffffffff\n      and\n      dup2\n      mstore\n      0x20\n      add\n        /* \"contracts/MedicalData.sol\":4232:4247  _medicationName */\n      dup12\n      dup12\n        /* \"contracts/MedicalData.sol\":4105:4398  Prescription({... */\n      dup1\n      dup1\n      0x1f\n      add\n      0x20\n      dup1\n      swap2\n      div\n      mul\n      0x20\n      add\n      mload(0x40)\n      swap1\n      dup2\n      add\n      0x40\n      mstore\n      dup1\n      swap4\n      swap3\n      swap2\n      swap1\n      dup2\n      dup2\n      mstore\n      0x20\n      add\n      dup4\n      dup4\n      dup1\n      dup3\n      dup5\n      calldatacopy\n      0x00\n      dup2\n      dup5\n      add\n      mstore\n      not(0x1f)\n      0x1f\n      dup3\n      add\n      and\n      swap1\n      pop\n      dup1\n      dup4\n      add\n      swap3\n      pop\n      pop\n      pop\n      pop\n      pop\n      pop\n      pop\n      dup2\n      mstore\n      0x20\n      add\n        /* \"contracts/MedicalData.sol\":4270:4277  _dosage */\n      dup10\n      dup10\n        /* \"contracts/MedicalData.sol\":4105:4398  Prescription({... */\n      dup1\n      dup1\n      0x1f\n      add\n      0x20\n      dup1\n      swap2\n      div\n      mul\n      0x20\n      add\n      mload(0x40)\n      swap1\n      dup2\n      add\n      0x40\n      mstore\n      dup1\n      swap4\n      swap3\n      swap2\n      swap1\n      dup2\n      dup2\n      mstore\n      0x20\n      add\n      dup4\n      dup4\n      dup1\n      dup3\n      dup5\n      calldatacopy\n      0x00\n      dup2\n      dup5\n      add\n      mstore\n      not(0x1f)\n      0x1f\n      dup3\n      add\n      and\n      swap1\n      pop\n      dup1\n      dup4\n      add\n      swap3\n      pop\n      pop\n      pop\n      pop\n      pop\n      pop\n      pop\n      dup2\n      mstore\n      0x20\n      add\n        /* \"contracts/MedicalData.sol\":4302:4311  _schedule */\n      dup8\n      dup8\n        /* \"contracts/MedicalData.sol\":4105:4398  Prescription({... */\n      dup1\n      dup1\n      0x1f\n      add\n      0x20\n      dup1\n      swap2\n      div\n      mul\n      0x20\n      add\n      mload(0x40)\n      swap1\n      dup2\n      add\n      0x40\n      mstore\n      dup1\n      swap4\n      swap3\n      swap2\n      swap1\n      dup2\n      dup2\n      mstore\n      0x20\n      add\n      dup4\n      dup4\n      dup1\n      dup3\n      dup5\n      calldatacopy\n      0x00\n      dup2\n      dup5\n      add\n      mstore\n      not(0x1f)\n      0x1f\n      dup3\n      add\n      and\n      swap1\n      pop\n      dup1\n      dup4\n      add\n      swap3\n      pop\n      pop\n      pop\n      pop\n      pop\n      pop\n      pop\n      dup2\n      mstore\n      0x20\n      add\n        /* \"contracts/MedicalData.sol\":4337:4352  block.timestamp */\n      timestamp\n        /* \"contracts/MedicalData.sol\":4105:4398  Prescription({... */\n      dup2\n      mstore\n      0x20\n      add\n        /* \"contracts/MedicalData.sol\":4377:4386  _ipfsHash */\n      dup6\n      dup6\n        /* \"contracts/MedicalData.sol\":4105:4398  Prescription({... */\n      dup1\n      dup1\n      0x1f\n      add\n      0x20\n      dup1\n      swap2\n      div\n      mul\n      0x20\n      add\n      mload(0x40)\n      swap1\n      dup2\n      add\n      0x40\n      mstore\n      dup1\n      swap4\n      swap3\n      swap2\n      swap1\n      dup2\n      dup2\n      mstore\n      0x20\n      add\n      dup4\n      dup4\n      dup1\n      dup3\n      dup5\n      calldatacopy\n      0x00\n      dup2\n      dup5\n      add\n      mstore\n      not(0x1f)\n      0x1f\n      dup3\n      add\n      and\n      swap1\n      pop\n      dup1\n      dup4\n      add\n      swap3\n      pop\n      pop\n      pop\n      pop\n      pop\n      pop\n      pop\n      dup2\n      mstore\n      pop\n        /* \"contracts/MedicalData.sol\":4085:4098  prescriptions */\n      0x04\n        /* \"contracts/MedicalData.sol\":4085:4102  prescriptions[id] */\n      0x00\n        /* \"contracts/MedicalData.sol\":4099:4101  id */\n      dup4\n        /* \"contracts/MedicalData.sol\":4085:4102  prescriptions[id] */\n      dup2\n      mstore\n      0x20\n      add\n      swap1\n      dup2\n      mstore\n      0x20\n      add\n      0x00\n      keccak256\n        /* \"contracts/MedicalData.sol\":4085:4398  prescriptions[id] = Prescription({... */\n      0x00\n      dup3\n      add\n      mload\n      dup2\n      0x00\n      add\n      sstore\n      0x20\n      dup3\n      add\n      mload\n      dup2\n      0x01\n      add\n      exp(0x0100, 0x00)\n      dup2\n      sload\n      dup2\n      0xffffffffffffffffffffffffffffffffffffffff\n      mul\n      not\n      and\n      swap1\n      dup4\n      0xffffffffffffffffffffffffffffffffffffffff\n      and\n      mul\n      or\n      swap1\n      sstore\n      pop\n      0x40\n      dup3\n      add\n      mload\n      dup2\n      0x02\n      add\n      exp(0x0100, 0x00)\n      dup2\n      sload\n      dup2\n      0xffffffffffffffffffffffffffffffffffffffff\n      mul\n      not\n      and\n      swap1\n      dup4\n      0xffffffffffffffffffffffffffffffffffffffff\n      and\n      mul\n      or\n      swap1\n      sstore\n      pop\n      0x60\n      dup3\n      add\n      mload\n      dup2\n      0x03\n      add\n      swap1\n      dup2\n      tag_140\n      swap2\n      swap1\n      tag_141\n      jump\t// in\n    tag_140:\n      pop\n      0x80\n      dup3\n      add\n      mload\n      dup2\n      0x04\n      add\n      swap1\n      dup2\n      tag_142\n      swap2\n      swap1\n      tag_141\n      jump\t// in\n    tag_142:\n      pop\n      0xa0\n      dup3\n      add\n      mload\n      dup2\n      0x05\n      add\n      swap1\n      dup2\n      tag_143\n      swap2\n      swap1\n      tag_141\n      jump\t// in\n    tag_143:\n      pop\n      0xc0\n      dup3\n      add\n      mload\n      dup2\n      0x06\n      add\n      sstore\n      0xe0\n      dup3\n      add\n      mload\n      dup2\n      0x07\n      add\n      swap1\n      dup2\n      tag_144\n      swap2\n      swap1\n      tag_141\n      jump\t// in\n    tag_144:\n      pop\n      swap1\n      pop\n      pop\n        /* \"contracts/MedicalData.sol\":4411:4433  patientPrescriptionIds */\n      0x05\n        /* \"contracts/MedicalData.sol\":4411:4443  patientPrescriptionIds[_patient] */\n      0x00\n        /* \"contracts/MedicalData.sol\":4434:4442  _patient */\n      dup13\n        /* \"contracts/MedicalData.sol\":4411:4443  patientPrescriptionIds[_patient] */\n      0xffffffffffffffffffffffffffffffffffffffff\n      and\n      0xffffffffffffffffffffffffffffffffffffffff\n      and\n      dup2\n      mstore\n      0x20\n      add\n      swap1\n      dup2\n      mstore\n      0x20\n      add\n      0x00\n      keccak256\n        /* \"contracts/MedicalData.sol\":4449:4451  id */\n      dup2\n        /* \"contracts/MedicalData.sol\":4411:4452  patientPrescriptionIds[_patient].push(id) */\n      swap1\n      dup1\n      0x01\n      dup2\n      sload\n      add\n      dup1\n      dup3\n      sstore\n      dup1\n      swap2\n      pop\n      pop\n      0x01\n      swap1\n      sub\n      swap1\n      0x00\n      mstore\n      keccak256(0x00, 0x20)\n      add\n      0x00\n      swap1\n      swap2\n      swap1\n      swap2\n      swap1\n      swap2\n      pop\n      sstore\n        /* \"contracts/MedicalData.sol\":4504:4511  _doctor */\n      dup12\n        /* \"contracts/MedicalData.sol\":4470:4529  PrescriptionCreated(id, _patient, _doctor, _medicationName) */\n      0xffffffffffffffffffffffffffffffffffffffff\n      and\n        /* \"contracts/MedicalData.sol\":4494:4502  _patient */\n      dup12\n        /* \"contracts/MedicalData.sol\":4470:4529  PrescriptionCreated(id, _patient, _doctor, _medicationName) */\n      0xffffffffffffffffffffffffffffffffffffffff\n      and\n        /* \"contracts/MedicalData.sol\":4490:4492  id */\n      dup3\n        /* \"contracts/MedicalData.sol\":4470:4529  PrescriptionCreated(id, _patient, _doctor, _medicationName) */\n      0x435273682f19c830bb3fd3d1ed1aefb672214b65429f7d507afa24c6f9f18ad5\n        /* \"contracts/MedicalData.sol\":4513:4528  _medicationName */\n      dup14\n      dup14\n        /* \"contracts/MedicalData.sol\":4470:4529  PrescriptionCreated(id, _patient, _doctor, _medicationName) */\n      mload(0x40)\n      tag_146\n      swap3\n      swap2\n      swap1\n      tag_147\n      jump\t// in\n    tag_146:\n      mload(0x40)\n      dup1\n      swap2\n      sub\n      swap1\n      log4\n        /* \"contracts/MedicalData.sol\":3827:4537  {... */\n      pop\n        /* \"contracts/MedicalData.sol\":1924:1925  _ */\n      pop\n        /* \"contracts/MedicalData.sol\":3504:4537  function addPrescriptionByRelayer(... */\n      pop\n      pop\n      pop\n      pop\n      pop\n      pop\n      pop\n      pop\n      pop\n      pop\n      jump\t// out\n        /* \"contracts/MedicalData.sol\":1017:1090  mapping(address => mapping(address => bool)) public patientToDoctorAccess */\n    tag_57:\n      mstore(0x20, 0x06)\n      dup2\n      0x00\n      mstore\n      mstore(0x20, keccak256(0x00, 0x40))\n      dup1\n      0x00\n      mstore\n      keccak256(0x00, 0x40)\n      0x00\n      swap2\n      pop\n      swap2\n      pop\n      swap1\n      sload\n      swap1\n      0x0100\n      exp\n      swap1\n      div\n      0xff\n      and\n      dup2\n      jump\t// out\n        /* \"contracts/MedicalData.sol\":91:111  address public admin */\n    tag_60:\n      0x00\n      0x00\n      swap1\n      sload\n      swap1\n      0x0100\n      exp\n      swap1\n      div\n      0xffffffffffffffffffffffffffffffffffffffff\n      and\n      dup2\n      jump\t// out\n        /* \"#utility.yul\":88:205   */\n    tag_149:\n        /* \"#utility.yul\":197:198   */\n      0x00\n        /* \"#utility.yul\":194:195   */\n      0x00\n        /* \"#utility.yul\":187:199   */\n      revert\n        /* \"#utility.yul\":211:328   */\n    tag_150:\n        /* \"#utility.yul\":320:321   */\n      0x00\n        /* \"#utility.yul\":317:318   */\n      0x00\n        /* \"#utility.yul\":310:322   */\n      revert\n        /* \"#utility.yul\":334:460   */\n    tag_151:\n        /* \"#utility.yul\":371:378   */\n      0x00\n        /* \"#utility.yul\":411:453   */\n      0xffffffffffffffffffffffffffffffffffffffff\n        /* \"#utility.yul\":404:409   */\n      dup3\n        /* \"#utility.yul\":400:454   */\n      and\n        /* \"#utility.yul\":389:454   */\n      swap1\n      pop\n        /* \"#utility.yul\":334:460   */\n      swap2\n      swap1\n      pop\n      jump\t// out\n        /* \"#utility.yul\":466:562   */\n    tag_152:\n        /* \"#utility.yul\":503:510   */\n      0x00\n        /* \"#utility.yul\":532:556   */\n      tag_222\n        /* \"#utility.yul\":550:555   */\n      dup3\n        /* \"#utility.yul\":532:556   */\n      tag_151\n      jump\t// in\n    tag_222:\n        /* \"#utility.yul\":521:556   */\n      swap1\n      pop\n        /* \"#utility.yul\":466:562   */\n      swap2\n      swap1\n      pop\n      jump\t// out\n        /* \"#utility.yul\":568:690   */\n    tag_153:\n        /* \"#utility.yul\":641:665   */\n      tag_224\n        /* \"#utility.yul\":659:664   */\n      dup2\n        /* \"#utility.yul\":641:665   */\n      tag_152\n      jump\t// in\n    tag_224:\n        /* \"#utility.yul\":634:639   */\n      dup2\n        /* \"#utility.yul\":631:666   */\n      eq\n        /* \"#utility.yul\":621:684   */\n      tag_225\n      jumpi\n        /* \"#utility.yul\":680:681   */\n      0x00\n        /* \"#utility.yul\":677:678   */\n      0x00\n        /* \"#utility.yul\":670:682   */\n      revert\n        /* \"#utility.yul\":621:684   */\n    tag_225:\n        /* \"#utility.yul\":568:690   */\n      pop\n      jump\t// out\n        /* \"#utility.yul\":696:835   */\n    tag_154:\n        /* \"#utility.yul\":742:747   */\n      0x00\n        /* \"#utility.yul\":780:786   */\n      dup2\n        /* \"#utility.yul\":767:787   */\n      calldataload\n        /* \"#utility.yul\":758:787   */\n      swap1\n      pop\n        /* \"#utility.yul\":796:829   */\n      tag_227\n        /* \"#utility.yul\":823:828   */\n      dup2\n        /* \"#utility.yul\":796:829   */\n      tag_153\n      jump\t// in\n    tag_227:\n        /* \"#utility.yul\":696:835   */\n      swap3\n      swap2\n      pop\n      pop\n      jump\t// out\n        /* \"#utility.yul\":841:931   */\n    tag_155:\n        /* \"#utility.yul\":875:882   */\n      0x00\n        /* \"#utility.yul\":918:923   */\n      dup2\n        /* \"#utility.yul\":911:924   */\n      iszero\n        /* \"#utility.yul\":904:925   */\n      iszero\n        /* \"#utility.yul\":893:925   */\n      swap1\n      pop\n        /* \"#utility.yul\":841:931   */\n      swap2\n      swap1\n      pop\n      jump\t// out\n        /* \"#utility.yul\":937:1053   */\n    tag_156:\n        /* \"#utility.yul\":1007:1028   */\n      tag_230\n        /* \"#utility.yul\":1022:1027   */\n      dup2\n        /* \"#utility.yul\":1007:1028   */\n      tag_155\n      jump\t// in\n    tag_230:\n        /* \"#utility.yul\":1000:1005   */\n      dup2\n        /* \"#utility.yul\":997:1029   */\n      eq\n        /* \"#utility.yul\":987:1047   */\n      tag_231\n      jumpi\n        /* \"#utility.yul\":1043:1044   */\n      0x00\n        /* \"#utility.yul\":1040:1041   */\n      0x00\n        /* \"#utility.yul\":1033:1045   */\n      revert\n        /* \"#utility.yul\":987:1047   */\n    tag_231:\n        /* \"#utility.yul\":937:1053   */\n      pop\n      jump\t// out\n        /* \"#utility.yul\":1059:1192   */\n    tag_157:\n        /* \"#utility.yul\":1102:1107   */\n      0x00\n        /* \"#utility.yul\":1140:1146   */\n      dup2\n        /* \"#utility.yul\":1127:1147   */\n      calldataload\n        /* \"#utility.yul\":1118:1147   */\n      swap1\n      pop\n        /* \"#utility.yul\":1156:1186   */\n      tag_233\n        /* \"#utility.yul\":1180:1185   */\n      dup2\n        /* \"#utility.yul\":1156:1186   */\n      tag_156\n      jump\t// in\n    tag_233:\n        /* \"#utility.yul\":1059:1192   */\n      swap3\n      swap2\n      pop\n      pop\n      jump\t// out\n        /* \"#utility.yul\":1198:1811   */\n    tag_17:\n        /* \"#utility.yul\":1272:1278   */\n      0x00\n        /* \"#utility.yul\":1280:1286   */\n      0x00\n        /* \"#utility.yul\":1288:1294   */\n      0x00\n        /* \"#utility.yul\":1337:1339   */\n      0x60\n        /* \"#utility.yul\":1325:1334   */\n      dup5\n        /* \"#utility.yul\":1316:1323   */\n      dup7\n        /* \"#utility.yul\":1312:1335   */\n      sub\n        /* \"#utility.yul\":1308:1340   */\n      slt\n        /* \"#utility.yul\":1305:1424   */\n      iszero\n      tag_235\n      jumpi\n        /* \"#utility.yul\":1343:1422   */\n      tag_236\n      tag_149\n      jump\t// in\n    tag_236:\n        /* \"#utility.yul\":1305:1424   */\n    tag_235:\n        /* \"#utility.yul\":1463:1464   */\n      0x00\n        /* \"#utility.yul\":1488:1541   */\n      tag_237\n        /* \"#utility.yul\":1533:1540   */\n      dup7\n        /* \"#utility.yul\":1524:1530   */\n      dup3\n        /* \"#utility.yul\":1513:1522   */\n      dup8\n        /* \"#utility.yul\":1509:1531   */\n      add\n        /* \"#utility.yul\":1488:1541   */\n      tag_154\n      jump\t// in\n    tag_237:\n        /* \"#utility.yul\":1478:1541   */\n      swap4\n      pop\n        /* \"#utility.yul\":1434:1551   */\n      pop\n        /* \"#utility.yul\":1590:1592   */\n      0x20\n        /* \"#utility.yul\":1616:1669   */\n      tag_238\n        /* \"#utility.yul\":1661:1668   */\n      dup7\n        /* \"#utility.yul\":1652:1658   */\n      dup3\n        /* \"#utility.yul\":1641:1650   */\n      dup8\n        /* \"#utility.yul\":1637:1659   */\n      add\n        /* \"#utility.yul\":1616:1669   */\n      tag_154\n      jump\t// in\n    tag_238:\n        /* \"#utility.yul\":1606:1669   */\n      swap3\n      pop\n        /* \"#utility.yul\":1561:1679   */\n      pop\n        /* \"#utility.yul\":1718:1720   */\n      0x40\n        /* \"#utility.yul\":1744:1794   */\n      tag_239\n        /* \"#utility.yul\":1786:1793   */\n      dup7\n        /* \"#utility.yul\":1777:1783   */\n      dup3\n        /* \"#utility.yul\":1766:1775   */\n      dup8\n        /* \"#utility.yul\":1762:1784   */\n      add\n        /* \"#utility.yul\":1744:1794   */\n      tag_157\n      jump\t// in\n    tag_239:\n        /* \"#utility.yul\":1734:1794   */\n      swap2\n      pop\n        /* \"#utility.yul\":1689:1804   */\n      pop\n        /* \"#utility.yul\":1198:1811   */\n      swap3\n      pop\n      swap3\n      pop\n      swap3\n      jump\t// out\n        /* \"#utility.yul\":1817:2146   */\n    tag_21:\n        /* \"#utility.yul\":1876:1882   */\n      0x00\n        /* \"#utility.yul\":1925:1927   */\n      0x20\n        /* \"#utility.yul\":1913:1922   */\n      dup3\n        /* \"#utility.yul\":1904:1911   */\n      dup5\n        /* \"#utility.yul\":1900:1923   */\n      sub\n        /* \"#utility.yul\":1896:1928   */\n      slt\n        /* \"#utility.yul\":1893:2012   */\n      iszero\n      tag_241\n      jumpi\n        /* \"#utility.yul\":1931:2010   */\n      tag_242\n      tag_149\n      jump\t// in\n    tag_242:\n        /* \"#utility.yul\":1893:2012   */\n    tag_241:\n        /* \"#utility.yul\":2051:2052   */\n      0x00\n        /* \"#utility.yul\":2076:2129   */\n      tag_243\n        /* \"#utility.yul\":2121:2128   */\n      dup5\n        /* \"#utility.yul\":2112:2118   */\n      dup3\n        /* \"#utility.yul\":2101:2110   */\n      dup6\n        /* \"#utility.yul\":2097:2119   */\n      add\n        /* \"#utility.yul\":2076:2129   */\n      tag_154\n      jump\t// in\n    tag_243:\n        /* \"#utility.yul\":2066:2129   */\n      swap2\n      pop\n        /* \"#utility.yul\":2022:2139   */\n      pop\n        /* \"#utility.yul\":1817:2146   */\n      swap3\n      swap2\n      pop\n      pop\n      jump\t// out\n        /* \"#utility.yul\":2152:2266   */\n    tag_158:\n        /* \"#utility.yul\":2219:2225   */\n      0x00\n        /* \"#utility.yul\":2253:2258   */\n      dup2\n        /* \"#utility.yul\":2247:2259   */\n      mload\n        /* \"#utility.yul\":2237:2259   */\n      swap1\n      pop\n        /* \"#utility.yul\":2152:2266   */\n      swap2\n      swap1\n      pop\n      jump\t// out\n        /* \"#utility.yul\":2272:2456   */\n    tag_159:\n        /* \"#utility.yul\":2371:2382   */\n      0x00\n        /* \"#utility.yul\":2405:2411   */\n      dup3\n        /* \"#utility.yul\":2400:2403   */\n      dup3\n        /* \"#utility.yul\":2393:2412   */\n      mstore\n        /* \"#utility.yul\":2445:2449   */\n      0x20\n        /* \"#utility.yul\":2440:2443   */\n      dup3\n        /* \"#utility.yul\":2436:2450   */\n      add\n        /* \"#utility.yul\":2421:2450   */\n      swap1\n      pop\n        /* \"#utility.yul\":2272:2456   */\n      swap3\n      swap2\n      pop\n      pop\n      jump\t// out\n        /* \"#utility.yul\":2462:2594   */\n    tag_160:\n        /* \"#utility.yul\":2529:2533   */\n      0x00\n        /* \"#utility.yul\":2552:2555   */\n      dup2\n        /* \"#utility.yul\":2544:2555   */\n      swap1\n      pop\n        /* \"#utility.yul\":2582:2586   */\n      0x20\n        /* \"#utility.yul\":2577:2580   */\n      dup3\n        /* \"#utility.yul\":2573:2587   */\n      add\n        /* \"#utility.yul\":2565:2587   */\n      swap1\n      pop\n        /* \"#utility.yul\":2462:2594   */\n      swap2\n      swap1\n      pop\n      jump\t// out\n        /* \"#utility.yul\":2600:2677   */\n    tag_161:\n        /* \"#utility.yul\":2637:2644   */\n      0x00\n        /* \"#utility.yul\":2666:2671   */\n      dup2\n        /* \"#utility.yul\":2655:2671   */\n      swap1\n      pop\n        /* \"#utility.yul\":2600:2677   */\n      swap2\n      swap1\n      pop\n      jump\t// out\n        /* \"#utility.yul\":2683:2791   */\n    tag_162:\n        /* \"#utility.yul\":2760:2784   */\n      tag_249\n        /* \"#utility.yul\":2778:2783   */\n      dup2\n        /* \"#utility.yul\":2760:2784   */\n      tag_161\n      jump\t// in\n    tag_249:\n        /* \"#utility.yul\":2755:2758   */\n      dup3\n        /* \"#utility.yul\":2748:2785   */\n      mstore\n        /* \"#utility.yul\":2683:2791   */\n      pop\n      pop\n      jump\t// out\n        /* \"#utility.yul\":2797:2976   */\n    tag_163:\n        /* \"#utility.yul\":2866:2876   */\n      0x00\n        /* \"#utility.yul\":2887:2933   */\n      tag_251\n        /* \"#utility.yul\":2929:2932   */\n      dup4\n        /* \"#utility.yul\":2921:2927   */\n      dup4\n        /* \"#utility.yul\":2887:2933   */\n      tag_162\n      jump\t// in\n    tag_251:\n        /* \"#utility.yul\":2965:2969   */\n      0x20\n        /* \"#utility.yul\":2960:2963   */\n      dup4\n        /* \"#utility.yul\":2956:2970   */\n      add\n        /* \"#utility.yul\":2942:2970   */\n      swap1\n      pop\n        /* \"#utility.yul\":2797:2976   */\n      swap3\n      swap2\n      pop\n      pop\n      jump\t// out\n        /* \"#utility.yul\":2982:3095   */\n    tag_164:\n        /* \"#utility.yul\":3052:3056   */\n      0x00\n        /* \"#utility.yul\":3084:3088   */\n      0x20\n        /* \"#utility.yul\":3079:3082   */\n      dup3\n        /* \"#utility.yul\":3075:3089   */\n      add\n        /* \"#utility.yul\":3067:3089   */\n      swap1\n      pop\n        /* \"#utility.yul\":2982:3095   */\n      swap2\n      swap1\n      pop\n      jump\t// out\n        /* \"#utility.yul\":3131:3863   */\n    tag_165:\n        /* \"#utility.yul\":3250:3253   */\n      0x00\n        /* \"#utility.yul\":3279:3333   */\n      tag_254\n        /* \"#utility.yul\":3327:3332   */\n      dup3\n        /* \"#utility.yul\":3279:3333   */\n      tag_158\n      jump\t// in\n    tag_254:\n        /* \"#utility.yul\":3349:3435   */\n      tag_255\n        /* \"#utility.yul\":3428:3434   */\n      dup2\n        /* \"#utility.yul\":3423:3426   */\n      dup6\n        /* \"#utility.yul\":3349:3435   */\n      tag_159\n      jump\t// in\n    tag_255:\n        /* \"#utility.yul\":3342:3435   */\n      swap4\n      pop\n        /* \"#utility.yul\":3459:3515   */\n      tag_256\n        /* \"#utility.yul\":3509:3514   */\n      dup4\n        /* \"#utility.yul\":3459:3515   */\n      tag_160\n      jump\t// in\n    tag_256:\n        /* \"#utility.yul\":3538:3545   */\n      dup1\n        /* \"#utility.yul\":3569:3570   */\n      0x00\n        /* \"#utility.yul\":3554:3838   */\n    tag_257:\n        /* \"#utility.yul\":3579:3585   */\n      dup4\n        /* \"#utility.yul\":3576:3577   */\n      dup2\n        /* \"#utility.yul\":3573:3586   */\n      lt\n        /* \"#utility.yul\":3554:3838   */\n      iszero\n      tag_259\n      jumpi\n        /* \"#utility.yul\":3655:3661   */\n      dup2\n        /* \"#utility.yul\":3649:3662   */\n      mload\n        /* \"#utility.yul\":3682:3745   */\n      tag_260\n        /* \"#utility.yul\":3741:3744   */\n      dup9\n        /* \"#utility.yul\":3726:3739   */\n      dup3\n        /* \"#utility.yul\":3682:3745   */\n      tag_163\n      jump\t// in\n    tag_260:\n        /* \"#utility.yul\":3675:3745   */\n      swap8\n      pop\n        /* \"#utility.yul\":3768:3828   */\n      tag_261\n        /* \"#utility.yul\":3821:3827   */\n      dup4\n        /* \"#utility.yul\":3768:3828   */\n      tag_164\n      jump\t// in\n    tag_261:\n        /* \"#utility.yul\":3758:3828   */\n      swap3\n      pop\n        /* \"#utility.yul\":3614:3838   */\n      pop\n        /* \"#utility.yul\":3601:3602   */\n      0x01\n        /* \"#utility.yul\":3598:3599   */\n      dup2\n        /* \"#utility.yul\":3594:3603   */\n      add\n        /* \"#utility.yul\":3589:3603   */\n      swap1\n      pop\n        /* \"#utility.yul\":3554:3838   */\n      jump(tag_257)\n    tag_259:\n        /* \"#utility.yul\":3558:3572   */\n      pop\n        /* \"#utility.yul\":3854:3857   */\n      dup6\n        /* \"#utility.yul\":3847:3857   */\n      swap4\n      pop\n        /* \"#utility.yul\":3255:3863   */\n      pop\n      pop\n      pop\n        /* \"#utility.yul\":3131:3863   */\n      swap3\n      swap2\n      pop\n      pop\n      jump\t// out\n        /* \"#utility.yul\":3869:4242   */\n    tag_27:\n        /* \"#utility.yul\":4012:4016   */\n      0x00\n        /* \"#utility.yul\":4050:4052   */\n      0x20\n        /* \"#utility.yul\":4039:4048   */\n      dup3\n        /* \"#utility.yul\":4035:4053   */\n      add\n        /* \"#utility.yul\":4027:4053   */\n      swap1\n      pop\n        /* \"#utility.yul\":4099:4108   */\n      dup2\n        /* \"#utility.yul\":4093:4097   */\n      dup2\n        /* \"#utility.yul\":4089:4109   */\n      sub\n        /* \"#utility.yul\":4085:4086   */\n      0x00\n        /* \"#utility.yul\":4074:4083   */\n      dup4\n        /* \"#utility.yul\":4070:4087   */\n      add\n        /* \"#utility.yul\":4063:4110   */\n      mstore\n        /* \"#utility.yul\":4127:4235   */\n      tag_263\n        /* \"#utility.yul\":4230:4234   */\n      dup2\n        /* \"#utility.yul\":4221:4227   */\n      dup5\n        /* \"#utility.yul\":4127:4235   */\n      tag_165\n      jump\t// in\n    tag_263:\n        /* \"#utility.yul\":4119:4235   */\n      swap1\n      pop\n        /* \"#utility.yul\":3869:4242   */\n      swap3\n      swap2\n      pop\n      pop\n      jump\t// out\n        /* \"#utility.yul\":4248:4370   */\n    tag_166:\n        /* \"#utility.yul\":4321:4345   */\n      tag_265\n        /* \"#utility.yul\":4339:4344   */\n      dup2\n        /* \"#utility.yul\":4321:4345   */\n      tag_161\n      jump\t// in\n    tag_265:\n        /* \"#utility.yul\":4314:4319   */\n      dup2\n        /* \"#utility.yul\":4311:4346   */\n      eq\n        /* \"#utility.yul\":4301:4364   */\n      tag_266\n      jumpi\n        /* \"#utility.yul\":4360:4361   */\n      0x00\n        /* \"#utility.yul\":4357:4358   */\n      0x00\n        /* \"#utility.yul\":4350:4362   */\n      revert\n        /* \"#utility.yul\":4301:4364   */\n    tag_266:\n        /* \"#utility.yul\":4248:4370   */\n      pop\n      jump\t// out\n        /* \"#utility.yul\":4376:4515   */\n    tag_167:\n        /* \"#utility.yul\":4422:4427   */\n      0x00\n        /* \"#utility.yul\":4460:4466   */\n      dup2\n        /* \"#utility.yul\":4447:4467   */\n      calldataload\n        /* \"#utility.yul\":4438:4467   */\n      swap1\n      pop\n        /* \"#utility.yul\":4476:4509   */\n      tag_268\n        /* \"#utility.yul\":4503:4508   */\n      dup2\n        /* \"#utility.yul\":4476:4509   */\n      tag_166\n      jump\t// in\n    tag_268:\n        /* \"#utility.yul\":4376:4515   */\n      swap3\n      swap2\n      pop\n      pop\n      jump\t// out\n        /* \"#utility.yul\":4521:4850   */\n    tag_33:\n        /* \"#utility.yul\":4580:4586   */\n      0x00\n        /* \"#utility.yul\":4629:4631   */\n      0x20\n        /* \"#utility.yul\":4617:4626   */\n      dup3\n        /* \"#utility.yul\":4608:4615   */\n      dup5\n        /* \"#utility.yul\":4604:4627   */\n      sub\n        /* \"#utility.yul\":4600:4632   */\n      slt\n        /* \"#utility.yul\":4597:4716   */\n      iszero\n      tag_270\n      jumpi\n        /* \"#utility.yul\":4635:4714   */\n      tag_271\n      tag_149\n      jump\t// in\n    tag_271:\n        /* \"#utility.yul\":4597:4716   */\n    tag_270:\n        /* \"#utility.yul\":4755:4756   */\n      0x00\n        /* \"#utility.yul\":4780:4833   */\n      tag_272\n        /* \"#utility.yul\":4825:4832   */\n      dup5\n        /* \"#utility.yul\":4816:4822   */\n      dup3\n        /* \"#utility.yul\":4805:4814   */\n      dup6\n        /* \"#utility.yul\":4801:4823   */\n      add\n        /* \"#utility.yul\":4780:4833   */\n      tag_167\n      jump\t// in\n    tag_272:\n        /* \"#utility.yul\":4770:4833   */\n      swap2\n      pop\n        /* \"#utility.yul\":4726:4843   */\n      pop\n        /* \"#utility.yul\":4521:4850   */\n      swap3\n      swap2\n      pop\n      pop\n      jump\t// out\n        /* \"#utility.yul\":4856:4974   */\n    tag_168:\n        /* \"#utility.yul\":4943:4967   */\n      tag_274\n        /* \"#utility.yul\":4961:4966   */\n      dup2\n        /* \"#utility.yul\":4943:4967   */\n      tag_161\n      jump\t// in\n    tag_274:\n        /* \"#utility.yul\":4938:4941   */\n      dup3\n        /* \"#utility.yul\":4931:4968   */\n      mstore\n        /* \"#utility.yul\":4856:4974   */\n      pop\n      pop\n      jump\t// out\n        /* \"#utility.yul\":4980:5098   */\n    tag_169:\n        /* \"#utility.yul\":5067:5091   */\n      tag_276\n        /* \"#utility.yul\":5085:5090   */\n      dup2\n        /* \"#utility.yul\":5067:5091   */\n      tag_152\n      jump\t// in\n    tag_276:\n        /* \"#utility.yul\":5062:5065   */\n      dup3\n        /* \"#utility.yul\":5055:5092   */\n      mstore\n        /* \"#utility.yul\":4980:5098   */\n      pop\n      pop\n      jump\t// out\n        /* \"#utility.yul\":5104:5203   */\n    tag_170:\n        /* \"#utility.yul\":5156:5162   */\n      0x00\n        /* \"#utility.yul\":5190:5195   */\n      dup2\n        /* \"#utility.yul\":5184:5196   */\n      mload\n        /* \"#utility.yul\":5174:5196   */\n      swap1\n      pop\n        /* \"#utility.yul\":5104:5203   */\n      swap2\n      swap1\n      pop\n      jump\t// out\n        /* \"#utility.yul\":5209:5378   */\n    tag_171:\n        /* \"#utility.yul\":5293:5304   */\n      0x00\n        /* \"#utility.yul\":5327:5333   */\n      dup3\n        /* \"#utility.yul\":5322:5325   */\n      dup3\n        /* \"#utility.yul\":5315:5334   */\n      mstore\n        /* \"#utility.yul\":5367:5371   */\n      0x20\n        /* \"#utility.yul\":5362:5365   */\n      dup3\n        /* \"#utility.yul\":5358:5372   */\n      add\n        /* \"#utility.yul\":5343:5372   */\n      swap1\n      pop\n        /* \"#utility.yul\":5209:5378   */\n      swap3\n      swap2\n      pop\n      pop\n      jump\t// out\n        /* \"#utility.yul\":5384:5523   */\n    tag_172:\n        /* \"#utility.yul\":5473:5479   */\n      dup3\n        /* \"#utility.yul\":5468:5471   */\n      dup2\n        /* \"#utility.yul\":5463:5466   */\n      dup4\n        /* \"#utility.yul\":5457:5480   */\n      mcopy\n        /* \"#utility.yul\":5514:5515   */\n      0x00\n        /* \"#utility.yul\":5505:5511   */\n      dup4\n        /* \"#utility.yul\":5500:5503   */\n      dup4\n        /* \"#utility.yul\":5496:5512   */\n      add\n        /* \"#utility.yul\":5489:5516   */\n      mstore\n        /* \"#utility.yul\":5384:5523   */\n      pop\n      pop\n      pop\n      jump\t// out\n        /* \"#utility.yul\":5529:5631   */\n    tag_173:\n        /* \"#utility.yul\":5570:5576   */\n      0x00\n        /* \"#utility.yul\":5621:5623   */\n      0x1f\n        /* \"#utility.yul\":5617:5624   */\n      not\n        /* \"#utility.yul\":5612:5614   */\n      0x1f\n        /* \"#utility.yul\":5605:5610   */\n      dup4\n        /* \"#utility.yul\":5601:5615   */\n      add\n        /* \"#utility.yul\":5597:5625   */\n      and\n        /* \"#utility.yul\":5587:5625   */\n      swap1\n      pop\n        /* \"#utility.yul\":5529:5631   */\n      swap2\n      swap1\n      pop\n      jump\t// out\n        /* \"#utility.yul\":5637:6014   */\n    tag_174:\n        /* \"#utility.yul\":5725:5728   */\n      0x00\n        /* \"#utility.yul\":5753:5792   */\n      tag_282\n        /* \"#utility.yul\":5786:5791   */\n      dup3\n        /* \"#utility.yul\":5753:5792   */\n      tag_170\n      jump\t// in\n    tag_282:\n        /* \"#utility.yul\":5808:5879   */\n      tag_283\n        /* \"#utility.yul\":5872:5878   */\n      dup2\n        /* \"#utility.yul\":5867:5870   */\n      dup6\n        /* \"#utility.yul\":5808:5879   */\n      tag_171\n      jump\t// in\n    tag_283:\n        /* \"#utility.yul\":5801:5879   */\n      swap4\n      pop\n        /* \"#utility.yul\":5888:5953   */\n      tag_284\n        /* \"#utility.yul\":5946:5952   */\n      dup2\n        /* \"#utility.yul\":5941:5944   */\n      dup6\n        /* \"#utility.yul\":5934:5938   */\n      0x20\n        /* \"#utility.yul\":5927:5932   */\n      dup7\n        /* \"#utility.yul\":5923:5939   */\n      add\n        /* \"#utility.yul\":5888:5953   */\n      tag_172\n      jump\t// in\n    tag_284:\n        /* \"#utility.yul\":5978:6007   */\n      tag_285\n        /* \"#utility.yul\":6000:6006   */\n      dup2\n        /* \"#utility.yul\":5978:6007   */\n      tag_173\n      jump\t// in\n    tag_285:\n        /* \"#utility.yul\":5973:5976   */\n      dup5\n        /* \"#utility.yul\":5969:6008   */\n      add\n        /* \"#utility.yul\":5962:6008   */\n      swap2\n      pop\n        /* \"#utility.yul\":5729:6014   */\n      pop\n        /* \"#utility.yul\":5637:6014   */\n      swap3\n      swap2\n      pop\n      pop\n      jump\t// out\n        /* \"#utility.yul\":6020:7381   */\n    tag_36:\n        /* \"#utility.yul\":6389:6393   */\n      0x00\n        /* \"#utility.yul\":6427:6430   */\n      0x0100\n        /* \"#utility.yul\":6416:6425   */\n      dup3\n        /* \"#utility.yul\":6412:6431   */\n      add\n        /* \"#utility.yul\":6404:6431   */\n      swap1\n      pop\n        /* \"#utility.yul\":6441:6512   */\n      tag_287\n        /* \"#utility.yul\":6509:6510   */\n      0x00\n        /* \"#utility.yul\":6498:6507   */\n      dup4\n        /* \"#utility.yul\":6494:6511   */\n      add\n        /* \"#utility.yul\":6485:6491   */\n      dup12\n        /* \"#utility.yul\":6441:6512   */\n      tag_168\n      jump\t// in\n    tag_287:\n        /* \"#utility.yul\":6522:6594   */\n      tag_288\n        /* \"#utility.yul\":6590:6592   */\n      0x20\n        /* \"#utility.yul\":6579:6588   */\n      dup4\n        /* \"#utility.yul\":6575:6593   */\n      add\n        /* \"#utility.yul\":6566:6572   */\n      dup11\n        /* \"#utility.yul\":6522:6594   */\n      tag_169\n      jump\t// in\n    tag_288:\n        /* \"#utility.yul\":6604:6676   */\n      tag_289\n        /* \"#utility.yul\":6672:6674   */\n      0x40\n        /* \"#utility.yul\":6661:6670   */\n      dup4\n        /* \"#utility.yul\":6657:6675   */\n      add\n        /* \"#utility.yul\":6648:6654   */\n      dup10\n        /* \"#utility.yul\":6604:6676   */\n      tag_169\n      jump\t// in\n    tag_289:\n        /* \"#utility.yul\":6723:6732   */\n      dup2\n        /* \"#utility.yul\":6717:6721   */\n      dup2\n        /* \"#utility.yul\":6713:6733   */\n      sub\n        /* \"#utility.yul\":6708:6710   */\n      0x60\n        /* \"#utility.yul\":6697:6706   */\n      dup4\n        /* \"#utility.yul\":6693:6711   */\n      add\n        /* \"#utility.yul\":6686:6734   */\n      mstore\n        /* \"#utility.yul\":6751:6829   */\n      tag_290\n        /* \"#utility.yul\":6824:6828   */\n      dup2\n        /* \"#utility.yul\":6815:6821   */\n      dup9\n        /* \"#utility.yul\":6751:6829   */\n      tag_174\n      jump\t// in\n    tag_290:\n        /* \"#utility.yul\":6743:6829   */\n      swap1\n      pop\n        /* \"#utility.yul\":6877:6886   */\n      dup2\n        /* \"#utility.yul\":6871:6875   */\n      dup2\n        /* \"#utility.yul\":6867:6887   */\n      sub\n        /* \"#utility.yul\":6861:6864   */\n      0x80\n        /* \"#utility.yul\":6850:6859   */\n      dup4\n        /* \"#utility.yul\":6846:6865   */\n      add\n        /* \"#utility.yul\":6839:6888   */\n      mstore\n        /* \"#utility.yul\":6905:6983   */\n      tag_291\n        /* \"#utility.yul\":6978:6982   */\n      dup2\n        /* \"#utility.yul\":6969:6975   */\n      dup8\n        /* \"#utility.yul\":6905:6983   */\n      tag_174\n      jump\t// in\n    tag_291:\n        /* \"#utility.yul\":6897:6983   */\n      swap1\n      pop\n        /* \"#utility.yul\":7031:7040   */\n      dup2\n        /* \"#utility.yul\":7025:7029   */\n      dup2\n        /* \"#utility.yul\":7021:7041   */\n      sub\n        /* \"#utility.yul\":7015:7018   */\n      0xa0\n        /* \"#utility.yul\":7004:7013   */\n      dup4\n        /* \"#utility.yul\":7000:7019   */\n      add\n        /* \"#utility.yul\":6993:7042   */\n      mstore\n        /* \"#utility.yul\":7059:7137   */\n      tag_292\n        /* \"#utility.yul\":7132:7136   */\n      dup2\n        /* \"#utility.yul\":7123:7129   */\n      dup7\n        /* \"#utility.yul\":7059:7137   */\n      tag_174\n      jump\t// in\n    tag_292:\n        /* \"#utility.yul\":7051:7137   */\n      swap1\n      pop\n        /* \"#utility.yul\":7147:7220   */\n      tag_293\n        /* \"#utility.yul\":7215:7218   */\n      0xc0\n        /* \"#utility.yul\":7204:7213   */\n      dup4\n        /* \"#utility.yul\":7200:7219   */\n      add\n        /* \"#utility.yul\":7191:7197   */\n      dup6\n        /* \"#utility.yul\":7147:7220   */\n      tag_168\n      jump\t// in\n    tag_293:\n        /* \"#utility.yul\":7268:7277   */\n      dup2\n        /* \"#utility.yul\":7262:7266   */\n      dup2\n        /* \"#utility.yul\":7258:7278   */\n      sub\n        /* \"#utility.yul\":7252:7255   */\n      0xe0\n        /* \"#utility.yul\":7241:7250   */\n      dup4\n        /* \"#utility.yul\":7237:7256   */\n      add\n        /* \"#utility.yul\":7230:7279   */\n      mstore\n        /* \"#utility.yul\":7296:7374   */\n      tag_294\n        /* \"#utility.yul\":7369:7373   */\n      dup2\n        /* \"#utility.yul\":7360:7366   */\n      dup5\n        /* \"#utility.yul\":7296:7374   */\n      tag_174\n      jump\t// in\n    tag_294:\n        /* \"#utility.yul\":7288:7374   */\n      swap1\n      pop\n        /* \"#utility.yul\":6020:7381   */\n      swap10\n      swap9\n      pop\n      pop\n      pop\n      pop\n      pop\n      pop\n      pop\n      pop\n      pop\n      jump\t// out\n        /* \"#utility.yul\":7387:7609   */\n    tag_40:\n        /* \"#utility.yul\":7480:7484   */\n      0x00\n        /* \"#utility.yul\":7518:7520   */\n      0x20\n        /* \"#utility.yul\":7507:7516   */\n      dup3\n        /* \"#utility.yul\":7503:7521   */\n      add\n        /* \"#utility.yul\":7495:7521   */\n      swap1\n      pop\n        /* \"#utility.yul\":7531:7602   */\n      tag_296\n        /* \"#utility.yul\":7599:7600   */\n      0x00\n        /* \"#utility.yul\":7588:7597   */\n      dup4\n        /* \"#utility.yul\":7584:7601   */\n      add\n        /* \"#utility.yul\":7575:7581   */\n      dup5\n        /* \"#utility.yul\":7531:7602   */\n      tag_168\n      jump\t// in\n    tag_296:\n        /* \"#utility.yul\":7387:7609   */\n      swap3\n      swap2\n      pop\n      pop\n      jump\t// out\n        /* \"#utility.yul\":7615:7724   */\n    tag_175:\n        /* \"#utility.yul\":7696:7717   */\n      tag_298\n        /* \"#utility.yul\":7711:7716   */\n      dup2\n        /* \"#utility.yul\":7696:7717   */\n      tag_155\n      jump\t// in\n    tag_298:\n        /* \"#utility.yul\":7691:7694   */\n      dup3\n        /* \"#utility.yul\":7684:7718   */\n      mstore\n        /* \"#utility.yul\":7615:7724   */\n      pop\n      pop\n      jump\t// out\n        /* \"#utility.yul\":7730:7940   */\n    tag_45:\n        /* \"#utility.yul\":7817:7821   */\n      0x00\n        /* \"#utility.yul\":7855:7857   */\n      0x20\n        /* \"#utility.yul\":7844:7853   */\n      dup3\n        /* \"#utility.yul\":7840:7858   */\n      add\n        /* \"#utility.yul\":7832:7858   */\n      swap1\n      pop\n        /* \"#utility.yul\":7868:7933   */\n      tag_300\n        /* \"#utility.yul\":7930:7931   */\n      0x00\n        /* \"#utility.yul\":7919:7928   */\n      dup4\n        /* \"#utility.yul\":7915:7932   */\n      add\n        /* \"#utility.yul\":7906:7912   */\n      dup5\n        /* \"#utility.yul\":7868:7933   */\n      tag_175\n      jump\t// in\n    tag_300:\n        /* \"#utility.yul\":7730:7940   */\n      swap3\n      swap2\n      pop\n      pop\n      jump\t// out\n        /* \"#utility.yul\":7946:8063   */\n    tag_176:\n        /* \"#utility.yul\":8055:8056   */\n      0x00\n        /* \"#utility.yul\":8052:8053   */\n      0x00\n        /* \"#utility.yul\":8045:8057   */\n      revert\n        /* \"#utility.yul\":8069:8186   */\n    tag_177:\n        /* \"#utility.yul\":8178:8179   */\n      0x00\n        /* \"#utility.yul\":8175:8176   */\n      0x00\n        /* \"#utility.yul\":8168:8180   */\n      revert\n        /* \"#utility.yul\":8192:8309   */\n    tag_178:\n        /* \"#utility.yul\":8301:8302   */\n      0x00\n        /* \"#utility.yul\":8298:8299   */\n      0x00\n        /* \"#utility.yul\":8291:8303   */\n      revert\n        /* \"#utility.yul\":8329:8882   */\n    tag_179:\n        /* \"#utility.yul\":8387:8395   */\n      0x00\n        /* \"#utility.yul\":8397:8403   */\n      0x00\n        /* \"#utility.yul\":8447:8450   */\n      dup4\n        /* \"#utility.yul\":8440:8444   */\n      0x1f\n        /* \"#utility.yul\":8432:8438   */\n      dup5\n        /* \"#utility.yul\":8428:8445   */\n      add\n        /* \"#utility.yul\":8424:8451   */\n      slt\n        /* \"#utility.yul\":8414:8536   */\n      tag_305\n      jumpi\n        /* \"#utility.yul\":8455:8534   */\n      tag_306\n      tag_176\n      jump\t// in\n    tag_306:\n        /* \"#utility.yul\":8414:8536   */\n    tag_305:\n        /* \"#utility.yul\":8568:8574   */\n      dup3\n        /* \"#utility.yul\":8555:8575   */\n      calldataload\n        /* \"#utility.yul\":8545:8575   */\n      swap1\n      pop\n        /* \"#utility.yul\":8598:8616   */\n      0xffffffffffffffff\n        /* \"#utility.yul\":8590:8596   */\n      dup2\n        /* \"#utility.yul\":8587:8617   */\n      gt\n        /* \"#utility.yul\":8584:8701   */\n      iszero\n      tag_307\n      jumpi\n        /* \"#utility.yul\":8620:8699   */\n      tag_308\n      tag_177\n      jump\t// in\n    tag_308:\n        /* \"#utility.yul\":8584:8701   */\n    tag_307:\n        /* \"#utility.yul\":8734:8738   */\n      0x20\n        /* \"#utility.yul\":8726:8732   */\n      dup4\n        /* \"#utility.yul\":8722:8739   */\n      add\n        /* \"#utility.yul\":8710:8739   */\n      swap2\n      pop\n        /* \"#utility.yul\":8788:8791   */\n      dup4\n        /* \"#utility.yul\":8780:8784   */\n      0x01\n        /* \"#utility.yul\":8772:8778   */\n      dup3\n        /* \"#utility.yul\":8768:8785   */\n      mul\n        /* \"#utility.yul\":8758:8766   */\n      dup4\n        /* \"#utility.yul\":8754:8786   */\n      add\n        /* \"#utility.yul\":8751:8792   */\n      gt\n        /* \"#utility.yul\":8748:8876   */\n      iszero\n      tag_309\n      jumpi\n        /* \"#utility.yul\":8795:8874   */\n      tag_310\n      tag_178\n      jump\t// in\n    tag_310:\n        /* \"#utility.yul\":8748:8876   */\n    tag_309:\n        /* \"#utility.yul\":8329:8882   */\n      swap3\n      pop\n      swap3\n      swap1\n      pop\n      jump\t// out\n        /* \"#utility.yul\":8888:10745   */\n    tag_52:\n        /* \"#utility.yul\":9040:9046   */\n      0x00\n        /* \"#utility.yul\":9048:9054   */\n      0x00\n        /* \"#utility.yul\":9056:9062   */\n      0x00\n        /* \"#utility.yul\":9064:9070   */\n      0x00\n        /* \"#utility.yul\":9072:9078   */\n      0x00\n        /* \"#utility.yul\":9080:9086   */\n      0x00\n        /* \"#utility.yul\":9088:9094   */\n      0x00\n        /* \"#utility.yul\":9096:9102   */\n      0x00\n        /* \"#utility.yul\":9104:9110   */\n      0x00\n        /* \"#utility.yul\":9112:9118   */\n      0x00\n        /* \"#utility.yul\":9161:9164   */\n      0xc0\n        /* \"#utility.yul\":9149:9158   */\n      dup12\n        /* \"#utility.yul\":9140:9147   */\n      dup14\n        /* \"#utility.yul\":9136:9159   */\n      sub\n        /* \"#utility.yul\":9132:9165   */\n      slt\n        /* \"#utility.yul\":9129:9249   */\n      iszero\n      tag_312\n      jumpi\n        /* \"#utility.yul\":9168:9247   */\n      tag_313\n      tag_149\n      jump\t// in\n    tag_313:\n        /* \"#utility.yul\":9129:9249   */\n    tag_312:\n        /* \"#utility.yul\":9288:9289   */\n      0x00\n        /* \"#utility.yul\":9313:9366   */\n      tag_314\n        /* \"#utility.yul\":9358:9365   */\n      dup14\n        /* \"#utility.yul\":9349:9355   */\n      dup3\n        /* \"#utility.yul\":9338:9347   */\n      dup15\n        /* \"#utility.yul\":9334:9356   */\n      add\n        /* \"#utility.yul\":9313:9366   */\n      tag_154\n      jump\t// in\n    tag_314:\n        /* \"#utility.yul\":9303:9366   */\n      swap11\n      pop\n        /* \"#utility.yul\":9259:9376   */\n      pop\n        /* \"#utility.yul\":9415:9417   */\n      0x20\n        /* \"#utility.yul\":9441:9494   */\n      tag_315\n        /* \"#utility.yul\":9486:9493   */\n      dup14\n        /* \"#utility.yul\":9477:9483   */\n      dup3\n        /* \"#utility.yul\":9466:9475   */\n      dup15\n        /* \"#utility.yul\":9462:9484   */\n      add\n        /* \"#utility.yul\":9441:9494   */\n      tag_154\n      jump\t// in\n    tag_315:\n        /* \"#utility.yul\":9431:9494   */\n      swap10\n      pop\n        /* \"#utility.yul\":9386:9504   */\n      pop\n        /* \"#utility.yul\":9571:9573   */\n      0x40\n        /* \"#utility.yul\":9560:9569   */\n      dup12\n        /* \"#utility.yul\":9556:9574   */\n      add\n        /* \"#utility.yul\":9543:9575   */\n      calldataload\n        /* \"#utility.yul\":9602:9620   */\n      0xffffffffffffffff\n        /* \"#utility.yul\":9594:9600   */\n      dup2\n        /* \"#utility.yul\":9591:9621   */\n      gt\n        /* \"#utility.yul\":9588:9705   */\n      iszero\n      tag_316\n      jumpi\n        /* \"#utility.yul\":9624:9703   */\n      tag_317\n      tag_150\n      jump\t// in\n    tag_317:\n        /* \"#utility.yul\":9588:9705   */\n    tag_316:\n        /* \"#utility.yul\":9737:9802   */\n      tag_318\n        /* \"#utility.yul\":9794:9801   */\n      dup14\n        /* \"#utility.yul\":9785:9791   */\n      dup3\n        /* \"#utility.yul\":9774:9783   */\n      dup15\n        /* \"#utility.yul\":9770:9792   */\n      add\n        /* \"#utility.yul\":9737:9802   */\n      tag_179\n      jump\t// in\n    tag_318:\n        /* \"#utility.yul\":9719:9802   */\n      swap9\n      pop\n      swap9\n      pop\n        /* \"#utility.yul\":9514:9812   */\n      pop\n        /* \"#utility.yul\":9879:9881   */\n      0x60\n        /* \"#utility.yul\":9868:9877   */\n      dup12\n        /* \"#utility.yul\":9864:9882   */\n      add\n        /* \"#utility.yul\":9851:9883   */\n      calldataload\n        /* \"#utility.yul\":9910:9928   */\n      0xffffffffffffffff\n        /* \"#utility.yul\":9902:9908   */\n      dup2\n        /* \"#utility.yul\":9899:9929   */\n      gt\n        /* \"#utility.yul\":9896:10013   */\n      iszero\n      tag_319\n      jumpi\n        /* \"#utility.yul\":9932:10011   */\n      tag_320\n      tag_150\n      jump\t// in\n    tag_320:\n        /* \"#utility.yul\":9896:10013   */\n    tag_319:\n        /* \"#utility.yul\":10045:10110   */\n      tag_321\n        /* \"#utility.yul\":10102:10109   */\n      dup14\n        /* \"#utility.yul\":10093:10099   */\n      dup3\n        /* \"#utility.yul\":10082:10091   */\n      dup15\n        /* \"#utility.yul\":10078:10100   */\n      add\n        /* \"#utility.yul\":10045:10110   */\n      tag_179\n      jump\t// in\n    tag_321:\n        /* \"#utility.yul\":10027:10110   */\n      swap7\n      pop\n      swap7\n      pop\n        /* \"#utility.yul\":9822:10120   */\n      pop\n        /* \"#utility.yul\":10187:10190   */\n      0x80\n        /* \"#utility.yul\":10176:10185   */\n      dup12\n        /* \"#utility.yul\":10172:10191   */\n      add\n        /* \"#utility.yul\":10159:10192   */\n      calldataload\n        /* \"#utility.yul\":10219:10237   */\n      0xffffffffffffffff\n        /* \"#utility.yul\":10211:10217   */\n      dup2\n        /* \"#utility.yul\":10208:10238   */\n      gt\n        /* \"#utility.yul\":10205:10322   */\n      iszero\n      tag_322\n      jumpi\n        /* \"#utility.yul\":10241:10320   */\n      tag_323\n      tag_150\n      jump\t// in\n    tag_323:\n        /* \"#utility.yul\":10205:10322   */\n    tag_322:\n        /* \"#utility.yul\":10354:10419   */\n      tag_324\n        /* \"#utility.yul\":10411:10418   */\n      dup14\n        /* \"#utility.yul\":10402:10408   */\n      dup3\n        /* \"#utility.yul\":10391:10400   */\n      dup15\n        /* \"#utility.yul\":10387:10409   */\n      add\n        /* \"#utility.yul\":10354:10419   */\n      tag_179\n      jump\t// in\n    tag_324:\n        /* \"#utility.yul\":10336:10419   */\n      swap5\n      pop\n      swap5\n      pop\n        /* \"#utility.yul\":10130:10429   */\n      pop\n        /* \"#utility.yul\":10496:10499   */\n      0xa0\n        /* \"#utility.yul\":10485:10494   */\n      dup12\n        /* \"#utility.yul\":10481:10500   */\n      add\n        /* \"#utility.yul\":10468:10501   */\n      calldataload\n        /* \"#utility.yul\":10528:10546   */\n      0xffffffffffffffff\n        /* \"#utility.yul\":10520:10526   */\n      dup2\n        /* \"#utility.yul\":10517:10547   */\n      gt\n        /* \"#utility.yul\":10514:10631   */\n      iszero\n      tag_325\n      jumpi\n        /* \"#utility.yul\":10550:10629   */\n      tag_326\n      tag_150\n      jump\t// in\n    tag_326:\n        /* \"#utility.yul\":10514:10631   */\n    tag_325:\n        /* \"#utility.yul\":10663:10728   */\n      tag_327\n        /* \"#utility.yul\":10720:10727   */\n      dup14\n        /* \"#utility.yul\":10711:10717   */\n      dup3\n        /* \"#utility.yul\":10700:10709   */\n      dup15\n        /* \"#utility.yul\":10696:10718   */\n      add\n        /* \"#utility.yul\":10663:10728   */\n      tag_179\n      jump\t// in\n    tag_327:\n        /* \"#utility.yul\":10645:10728   */\n      swap3\n      pop\n      swap3\n      pop\n        /* \"#utility.yul\":10439:10738   */\n      pop\n        /* \"#utility.yul\":8888:10745   */\n      swap3\n      swap6\n      swap9\n      swap12\n      swap2\n      swap5\n      swap8\n      swap11\n      pop\n      swap3\n      swap6\n      swap9\n      pop\n      jump\t// out\n        /* \"#utility.yul\":10751:11225   */\n    tag_56:\n        /* \"#utility.yul\":10819:10825   */\n      0x00\n        /* \"#utility.yul\":10827:10833   */\n      0x00\n        /* \"#utility.yul\":10876:10878   */\n      0x40\n        /* \"#utility.yul\":10864:10873   */\n      dup4\n        /* \"#utility.yul\":10855:10862   */\n      dup6\n        /* \"#utility.yul\":10851:10874   */\n      sub\n        /* \"#utility.yul\":10847:10879   */\n      slt\n        /* \"#utility.yul\":10844:10963   */\n      iszero\n      tag_329\n      jumpi\n        /* \"#utility.yul\":10882:10961   */\n      tag_330\n      tag_149\n      jump\t// in\n    tag_330:\n        /* \"#utility.yul\":10844:10963   */\n    tag_329:\n        /* \"#utility.yul\":11002:11003   */\n      0x00\n        /* \"#utility.yul\":11027:11080   */\n      tag_331\n        /* \"#utility.yul\":11072:11079   */\n      dup6\n        /* \"#utility.yul\":11063:11069   */\n      dup3\n        /* \"#utility.yul\":11052:11061   */\n      dup7\n        /* \"#utility.yul\":11048:11070   */\n      add\n        /* \"#utility.yul\":11027:11080   */\n      tag_154\n      jump\t// in\n    tag_331:\n        /* \"#utility.yul\":11017:11080   */\n      swap3\n      pop\n        /* \"#utility.yul\":10973:11090   */\n      pop\n        /* \"#utility.yul\":11129:11131   */\n      0x20\n        /* \"#utility.yul\":11155:11208   */\n      tag_332\n        /* \"#utility.yul\":11200:11207   */\n      dup6\n        /* \"#utility.yul\":11191:11197   */\n      dup3\n        /* \"#utility.yul\":11180:11189   */\n      dup7\n        /* \"#utility.yul\":11176:11198   */\n      add\n        /* \"#utility.yul\":11155:11208   */\n      tag_154\n      jump\t// in\n    tag_332:\n        /* \"#utility.yul\":11145:11208   */\n      swap2\n      pop\n        /* \"#utility.yul\":11100:11218   */\n      pop\n        /* \"#utility.yul\":10751:11225   */\n      swap3\n      pop\n      swap3\n      swap1\n      pop\n      jump\t// out\n        /* \"#utility.yul\":11231:11453   */\n    tag_62:\n        /* \"#utility.yul\":11324:11328   */\n      0x00\n        /* \"#utility.yul\":11362:11364   */\n      0x20\n        /* \"#utility.yul\":11351:11360   */\n      dup3\n        /* \"#utility.yul\":11347:11365   */\n      add\n        /* \"#utility.yul\":11339:11365   */\n      swap1\n      pop\n        /* \"#utility.yul\":11375:11446   */\n      tag_334\n        /* \"#utility.yul\":11443:11444   */\n      0x00\n        /* \"#utility.yul\":11432:11441   */\n      dup4\n        /* \"#utility.yul\":11428:11445   */\n      add\n        /* \"#utility.yul\":11419:11425   */\n      dup5\n        /* \"#utility.yul\":11375:11446   */\n      tag_169\n      jump\t// in\n    tag_334:\n        /* \"#utility.yul\":11231:11453   */\n      swap3\n      swap2\n      pop\n      pop\n      jump\t// out\n        /* \"#utility.yul\":11459:11679   */\n    tag_180:\n        /* \"#utility.yul\":11599:11633   */\n      0x4f6e6c792061646d696e2063616e2063616c6c20746869732066756e6374696f\n        /* \"#utility.yul\":11595:11596   */\n      0x00\n        /* \"#utility.yul\":11587:11593   */\n      dup3\n        /* \"#utility.yul\":11583:11597   */\n      add\n        /* \"#utility.yul\":11576:11634   */\n      mstore\n        /* \"#utility.yul\":11668:11671   */\n      0x6e00000000000000000000000000000000000000000000000000000000000000\n        /* \"#utility.yul\":11663:11665   */\n      0x20\n        /* \"#utility.yul\":11655:11661   */\n      dup3\n        /* \"#utility.yul\":11651:11666   */\n      add\n        /* \"#utility.yul\":11644:11672   */\n      mstore\n        /* \"#utility.yul\":11459:11679   */\n      pop\n      jump\t// out\n        /* \"#utility.yul\":11685:12051   */\n    tag_181:\n        /* \"#utility.yul\":11827:11830   */\n      0x00\n        /* \"#utility.yul\":11848:11915   */\n      tag_337\n        /* \"#utility.yul\":11912:11914   */\n      0x21\n        /* \"#utility.yul\":11907:11910   */\n      dup4\n        /* \"#utility.yul\":11848:11915   */\n      tag_171\n      jump\t// in\n    tag_337:\n        /* \"#utility.yul\":11841:11915   */\n      swap2\n      pop\n        /* \"#utility.yul\":11924:12017   */\n      tag_338\n        /* \"#utility.yul\":12013:12016   */\n      dup3\n        /* \"#utility.yul\":11924:12017   */\n      tag_180\n      jump\t// in\n    tag_338:\n        /* \"#utility.yul\":12042:12044   */\n      0x40\n        /* \"#utility.yul\":12037:12040   */\n      dup3\n        /* \"#utility.yul\":12033:12045   */\n      add\n        /* \"#utility.yul\":12026:12045   */\n      swap1\n      pop\n        /* \"#utility.yul\":11685:12051   */\n      swap2\n      swap1\n      pop\n      jump\t// out\n        /* \"#utility.yul\":12057:12476   */\n    tag_66:\n        /* \"#utility.yul\":12223:12227   */\n      0x00\n        /* \"#utility.yul\":12261:12263   */\n      0x20\n        /* \"#utility.yul\":12250:12259   */\n      dup3\n        /* \"#utility.yul\":12246:12264   */\n      add\n        /* \"#utility.yul\":12238:12264   */\n      swap1\n      pop\n        /* \"#utility.yul\":12310:12319   */\n      dup2\n        /* \"#utility.yul\":12304:12308   */\n      dup2\n        /* \"#utility.yul\":12300:12320   */\n      sub\n        /* \"#utility.yul\":12296:12297   */\n      0x00\n        /* \"#utility.yul\":12285:12294   */\n      dup4\n        /* \"#utility.yul\":12281:12298   */\n      add\n        /* \"#utility.yul\":12274:12321   */\n      mstore\n        /* \"#utility.yul\":12338:12469   */\n      tag_340\n        /* \"#utility.yul\":12464:12468   */\n      dup2\n        /* \"#utility.yul\":12338:12469   */\n      tag_181\n      jump\t// in\n    tag_340:\n        /* \"#utility.yul\":12330:12469   */\n      swap1\n      pop\n        /* \"#utility.yul\":12057:12476   */\n      swap2\n      swap1\n      pop\n      jump\t// out\n        /* \"#utility.yul\":12482:12657   */\n    tag_182:\n        /* \"#utility.yul\":12622:12649   */\n      0x50617469656e74206973206e6f74207265676973746572656400000000000000\n        /* \"#utility.yul\":12618:12619   */\n      0x00\n        /* \"#utility.yul\":12610:12616   */\n      dup3\n        /* \"#utility.yul\":12606:12620   */\n      add\n        /* \"#utility.yul\":12599:12650   */\n      mstore\n        /* \"#utility.yul\":12482:12657   */\n      pop\n      jump\t// out\n        /* \"#utility.yul\":12663:13029   */\n    tag_183:\n        /* \"#utility.yul\":12805:12808   */\n      0x00\n        /* \"#utility.yul\":12826:12893   */\n      tag_343\n        /* \"#utility.yul\":12890:12892   */\n      0x19\n        /* \"#utility.yul\":12885:12888   */\n      dup4\n        /* \"#utility.yul\":12826:12893   */\n      tag_171\n      jump\t// in\n    tag_343:\n        /* \"#utility.yul\":12819:12893   */\n      swap2\n      pop\n        /* \"#utility.yul\":12902:12995   */\n      tag_344\n        /* \"#utility.yul\":12991:12994   */\n      dup3\n        /* \"#utility.yul\":12902:12995   */\n      tag_182\n      jump\t// in\n    tag_344:\n        /* \"#utility.yul\":13020:13022   */\n      0x20\n        /* \"#utility.yul\":13015:13018   */\n      dup3\n        /* \"#utility.yul\":13011:13023   */\n      add\n        /* \"#utility.yul\":13004:13023   */\n      swap1\n      pop\n        /* \"#utility.yul\":12663:13029   */\n      swap2\n      swap1\n      pop\n      jump\t// out\n        /* \"#utility.yul\":13035:13454   */\n    tag_70:\n        /* \"#utility.yul\":13201:13205   */\n      0x00\n        /* \"#utility.yul\":13239:13241   */\n      0x20\n        /* \"#utility.yul\":13228:13237   */\n      dup3\n        /* \"#utility.yul\":13224:13242   */\n      add\n        /* \"#utility.yul\":13216:13242   */\n      swap1\n      pop\n        /* \"#utility.yul\":13288:13297   */\n      dup2\n        /* \"#utility.yul\":13282:13286   */\n      dup2\n        /* \"#utility.yul\":13278:13298   */\n      sub\n        /* \"#utility.yul\":13274:13275   */\n      0x00\n        /* \"#utility.yul\":13263:13272   */\n      dup4\n        /* \"#utility.yul\":13259:13276   */\n      add\n        /* \"#utility.yul\":13252:13299   */\n      mstore\n        /* \"#utility.yul\":13316:13447   */\n      tag_346\n        /* \"#utility.yul\":13442:13446   */\n      dup2\n        /* \"#utility.yul\":13316:13447   */\n      tag_183\n      jump\t// in\n    tag_346:\n        /* \"#utility.yul\":13308:13447   */\n      swap1\n      pop\n        /* \"#utility.yul\":13035:13454   */\n      swap2\n      swap1\n      pop\n      jump\t// out\n        /* \"#utility.yul\":13460:13631   */\n    tag_184:\n        /* \"#utility.yul\":13600:13623   */\n      0x446f63746f72206e6f7420726567697374657265640000000000000000000000\n        /* \"#utility.yul\":13596:13597   */\n      0x00\n        /* \"#utility.yul\":13588:13594   */\n      dup3\n        /* \"#utility.yul\":13584:13598   */\n      add\n        /* \"#utility.yul\":13577:13624   */\n      mstore\n        /* \"#utility.yul\":13460:13631   */\n      pop\n      jump\t// out\n        /* \"#utility.yul\":13637:14003   */\n    tag_185:\n        /* \"#utility.yul\":13779:13782   */\n      0x00\n        /* \"#utility.yul\":13800:13867   */\n      tag_349\n        /* \"#utility.yul\":13864:13866   */\n      0x15\n        /* \"#utility.yul\":13859:13862   */\n      dup4\n        /* \"#utility.yul\":13800:13867   */\n      tag_171\n      jump\t// in\n    tag_349:\n        /* \"#utility.yul\":13793:13867   */\n      swap2\n      pop\n        /* \"#utility.yul\":13876:13969   */\n      tag_350\n        /* \"#utility.yul\":13965:13968   */\n      dup3\n        /* \"#utility.yul\":13876:13969   */\n      tag_184\n      jump\t// in\n    tag_350:\n        /* \"#utility.yul\":13994:13996   */\n      0x20\n        /* \"#utility.yul\":13989:13992   */\n      dup3\n        /* \"#utility.yul\":13985:13997   */\n      add\n        /* \"#utility.yul\":13978:13997   */\n      swap1\n      pop\n        /* \"#utility.yul\":13637:14003   */\n      swap2\n      swap1\n      pop\n      jump\t// out\n        /* \"#utility.yul\":14009:14428   */\n    tag_74:\n        /* \"#utility.yul\":14175:14179   */\n      0x00\n        /* \"#utility.yul\":14213:14215   */\n      0x20\n        /* \"#utility.yul\":14202:14211   */\n      dup3\n        /* \"#utility.yul\":14198:14216   */\n      add\n        /* \"#utility.yul\":14190:14216   */\n      swap1\n      pop\n        /* \"#utility.yul\":14262:14271   */\n      dup2\n        /* \"#utility.yul\":14256:14260   */\n      dup2\n        /* \"#utility.yul\":14252:14272   */\n      sub\n        /* \"#utility.yul\":14248:14249   */\n      0x00\n        /* \"#utility.yul\":14237:14246   */\n      dup4\n        /* \"#utility.yul\":14233:14250   */\n      add\n        /* \"#utility.yul\":14226:14273   */\n      mstore\n        /* \"#utility.yul\":14290:14421   */\n      tag_352\n        /* \"#utility.yul\":14416:14420   */\n      dup2\n        /* \"#utility.yul\":14290:14421   */\n      tag_185\n      jump\t// in\n    tag_352:\n        /* \"#utility.yul\":14282:14421   */\n      swap1\n      pop\n        /* \"#utility.yul\":14009:14428   */\n      swap2\n      swap1\n      pop\n      jump\t// out\n        /* \"#utility.yul\":14434:14598   */\n    tag_186:\n        /* \"#utility.yul\":14574:14590   */\n      0x496e76616c69642077616c6c6574000000000000000000000000000000000000\n        /* \"#utility.yul\":14570:14571   */\n      0x00\n        /* \"#utility.yul\":14562:14568   */\n      dup3\n        /* \"#utility.yul\":14558:14572   */\n      add\n        /* \"#utility.yul\":14551:14591   */\n      mstore\n        /* \"#utility.yul\":14434:14598   */\n      pop\n      jump\t// out\n        /* \"#utility.yul\":14604:14970   */\n    tag_187:\n        /* \"#utility.yul\":14746:14749   */\n      0x00\n        /* \"#utility.yul\":14767:14834   */\n      tag_355\n        /* \"#utility.yul\":14831:14833   */\n      0x0e\n        /* \"#utility.yul\":14826:14829   */\n      dup4\n        /* \"#utility.yul\":14767:14834   */\n      tag_171\n      jump\t// in\n    tag_355:\n        /* \"#utility.yul\":14760:14834   */\n      swap2\n      pop\n        /* \"#utility.yul\":14843:14936   */\n      tag_356\n        /* \"#utility.yul\":14932:14935   */\n      dup3\n        /* \"#utility.yul\":14843:14936   */\n      tag_186\n      jump\t// in\n    tag_356:\n        /* \"#utility.yul\":14961:14963   */\n      0x20\n        /* \"#utility.yul\":14956:14959   */\n      dup3\n        /* \"#utility.yul\":14952:14964   */\n      add\n        /* \"#utility.yul\":14945:14964   */\n      swap1\n      pop\n        /* \"#utility.yul\":14604:14970   */\n      swap2\n      swap1\n      pop\n      jump\t// out\n        /* \"#utility.yul\":14976:15395   */\n    tag_82:\n        /* \"#utility.yul\":15142:15146   */\n      0x00\n        /* \"#utility.yul\":15180:15182   */\n      0x20\n        /* \"#utility.yul\":15169:15178   */\n      dup3\n        /* \"#utility.yul\":15165:15183   */\n      add\n        /* \"#utility.yul\":15157:15183   */\n      swap1\n      pop\n        /* \"#utility.yul\":15229:15238   */\n      dup2\n        /* \"#utility.yul\":15223:15227   */\n      dup2\n        /* \"#utility.yul\":15219:15239   */\n      sub\n        /* \"#utility.yul\":15215:15216   */\n      0x00\n        /* \"#utility.yul\":15204:15213   */\n      dup4\n        /* \"#utility.yul\":15200:15217   */\n      add\n        /* \"#utility.yul\":15193:15240   */\n      mstore\n        /* \"#utility.yul\":15257:15388   */\n      tag_358\n        /* \"#utility.yul\":15383:15387   */\n      dup2\n        /* \"#utility.yul\":15257:15388   */\n      tag_187\n      jump\t// in\n    tag_358:\n        /* \"#utility.yul\":15249:15388   */\n      swap1\n      pop\n        /* \"#utility.yul\":14976:15395   */\n      swap2\n      swap1\n      pop\n      jump\t// out\n        /* \"#utility.yul\":15401:15577   */\n    tag_188:\n        /* \"#utility.yul\":15541:15569   */\n      0x50617469656e7420616c72656164792072656769737465726564000000000000\n        /* \"#utility.yul\":15537:15538   */\n      0x00\n        /* \"#utility.yul\":15529:15535   */\n      dup3\n        /* \"#utility.yul\":15525:15539   */\n      add\n        /* \"#utility.yul\":15518:15570   */\n      mstore\n        /* \"#utility.yul\":15401:15577   */\n      pop\n      jump\t// out\n        /* \"#utility.yul\":15583:15949   */\n    tag_189:\n        /* \"#utility.yul\":15725:15728   */\n      0x00\n        /* \"#utility.yul\":15746:15813   */\n      tag_361\n        /* \"#utility.yul\":15810:15812   */\n      0x1a\n        /* \"#utility.yul\":15805:15808   */\n      dup4\n        /* \"#utility.yul\":15746:15813   */\n      tag_171\n      jump\t// in\n    tag_361:\n        /* \"#utility.yul\":15739:15813   */\n      swap2\n      pop\n        /* \"#utility.yul\":15822:15915   */\n      tag_362\n        /* \"#utility.yul\":15911:15914   */\n      dup3\n        /* \"#utility.yul\":15822:15915   */\n      tag_188\n      jump\t// in\n    tag_362:\n        /* \"#utility.yul\":15940:15942   */\n      0x20\n        /* \"#utility.yul\":15935:15938   */\n      dup3\n        /* \"#utility.yul\":15931:15943   */\n      add\n        /* \"#utility.yul\":15924:15943   */\n      swap1\n      pop\n        /* \"#utility.yul\":15583:15949   */\n      swap2\n      swap1\n      pop\n      jump\t// out\n        /* \"#utility.yul\":15955:16374   */\n    tag_85:\n        /* \"#utility.yul\":16121:16125   */\n      0x00\n        /* \"#utility.yul\":16159:16161   */\n      0x20\n        /* \"#utility.yul\":16148:16157   */\n      dup3\n        /* \"#utility.yul\":16144:16162   */\n      add\n        /* \"#utility.yul\":16136:16162   */\n      swap1\n      pop\n        /* \"#utility.yul\":16208:16217   */\n      dup2\n        /* \"#utility.yul\":16202:16206   */\n      dup2\n        /* \"#utility.yul\":16198:16218   */\n      sub\n        /* \"#utility.yul\":16194:16195   */\n      0x00\n        /* \"#utility.yul\":16183:16192   */\n      dup4\n        /* \"#utility.yul\":16179:16196   */\n      add\n        /* \"#utility.yul\":16172:16219   */\n      mstore\n        /* \"#utility.yul\":16236:16367   */\n      tag_364\n        /* \"#utility.yul\":16362:16366   */\n      dup2\n        /* \"#utility.yul\":16236:16367   */\n      tag_189\n      jump\t// in\n    tag_364:\n        /* \"#utility.yul\":16228:16367   */\n      swap1\n      pop\n        /* \"#utility.yul\":15955:16374   */\n      swap2\n      swap1\n      pop\n      jump\t// out\n        /* \"#utility.yul\":16380:16555   */\n    tag_190:\n        /* \"#utility.yul\":16520:16547   */\n      0x446f63746f7220616c7265616479207265676973746572656400000000000000\n        /* \"#utility.yul\":16516:16517   */\n      0x00\n        /* \"#utility.yul\":16508:16514   */\n      dup3\n        /* \"#utility.yul\":16504:16518   */\n      add\n        /* \"#utility.yul\":16497:16548   */\n      mstore\n        /* \"#utility.yul\":16380:16555   */\n      pop\n      jump\t// out\n        /* \"#utility.yul\":16561:16927   */\n    tag_191:\n        /* \"#utility.yul\":16703:16706   */\n      0x00\n        /* \"#utility.yul\":16724:16791   */\n      tag_367\n        /* \"#utility.yul\":16788:16790   */\n      0x19\n        /* \"#utility.yul\":16783:16786   */\n      dup4\n        /* \"#utility.yul\":16724:16791   */\n      tag_171\n      jump\t// in\n    tag_367:\n        /* \"#utility.yul\":16717:16791   */\n      swap2\n      pop\n        /* \"#utility.yul\":16800:16893   */\n      tag_368\n        /* \"#utility.yul\":16889:16892   */\n      dup3\n        /* \"#utility.yul\":16800:16893   */\n      tag_190\n      jump\t// in\n    tag_368:\n        /* \"#utility.yul\":16918:16920   */\n      0x20\n        /* \"#utility.yul\":16913:16916   */\n      dup3\n        /* \"#utility.yul\":16909:16921   */\n      add\n        /* \"#utility.yul\":16902:16921   */\n      swap1\n      pop\n        /* \"#utility.yul\":16561:16927   */\n      swap2\n      swap1\n      pop\n      jump\t// out\n        /* \"#utility.yul\":16933:17352   */\n    tag_100:\n        /* \"#utility.yul\":17099:17103   */\n      0x00\n        /* \"#utility.yul\":17137:17139   */\n      0x20\n        /* \"#utility.yul\":17126:17135   */\n      dup3\n        /* \"#utility.yul\":17122:17140   */\n      add\n        /* \"#utility.yul\":17114:17140   */\n      swap1\n      pop\n        /* \"#utility.yul\":17186:17195   */\n      dup2\n        /* \"#utility.yul\":17180:17184   */\n      dup2\n        /* \"#utility.yul\":17176:17196   */\n      sub\n        /* \"#utility.yul\":17172:17173   */\n      0x00\n        /* \"#utility.yul\":17161:17170   */\n      dup4\n        /* \"#utility.yul\":17157:17174   */\n      add\n        /* \"#utility.yul\":17150:17197   */\n      mstore\n        /* \"#utility.yul\":17214:17345   */\n      tag_370\n        /* \"#utility.yul\":17340:17344   */\n      dup2\n        /* \"#utility.yul\":17214:17345   */\n      tag_191\n      jump\t// in\n    tag_370:\n        /* \"#utility.yul\":17206:17345   */\n      swap1\n      pop\n        /* \"#utility.yul\":16933:17352   */\n      swap2\n      swap1\n      pop\n      jump\t// out\n        /* \"#utility.yul\":17358:17538   */\n    tag_192:\n        /* \"#utility.yul\":17406:17483   */\n      0x4e487b7100000000000000000000000000000000000000000000000000000000\n        /* \"#utility.yul\":17403:17404   */\n      0x00\n        /* \"#utility.yul\":17396:17484   */\n      mstore\n        /* \"#utility.yul\":17503:17507   */\n      0x22\n        /* \"#utility.yul\":17500:17501   */\n      0x04\n        /* \"#utility.yul\":17493:17508   */\n      mstore\n        /* \"#utility.yul\":17527:17531   */\n      0x24\n        /* \"#utility.yul\":17524:17525   */\n      0x00\n        /* \"#utility.yul\":17517:17532   */\n      revert\n        /* \"#utility.yul\":17544:17864   */\n    tag_103:\n        /* \"#utility.yul\":17588:17594   */\n      0x00\n        /* \"#utility.yul\":17625:17626   */\n      0x02\n        /* \"#utility.yul\":17619:17623   */\n      dup3\n        /* \"#utility.yul\":17615:17627   */\n      div\n        /* \"#utility.yul\":17605:17627   */\n      swap1\n      pop\n        /* \"#utility.yul\":17672:17673   */\n      0x01\n        /* \"#utility.yul\":17666:17670   */\n      dup3\n        /* \"#utility.yul\":17662:17674   */\n      and\n        /* \"#utility.yul\":17693:17711   */\n      dup1\n        /* \"#utility.yul\":17683:17764   */\n      tag_373\n      jumpi\n        /* \"#utility.yul\":17749:17753   */\n      0x7f\n        /* \"#utility.yul\":17741:17747   */\n      dup3\n        /* \"#utility.yul\":17737:17754   */\n      and\n        /* \"#utility.yul\":17727:17754   */\n      swap2\n      pop\n        /* \"#utility.yul\":17683:17764   */\n    tag_373:\n        /* \"#utility.yul\":17811:17813   */\n      0x20\n        /* \"#utility.yul\":17803:17809   */\n      dup3\n        /* \"#utility.yul\":17800:17814   */\n      lt\n        /* \"#utility.yul\":17780:17798   */\n      dup2\n        /* \"#utility.yul\":17777:17815   */\n      sub\n        /* \"#utility.yul\":17774:17858   */\n      tag_374\n      jumpi\n        /* \"#utility.yul\":17830:17848   */\n      tag_375\n      tag_192\n      jump\t// in\n    tag_375:\n        /* \"#utility.yul\":17774:17858   */\n    tag_374:\n        /* \"#utility.yul\":17595:17864   */\n      pop\n        /* \"#utility.yul\":17544:17864   */\n      swap2\n      swap1\n      pop\n      jump\t// out\n        /* \"#utility.yul\":17870:18047   */\n    tag_193:\n        /* \"#utility.yul\":18010:18039   */\n      0x507265736372697074696f6e20646f6573206e6f742065786973740000000000\n        /* \"#utility.yul\":18006:18007   */\n      0x00\n        /* \"#utility.yul\":17998:18004   */\n      dup3\n        /* \"#utility.yul\":17994:18008   */\n      add\n        /* \"#utility.yul\":17987:18040   */\n      mstore\n        /* \"#utility.yul\":17870:18047   */\n      pop\n      jump\t// out\n        /* \"#utility.yul\":18053:18419   */\n    tag_194:\n        /* \"#utility.yul\":18195:18198   */\n      0x00\n        /* \"#utility.yul\":18216:18283   */\n      tag_378\n        /* \"#utility.yul\":18280:18282   */\n      0x1b\n        /* \"#utility.yul\":18275:18278   */\n      dup4\n        /* \"#utility.yul\":18216:18283   */\n      tag_171\n      jump\t// in\n    tag_378:\n        /* \"#utility.yul\":18209:18283   */\n      swap2\n      pop\n        /* \"#utility.yul\":18292:18385   */\n      tag_379\n        /* \"#utility.yul\":18381:18384   */\n      dup3\n        /* \"#utility.yul\":18292:18385   */\n      tag_193\n      jump\t// in\n    tag_379:\n        /* \"#utility.yul\":18410:18412   */\n      0x20\n        /* \"#utility.yul\":18405:18408   */\n      dup3\n        /* \"#utility.yul\":18401:18413   */\n      add\n        /* \"#utility.yul\":18394:18413   */\n      swap1\n      pop\n        /* \"#utility.yul\":18053:18419   */\n      swap2\n      swap1\n      pop\n      jump\t// out\n        /* \"#utility.yul\":18425:18844   */\n    tag_125:\n        /* \"#utility.yul\":18591:18595   */\n      0x00\n        /* \"#utility.yul\":18629:18631   */\n      0x20\n        /* \"#utility.yul\":18618:18627   */\n      dup3\n        /* \"#utility.yul\":18614:18632   */\n      add\n        /* \"#utility.yul\":18606:18632   */\n      swap1\n      pop\n        /* \"#utility.yul\":18678:18687   */\n      dup2\n        /* \"#utility.yul\":18672:18676   */\n      dup2\n        /* \"#utility.yul\":18668:18688   */\n      sub\n        /* \"#utility.yul\":18664:18665   */\n      0x00\n        /* \"#utility.yul\":18653:18662   */\n      dup4\n        /* \"#utility.yul\":18649:18666   */\n      add\n        /* \"#utility.yul\":18642:18689   */\n      mstore\n        /* \"#utility.yul\":18706:18837   */\n      tag_381\n        /* \"#utility.yul\":18832:18836   */\n      dup2\n        /* \"#utility.yul\":18706:18837   */\n      tag_194\n      jump\t// in\n    tag_381:\n        /* \"#utility.yul\":18698:18837   */\n      swap1\n      pop\n        /* \"#utility.yul\":18425:18844   */\n      swap2\n      swap1\n      pop\n      jump\t// out\n        /* \"#utility.yul\":18850:19073   */\n    tag_195:\n        /* \"#utility.yul\":18990:19024   */\n      0x446f63746f7220686173206e6f2061636365737320746f207468697320706174\n        /* \"#utility.yul\":18986:18987   */\n      0x00\n        /* \"#utility.yul\":18978:18984   */\n      dup3\n        /* \"#utility.yul\":18974:18988   */\n      add\n        /* \"#utility.yul\":18967:19025   */\n      mstore\n        /* \"#utility.yul\":19059:19065   */\n      0x69656e7400000000000000000000000000000000000000000000000000000000\n        /* \"#utility.yul\":19054:19056   */\n      0x20\n        /* \"#utility.yul\":19046:19052   */\n      dup3\n        /* \"#utility.yul\":19042:19057   */\n      add\n        /* \"#utility.yul\":19035:19066   */\n      mstore\n        /* \"#utility.yul\":18850:19073   */\n      pop\n      jump\t// out\n        /* \"#utility.yul\":19079:19445   */\n    tag_196:\n        /* \"#utility.yul\":19221:19224   */\n      0x00\n        /* \"#utility.yul\":19242:19309   */\n      tag_384\n        /* \"#utility.yul\":19306:19308   */\n      0x24\n        /* \"#utility.yul\":19301:19304   */\n      dup4\n        /* \"#utility.yul\":19242:19309   */\n      tag_171\n      jump\t// in\n    tag_384:\n        /* \"#utility.yul\":19235:19309   */\n      swap2\n      pop\n        /* \"#utility.yul\":19318:19411   */\n      tag_385\n        /* \"#utility.yul\":19407:19410   */\n      dup3\n        /* \"#utility.yul\":19318:19411   */\n      tag_195\n      jump\t// in\n    tag_385:\n        /* \"#utility.yul\":19436:19438   */\n      0x40\n        /* \"#utility.yul\":19431:19434   */\n      dup3\n        /* \"#utility.yul\":19427:19439   */\n      add\n        /* \"#utility.yul\":19420:19439   */\n      swap1\n      pop\n        /* \"#utility.yul\":19079:19445   */\n      swap2\n      swap1\n      pop\n      jump\t// out\n        /* \"#utility.yul\":19451:19870   */\n    tag_137:\n        /* \"#utility.yul\":19617:19621   */\n      0x00\n        /* \"#utility.yul\":19655:19657   */\n      0x20\n        /* \"#utility.yul\":19644:19653   */\n      dup3\n        /* \"#utility.yul\":19640:19658   */\n      add\n        /* \"#utility.yul\":19632:19658   */\n      swap1\n      pop\n        /* \"#utility.yul\":19704:19713   */\n      dup2\n        /* \"#utility.yul\":19698:19702   */\n      dup2\n        /* \"#utility.yul\":19694:19714   */\n      sub\n        /* \"#utility.yul\":19690:19691   */\n      0x00\n        /* \"#utility.yul\":19679:19688   */\n      dup4\n        /* \"#utility.yul\":19675:19692   */\n      add\n        /* \"#utility.yul\":19668:19715   */\n      mstore\n        /* \"#utility.yul\":19732:19863   */\n      tag_387\n        /* \"#utility.yul\":19858:19862   */\n      dup2\n        /* \"#utility.yul\":19732:19863   */\n      tag_196\n      jump\t// in\n    tag_387:\n        /* \"#utility.yul\":19724:19863   */\n      swap1\n      pop\n        /* \"#utility.yul\":19451:19870   */\n      swap2\n      swap1\n      pop\n      jump\t// out\n        /* \"#utility.yul\":19876:20056   */\n    tag_197:\n        /* \"#utility.yul\":19924:20001   */\n      0x4e487b7100000000000000000000000000000000000000000000000000000000\n        /* \"#utility.yul\":19921:19922   */\n      0x00\n        /* \"#utility.yul\":19914:20002   */\n      mstore\n        /* \"#utility.yul\":20021:20025   */\n      0x11\n        /* \"#utility.yul\":20018:20019   */\n      0x04\n        /* \"#utility.yul\":20011:20026   */\n      mstore\n        /* \"#utility.yul\":20045:20049   */\n      0x24\n        /* \"#utility.yul\":20042:20043   */\n      0x00\n        /* \"#utility.yul\":20035:20050   */\n      revert\n        /* \"#utility.yul\":20062:20295   */\n    tag_139:\n        /* \"#utility.yul\":20101:20104   */\n      0x00\n        /* \"#utility.yul\":20124:20148   */\n      tag_390\n        /* \"#utility.yul\":20142:20147   */\n      dup3\n        /* \"#utility.yul\":20124:20148   */\n      tag_161\n      jump\t// in\n    tag_390:\n        /* \"#utility.yul\":20115:20148   */\n      swap2\n      pop\n        /* \"#utility.yul\":20170:20236   */\n      0xffffffffffffffffffffffffffffffffffffffffffffffffffffffffffffffff\n        /* \"#utility.yul\":20163:20168   */\n      dup3\n        /* \"#utility.yul\":20160:20237   */\n      sub\n        /* \"#utility.yul\":20157:20260   */\n      tag_391\n      jumpi\n        /* \"#utility.yul\":20240:20258   */\n      tag_392\n      tag_197\n      jump\t// in\n    tag_392:\n        /* \"#utility.yul\":20157:20260   */\n    tag_391:\n        /* \"#utility.yul\":20287:20288   */\n      0x01\n        /* \"#utility.yul\":20280:20285   */\n      dup3\n        /* \"#utility.yul\":20276:20289   */\n      add\n        /* \"#utility.yul\":20269:20289   */\n      swap1\n      pop\n        /* \"#utility.yul\":20062:20295   */\n      swap2\n      swap1\n      pop\n      jump\t// out\n        /* \"#utility.yul\":20301:20481   */\n    tag_198:\n        /* \"#utility.yul\":20349:20426   */\n      0x4e487b7100000000000000000000000000000000000000000000000000000000\n        /* \"#utility.yul\":20346:20347   */\n      0x00\n        /* \"#utility.yul\":20339:20427   */\n      mstore\n        /* \"#utility.yul\":20446:20450   */\n      0x41\n        /* \"#utility.yul\":20443:20444   */\n      0x04\n        /* \"#utility.yul\":20436:20451   */\n      mstore\n        /* \"#utility.yul\":20470:20474   */\n      0x24\n        /* \"#utility.yul\":20467:20468   */\n      0x00\n        /* \"#utility.yul\":20460:20475   */\n      revert\n        /* \"#utility.yul\":20487:20628   */\n    tag_199:\n        /* \"#utility.yul\":20536:20540   */\n      0x00\n        /* \"#utility.yul\":20559:20562   */\n      dup2\n        /* \"#utility.yul\":20551:20562   */\n      swap1\n      pop\n        /* \"#utility.yul\":20582:20585   */\n      dup2\n        /* \"#utility.yul\":20579:20580   */\n      0x00\n        /* \"#utility.yul\":20572:20586   */\n      mstore\n        /* \"#utility.yul\":20616:20620   */\n      0x20\n        /* \"#utility.yul\":20613:20614   */\n      0x00\n        /* \"#utility.yul\":20603:20621   */\n      keccak256\n        /* \"#utility.yul\":20595:20621   */\n      swap1\n      pop\n        /* \"#utility.yul\":20487:20628   */\n      swap2\n      swap1\n      pop\n      jump\t// out\n        /* \"#utility.yul\":20634:20727   */\n    tag_200:\n        /* \"#utility.yul\":20671:20677   */\n      0x00\n        /* \"#utility.yul\":20718:20720   */\n      0x20\n        /* \"#utility.yul\":20713:20715   */\n      0x1f\n        /* \"#utility.yul\":20706:20711   */\n      dup4\n        /* \"#utility.yul\":20702:20716   */\n      add\n        /* \"#utility.yul\":20698:20721   */\n      div\n        /* \"#utility.yul\":20688:20721   */\n      swap1\n      pop\n        /* \"#utility.yul\":20634:20727   */\n      swap2\n      swap1\n      pop\n      jump\t// out\n        /* \"#utility.yul\":20733:20840   */\n    tag_201:\n        /* \"#utility.yul\":20777:20785   */\n      0x00\n        /* \"#utility.yul\":20827:20832   */\n      dup3\n        /* \"#utility.yul\":20821:20825   */\n      dup3\n        /* \"#utility.yul\":20817:20833   */\n      shl\n        /* \"#utility.yul\":20796:20833   */\n      swap1\n      pop\n        /* \"#utility.yul\":20733:20840   */\n      swap3\n      swap2\n      pop\n      pop\n      jump\t// out\n        /* \"#utility.yul\":20846:21239   */\n    tag_202:\n        /* \"#utility.yul\":20915:20921   */\n      0x00\n        /* \"#utility.yul\":20965:20966   */\n      0x08\n        /* \"#utility.yul\":20953:20963   */\n      dup4\n        /* \"#utility.yul\":20949:20967   */\n      mul\n        /* \"#utility.yul\":20988:21085   */\n      tag_398\n        /* \"#utility.yul\":21018:21084   */\n      0xffffffffffffffffffffffffffffffffffffffffffffffffffffffffffffffff\n        /* \"#utility.yul\":21007:21016   */\n      dup3\n        /* \"#utility.yul\":20988:21085   */\n      tag_201\n      jump\t// in\n    tag_398:\n        /* \"#utility.yul\":21106:21145   */\n      tag_399\n        /* \"#utility.yul\":21136:21144   */\n      dup7\n        /* \"#utility.yul\":21125:21134   */\n      dup4\n        /* \"#utility.yul\":21106:21145   */\n      tag_201\n      jump\t// in\n    tag_399:\n        /* \"#utility.yul\":21094:21145   */\n      swap6\n      pop\n        /* \"#utility.yul\":21178:21182   */\n      dup1\n        /* \"#utility.yul\":21174:21183   */\n      not\n        /* \"#utility.yul\":21167:21172   */\n      dup5\n        /* \"#utility.yul\":21163:21184   */\n      and\n        /* \"#utility.yul\":21154:21184   */\n      swap4\n      pop\n        /* \"#utility.yul\":21227:21231   */\n      dup1\n        /* \"#utility.yul\":21217:21225   */\n      dup7\n        /* \"#utility.yul\":21213:21232   */\n      and\n        /* \"#utility.yul\":21206:21211   */\n      dup5\n        /* \"#utility.yul\":21203:21233   */\n      or\n        /* \"#utility.yul\":21193:21233   */\n      swap3\n      pop\n        /* \"#utility.yul\":20922:21239   */\n      pop\n      pop\n        /* \"#utility.yul\":20846:21239   */\n      swap4\n      swap3\n      pop\n      pop\n      pop\n      jump\t// out\n        /* \"#utility.yul\":21245:21305   */\n    tag_203:\n        /* \"#utility.yul\":21273:21276   */\n      0x00\n        /* \"#utility.yul\":21294:21299   */\n      dup2\n        /* \"#utility.yul\":21287:21299   */\n      swap1\n      pop\n        /* \"#utility.yul\":21245:21305   */\n      swap2\n      swap1\n      pop\n      jump\t// out\n        /* \"#utility.yul\":21311:21453   */\n    tag_204:\n        /* \"#utility.yul\":21361:21370   */\n      0x00\n        /* \"#utility.yul\":21394:21447   */\n      tag_402\n        /* \"#utility.yul\":21412:21446   */\n      tag_403\n        /* \"#utility.yul\":21421:21445   */\n      tag_404\n        /* \"#utility.yul\":21439:21444   */\n      dup5\n        /* \"#utility.yul\":21421:21445   */\n      tag_161\n      jump\t// in\n    tag_404:\n        /* \"#utility.yul\":21412:21446   */\n      tag_203\n      jump\t// in\n    tag_403:\n        /* \"#utility.yul\":21394:21447   */\n      tag_161\n      jump\t// in\n    tag_402:\n        /* \"#utility.yul\":21381:21447   */\n      swap1\n      pop\n        /* \"#utility.yul\":21311:21453   */\n      swap2\n      swap1\n      pop\n      jump\t// out\n        /* \"#utility.yul\":21459:21534   */\n    tag_205:\n        /* \"#utility.yul\":21502:21505   */\n      0x00\n        /* \"#utility.yul\":21523:21528   */\n      dup2\n        /* \"#utility.yul\":21516:21528   */\n      swap1\n      pop\n        /* \"#utility.yul\":21459:21534   */\n      swap2\n      swap1\n      pop\n      jump\t// out\n        /* \"#utility.yul\":21540:21809   */\n    tag_206:\n        /* \"#utility.yul\":21650:21689   */\n      tag_407\n        /* \"#utility.yul\":21681:21688   */\n      dup4\n        /* \"#utility.yul\":21650:21689   */\n      tag_204\n      jump\t// in\n    tag_407:\n        /* \"#utility.yul\":21711:21802   */\n      tag_408\n        /* \"#utility.yul\":21760:21801   */\n      tag_409\n        /* \"#utility.yul\":21784:21800   */\n      dup3\n        /* \"#utility.yul\":21760:21801   */\n      tag_205\n      jump\t// in\n    tag_409:\n        /* \"#utility.yul\":21752:21758   */\n      dup5\n        /* \"#utility.yul\":21745:21749   */\n      dup5\n        /* \"#utility.yul\":21739:21750   */\n      sload\n        /* \"#utility.yul\":21711:21802   */\n      tag_202\n      jump\t// in\n    tag_408:\n        /* \"#utility.yul\":21705:21709   */\n      dup3\n        /* \"#utility.yul\":21698:21803   */\n      sstore\n        /* \"#utility.yul\":21616:21809   */\n      pop\n        /* \"#utility.yul\":21540:21809   */\n      pop\n      pop\n      pop\n      jump\t// out\n        /* \"#utility.yul\":21815:21888   */\n    tag_207:\n        /* \"#utility.yul\":21860:21863   */\n      0x00\n        /* \"#utility.yul\":21881:21882   */\n      0x00\n        /* \"#utility.yul\":21874:21882   */\n      swap1\n      pop\n        /* \"#utility.yul\":21815:21888   */\n      swap1\n      jump\t// out\n        /* \"#utility.yul\":21894:22083   */\n    tag_208:\n        /* \"#utility.yul\":21971:22003   */\n      tag_412\n      tag_207\n      jump\t// in\n    tag_412:\n        /* \"#utility.yul\":22012:22077   */\n      tag_413\n        /* \"#utility.yul\":22070:22076   */\n      dup2\n        /* \"#utility.yul\":22062:22068   */\n      dup5\n        /* \"#utility.yul\":22056:22060   */\n      dup5\n        /* \"#utility.yul\":22012:22077   */\n      tag_206\n      jump\t// in\n    tag_413:\n        /* \"#utility.yul\":21947:22083   */\n      pop\n        /* \"#utility.yul\":21894:22083   */\n      pop\n      pop\n      jump\t// out\n        /* \"#utility.yul\":22089:22275   */\n    tag_209:\n        /* \"#utility.yul\":22149:22269   */\n    tag_415:\n        /* \"#utility.yul\":22166:22169   */\n      dup2\n        /* \"#utility.yul\":22159:22164   */\n      dup2\n        /* \"#utility.yul\":22156:22170   */\n      lt\n        /* \"#utility.yul\":22149:22269   */\n      iszero\n      tag_417\n      jumpi\n        /* \"#utility.yul\":22220:22259   */\n      tag_418\n        /* \"#utility.yul\":22257:22258   */\n      0x00\n        /* \"#utility.yul\":22250:22255   */\n      dup3\n        /* \"#utility.yul\":22220:22259   */\n      tag_208\n      jump\t// in\n    tag_418:\n        /* \"#utility.yul\":22193:22194   */\n      0x01\n        /* \"#utility.yul\":22186:22191   */\n      dup2\n        /* \"#utility.yul\":22182:22195   */\n      add\n        /* \"#utility.yul\":22173:22195   */\n      swap1\n      pop\n        /* \"#utility.yul\":22149:22269   */\n      jump(tag_415)\n    tag_417:\n        /* \"#utility.yul\":22089:22275   */\n      pop\n      pop\n      jump\t// out\n        /* \"#utility.yul\":22281:22824   */\n    tag_210:\n        /* \"#utility.yul\":22382:22384   */\n      0x1f\n        /* \"#utility.yul\":22377:22380   */\n      dup3\n        /* \"#utility.yul\":22374:22385   */\n      gt\n        /* \"#utility.yul\":22371:22817   */\n      iszero\n      tag_420\n      jumpi\n        /* \"#utility.yul\":22416:22454   */\n      tag_421\n        /* \"#utility.yul\":22448:22453   */\n      dup2\n        /* \"#utility.yul\":22416:22454   */\n      tag_199\n      jump\t// in\n    tag_421:\n        /* \"#utility.yul\":22500:22529   */\n      tag_422\n        /* \"#utility.yul\":22518:22528   */\n      dup5\n        /* \"#utility.yul\":22500:22529   */\n      tag_200\n      jump\t// in\n    tag_422:\n        /* \"#utility.yul\":22490:22498   */\n      dup2\n        /* \"#utility.yul\":22486:22530   */\n      add\n        /* \"#utility.yul\":22683:22685   */\n      0x20\n        /* \"#utility.yul\":22671:22681   */\n      dup6\n        /* \"#utility.yul\":22668:22686   */\n      lt\n        /* \"#utility.yul\":22665:22714   */\n      iszero\n      tag_423\n      jumpi\n        /* \"#utility.yul\":22704:22712   */\n      dup2\n        /* \"#utility.yul\":22689:22712   */\n      swap1\n      pop\n        /* \"#utility.yul\":22665:22714   */\n    tag_423:\n        /* \"#utility.yul\":22727:22807   */\n      tag_424\n        /* \"#utility.yul\":22783:22805   */\n      tag_425\n        /* \"#utility.yul\":22801:22804   */\n      dup6\n        /* \"#utility.yul\":22783:22805   */\n      tag_200\n      jump\t// in\n    tag_425:\n        /* \"#utility.yul\":22773:22781   */\n      dup4\n        /* \"#utility.yul\":22769:22806   */\n      add\n        /* \"#utility.yul\":22756:22767   */\n      dup3\n        /* \"#utility.yul\":22727:22807   */\n      tag_209\n      jump\t// in\n    tag_424:\n        /* \"#utility.yul\":22386:22817   */\n      pop\n      pop\n        /* \"#utility.yul\":22371:22817   */\n    tag_420:\n        /* \"#utility.yul\":22281:22824   */\n      pop\n      pop\n      pop\n      jump\t// out\n        /* \"#utility.yul\":22830:22947   */\n    tag_211:\n        /* \"#utility.yul\":22884:22892   */\n      0x00\n        /* \"#utility.yul\":22934:22939   */\n      dup3\n        /* \"#utility.yul\":22928:22932   */\n      dup3\n        /* \"#utility.yul\":22924:22940   */\n      shr\n        /* \"#utility.yul\":22903:22940   */\n      swap1\n      pop\n        /* \"#utility.yul\":22830:22947   */\n      swap3\n      swap2\n      pop\n      pop\n      jump\t// out\n        /* \"#utility.yul\":22953:23122   */\n    tag_212:\n        /* \"#utility.yul\":22997:23003   */\n      0x00\n        /* \"#utility.yul\":23030:23081   */\n      tag_428\n        /* \"#utility.yul\":23078:23079   */\n      0x00\n        /* \"#utility.yul\":23074:23080   */\n      not\n        /* \"#utility.yul\":23066:23071   */\n      dup5\n        /* \"#utility.yul\":23063:23064   */\n      0x08\n        /* \"#utility.yul\":23059:23072   */\n      mul\n        /* \"#utility.yul\":23030:23081   */\n      tag_211\n      jump\t// in\n    tag_428:\n        /* \"#utility.yul\":23026:23082   */\n      not\n        /* \"#utility.yul\":23111:23115   */\n      dup1\n        /* \"#utility.yul\":23105:23109   */\n      dup4\n        /* \"#utility.yul\":23101:23116   */\n      and\n        /* \"#utility.yul\":23091:23116   */\n      swap2\n      pop\n        /* \"#utility.yul\":23004:23122   */\n      pop\n        /* \"#utility.yul\":22953:23122   */\n      swap3\n      swap2\n      pop\n      pop\n      jump\t// out\n        /* \"#utility.yul\":23127:23422   */\n    tag_213:\n        /* \"#utility.yul\":23203:23207   */\n      0x00\n        /* \"#utility.yul\":23349:23378   */\n      tag_430\n        /* \"#utility.yul\":23374:23377   */\n      dup4\n        /* \"#utility.yul\":23368:23372   */\n      dup4\n        /* \"#utility.yul\":23349:23378   */\n      tag_212\n      jump\t// in\n    tag_430:\n        /* \"#utility.yul\":23341:23378   */\n      swap2\n      pop\n        /* \"#utility.yul\":23411:23414   */\n      dup3\n        /* \"#utility.yul\":23408:23409   */\n      0x02\n        /* \"#utility.yul\":23404:23415   */\n      mul\n        /* \"#utility.yul\":23398:23402   */\n      dup3\n        /* \"#utility.yul\":23395:23416   */\n      or\n        /* \"#utility.yul\":23387:23416   */\n      swap1\n      pop\n        /* \"#utility.yul\":23127:23422   */\n      swap3\n      swap2\n      pop\n      pop\n      jump\t// out\n        /* \"#utility.yul\":23427:24822   */\n    tag_141:\n        /* \"#utility.yul\":23544:23581   */\n      tag_432\n        /* \"#utility.yul\":23577:23580   */\n      dup3\n        /* \"#utility.yul\":23544:23581   */\n      tag_170\n      jump\t// in\n    tag_432:\n        /* \"#utility.yul\":23646:23664   */\n      0xffffffffffffffff\n        /* \"#utility.yul\":23638:23644   */\n      dup2\n        /* \"#utility.yul\":23635:23665   */\n      gt\n        /* \"#utility.yul\":23632:23688   */\n      iszero\n      tag_433\n      jumpi\n        /* \"#utility.yul\":23668:23686   */\n      tag_434\n      tag_198\n      jump\t// in\n    tag_434:\n        /* \"#utility.yul\":23632:23688   */\n    tag_433:\n        /* \"#utility.yul\":23712:23750   */\n      tag_435\n        /* \"#utility.yul\":23744:23748   */\n      dup3\n        /* \"#utility.yul\":23738:23749   */\n      sload\n        /* \"#utility.yul\":23712:23750   */\n      tag_103\n      jump\t// in\n    tag_435:\n        /* \"#utility.yul\":23797:23864   */\n      tag_436\n        /* \"#utility.yul\":23857:23863   */\n      dup3\n        /* \"#utility.yul\":23849:23855   */\n      dup3\n        /* \"#utility.yul\":23843:23847   */\n      dup6\n        /* \"#utility.yul\":23797:23864   */\n      tag_210\n      jump\t// in\n    tag_436:\n        /* \"#utility.yul\":23891:23892   */\n      0x00\n        /* \"#utility.yul\":23915:23919   */\n      0x20\n        /* \"#utility.yul\":23902:23919   */\n      swap1\n      pop\n        /* \"#utility.yul\":23947:23949   */\n      0x1f\n        /* \"#utility.yul\":23939:23945   */\n      dup4\n        /* \"#utility.yul\":23936:23950   */\n      gt\n        /* \"#utility.yul\":23964:23965   */\n      0x01\n        /* \"#utility.yul\":23959:24577   */\n      dup2\n      eq\n      tag_438\n      jumpi\n        /* \"#utility.yul\":24621:24622   */\n      0x00\n        /* \"#utility.yul\":24638:24644   */\n      dup5\n        /* \"#utility.yul\":24635:24712   */\n      iszero\n      tag_439\n      jumpi\n        /* \"#utility.yul\":24687:24696   */\n      dup3\n        /* \"#utility.yul\":24682:24685   */\n      dup8\n        /* \"#utility.yul\":24678:24697   */\n      add\n        /* \"#utility.yul\":24672:24698   */\n      mload\n        /* \"#utility.yul\":24663:24698   */\n      swap1\n      pop\n        /* \"#utility.yul\":24635:24712   */\n    tag_439:\n        /* \"#utility.yul\":24738:24805   */\n      tag_440\n        /* \"#utility.yul\":24798:24804   */\n      dup6\n        /* \"#utility.yul\":24791:24796   */\n      dup3\n        /* \"#utility.yul\":24738:24805   */\n      tag_213\n      jump\t// in\n    tag_440:\n        /* \"#utility.yul\":24732:24736   */\n      dup7\n        /* \"#utility.yul\":24725:24806   */\n      sstore\n        /* \"#utility.yul\":24594:24816   */\n      pop\n        /* \"#utility.yul\":23929:24816   */\n      jump(tag_437)\n        /* \"#utility.yul\":23959:24577   */\n    tag_438:\n        /* \"#utility.yul\":24011:24015   */\n      0x1f\n        /* \"#utility.yul\":24007:24016   */\n      not\n        /* \"#utility.yul\":23999:24005   */\n      dup5\n        /* \"#utility.yul\":23995:24017   */\n      and\n        /* \"#utility.yul\":24045:24082   */\n      tag_441\n        /* \"#utility.yul\":24077:24081   */\n      dup7\n        /* \"#utility.yul\":24045:24082   */\n      tag_199\n      jump\t// in\n    tag_441:\n        /* \"#utility.yul\":24104:24105   */\n      0x00\n        /* \"#utility.yul\":24118:24326   */\n    tag_442:\n        /* \"#utility.yul\":24132:24139   */\n      dup3\n        /* \"#utility.yul\":24129:24130   */\n      dup2\n        /* \"#utility.yul\":24126:24140   */\n      lt\n        /* \"#utility.yul\":24118:24326   */\n      iszero\n      tag_444\n      jumpi\n        /* \"#utility.yul\":24211:24220   */\n      dup5\n        /* \"#utility.yul\":24206:24209   */\n      dup10\n        /* \"#utility.yul\":24202:24221   */\n      add\n        /* \"#utility.yul\":24196:24222   */\n      mload\n        /* \"#utility.yul\":24188:24194   */\n      dup3\n        /* \"#utility.yul\":24181:24223   */\n      sstore\n        /* \"#utility.yul\":24262:24263   */\n      0x01\n        /* \"#utility.yul\":24254:24260   */\n      dup3\n        /* \"#utility.yul\":24250:24264   */\n      add\n        /* \"#utility.yul\":24240:24264   */\n      swap2\n      pop\n        /* \"#utility.yul\":24309:24311   */\n      0x20\n        /* \"#utility.yul\":24298:24307   */\n      dup6\n        /* \"#utility.yul\":24294:24312   */\n      add\n        /* \"#utility.yul\":24281:24312   */\n      swap5\n      pop\n        /* \"#utility.yul\":24155:24159   */\n      0x20\n        /* \"#utility.yul\":24152:24153   */\n      dup2\n        /* \"#utility.yul\":24148:24160   */\n      add\n        /* \"#utility.yul\":24143:24160   */\n      swap1\n      pop\n        /* \"#utility.yul\":24118:24326   */\n      jump(tag_442)\n    tag_444:\n        /* \"#utility.yul\":24354:24360   */\n      dup7\n        /* \"#utility.yul\":24345:24352   */\n      dup4\n        /* \"#utility.yul\":24342:24361   */\n      lt\n        /* \"#utility.yul\":24339:24518   */\n      iszero\n      tag_445\n      jumpi\n        /* \"#utility.yul\":24412:24421   */\n      dup5\n        /* \"#utility.yul\":24407:24410   */\n      dup10\n        /* \"#utility.yul\":24403:24422   */\n      add\n        /* \"#utility.yul\":24397:24423   */\n      mload\n        /* \"#utility.yul\":24455:24503   */\n      tag_446\n        /* \"#utility.yul\":24497:24501   */\n      0x1f\n        /* \"#utility.yul\":24489:24495   */\n      dup10\n        /* \"#utility.yul\":24485:24502   */\n      and\n        /* \"#utility.yul\":24474:24483   */\n      dup3\n        /* \"#utility.yul\":24455:24503   */\n      tag_212\n      jump\t// in\n    tag_446:\n        /* \"#utility.yul\":24447:24453   */\n      dup4\n        /* \"#utility.yul\":24440:24504   */\n      sstore\n        /* \"#utility.yul\":24362:24518   */\n      pop\n        /* \"#utility.yul\":24339:24518   */\n    tag_445:\n        /* \"#utility.yul\":24564:24565   */\n      0x01\n        /* \"#utility.yul\":24560:24561   */\n      0x02\n        /* \"#utility.yul\":24552:24558   */\n      dup9\n        /* \"#utility.yul\":24548:24562   */\n      mul\n        /* \"#utility.yul\":24544:24566   */\n      add\n        /* \"#utility.yul\":24538:24542   */\n      dup9\n        /* \"#utility.yul\":24531:24567   */\n      sstore\n        /* \"#utility.yul\":23966:24577   */\n      pop\n      pop\n      pop\n        /* \"#utility.yul\":23929:24816   */\n    tag_437:\n      pop\n        /* \"#utility.yul\":23519:24822   */\n      pop\n      pop\n      pop\n        /* \"#utility.yul\":23427:24822   */\n      pop\n      pop\n      jump\t// out\n        /* \"#utility.yul\":24828:24976   */\n    tag_214:\n        /* \"#utility.yul\":24926:24932   */\n      dup3\n        /* \"#utility.yul\":24921:24924   */\n      dup2\n        /* \"#utility.yul\":24916:24919   */\n      dup4\n        /* \"#utility.yul\":24903:24933   */\n      calldatacopy\n        /* \"#utility.yul\":24967:24968   */\n      0x00\n        /* \"#utility.yul\":24958:24964   */\n      dup4\n        /* \"#utility.yul\":24953:24956   */\n      dup4\n        /* \"#utility.yul\":24949:24965   */\n      add\n        /* \"#utility.yul\":24942:24969   */\n      mstore\n        /* \"#utility.yul\":24828:24976   */\n      pop\n      pop\n      pop\n      jump\t// out\n        /* \"#utility.yul\":25006:25323   */\n    tag_215:\n        /* \"#utility.yul\":25104:25107   */\n      0x00\n        /* \"#utility.yul\":25125:25196   */\n      tag_449\n        /* \"#utility.yul\":25189:25195   */\n      dup4\n        /* \"#utility.yul\":25184:25187   */\n      dup6\n        /* \"#utility.yul\":25125:25196   */\n      tag_171\n      jump\t// in\n    tag_449:\n        /* \"#utility.yul\":25118:25196   */\n      swap4\n      pop\n        /* \"#utility.yul\":25206:25262   */\n      tag_450\n        /* \"#utility.yul\":25255:25261   */\n      dup4\n        /* \"#utility.yul\":25250:25253   */\n      dup6\n        /* \"#utility.yul\":25243:25248   */\n      dup5\n        /* \"#utility.yul\":25206:25262   */\n      tag_214\n      jump\t// in\n    tag_450:\n        /* \"#utility.yul\":25287:25316   */\n      tag_451\n        /* \"#utility.yul\":25309:25315   */\n      dup4\n        /* \"#utility.yul\":25287:25316   */\n      tag_173\n      jump\t// in\n    tag_451:\n        /* \"#utility.yul\":25282:25285   */\n      dup5\n        /* \"#utility.yul\":25278:25317   */\n      add\n        /* \"#utility.yul\":25271:25317   */\n      swap1\n      pop\n        /* \"#utility.yul\":25006:25323   */\n      swap4\n      swap3\n      pop\n      pop\n      pop\n      jump\t// out\n        /* \"#utility.yul\":25329:25662   */\n    tag_147:\n        /* \"#utility.yul\":25452:25456   */\n      0x00\n        /* \"#utility.yul\":25490:25492   */\n      0x20\n        /* \"#utility.yul\":25479:25488   */\n      dup3\n        /* \"#utility.yul\":25475:25493   */\n      add\n        /* \"#utility.yul\":25467:25493   */\n      swap1\n      pop\n        /* \"#utility.yul\":25539:25548   */\n      dup2\n        /* \"#utility.yul\":25533:25537   */\n      dup2\n        /* \"#utility.yul\":25529:25549   */\n      sub\n        /* \"#utility.yul\":25525:25526   */\n      0x00\n        /* \"#utility.yul\":25514:25523   */\n      dup4\n        /* \"#utility.yul\":25510:25527   */\n      add\n        /* \"#utility.yul\":25503:25550   */\n      mstore\n        /* \"#utility.yul\":25567:25655   */\n      tag_453\n        /* \"#utility.yul\":25650:25654   */\n      dup2\n        /* \"#utility.yul\":25641:25647   */\n      dup5\n        /* \"#utility.yul\":25633:25639   */\n      dup7\n        /* \"#utility.yul\":25567:25655   */\n      tag_215\n      jump\t// in\n    tag_453:\n        /* \"#utility.yul\":25559:25655   */\n      swap1\n      pop\n        /* \"#utility.yul\":25329:25662   */\n      swap4\n      swap3\n      pop\n      pop\n      pop\n      jump\t// out\n\n    auxdata: 0xa26469706673582212206bcba21c1442264f1429e21c16d0b9328505c98a31d675cbf99425966608405464736f6c634300081e0033\n}\n",
				"bytecode": {
					"linkReferences": {},
					"object": "608060405260016003553480156013575f5ffd5b50335f5f6101000a81548173ffffffffffffffffffffffffffffffffffffffff021916908373ffffffffffffffffffffffffffffffffffffffff160217905550612152806100605f395ff3fe608060405234801561000f575f5ffd5b50600436106100a7575f3560e01c80638e21e5791161006f5780638e21e579146101665780638f9c79ed14610184578063996440c6146101b4578063c8154e0d146101e4578063d3e2034d14610200578063f851a44014610230576100a7565b8063039801ce146100ab5780631388c519146100c7578063366d4675146100e3578063699ca998146101135780636f16af101461012f575b5f5ffd5b6100c560048036038101906100c091906114ee565b61024e565b005b6100e160048036038101906100dc919061153e565b6104e9565b005b6100fd60048036038101906100f8919061153e565b610709565b60405161010a9190611629565b60405180910390f35b61012d6004803603810190610128919061153e565b610827565b005b61014960048036038101906101449190611673565b610a48565b60405161015d98979695949392919061172c565b60405180910390f35b61016e610df8565b60405161017b91906117c4565b60405180910390f35b61019e6004803603810190610199919061153e565b610dfe565b6040516101ab91906117ec565b60405180910390f35b6101ce60048036038101906101c9919061153e565b610e1b565b6040516101db91906117ec565b60405180910390f35b6101fe60048036038101906101f99190611866565b610e38565b005b61021a60048036038101906102159190611970565b611409565b60405161022791906117ec565b60405180910390f35b610238611433565b60405161024591906119ae565b60405180910390f35b5f5f9054906101000a900473ffffffffffffffffffffffffffffffffffffffff1673ffffffffffffffffffffffffffffffffffffffff163373ffffffffffffffffffffffffffffffffffffffff16146102dc576040517f08c379a00000000000000000000000000000000000000000000000000000000081526004016102d390611a37565b60405180910390fd5b8260015f8273ffffffffffffffffffffffffffffffffffffffff1673ffffffffffffffffffffffffffffffffffffffff1681526020019081526020015f205f9054906101000a900460ff16610366576040517f08c379a000000000000000000000000000000000000000000000000000000000815260040161035d90611a9f565b60405180910390fd5b60025f8473ffffffffffffffffffffffffffffffffffffffff1673ffffffffffffffffffffffffffffffffffffffff1681526020019081526020015f205f9054906101000a900460ff166103ef576040517f08c379a00000000000000000000000000000000000000000000000000000000081526004016103e690611b07565b60405180910390fd5b8160065f8673ffffffffffffffffffffffffffffffffffffffff1673ffffffffffffffffffffffffffffffffffffffff1681526020019081526020015f205f8573ffffffffffffffffffffffffffffffffffffffff1673ffffffffffffffffffffffffffffffffffffffff1681526020019081526020015f205f6101000a81548160ff0219169083151502179055508273ffffffffffffffffffffffffffffffffffffffff168473ffffffffffffffffffffffffffffffffffffffff167f833a8c184ec07bf938dc27595f1302167abdf9f957ee775fa12ae55ae701a2e3846040516104db91906117ec565b60405180910390a350505050565b5f5f9054906101000a900473ffffffffffffffffffffffffffffffffffffffff1673ffffffffffffffffffffffffffffffffffffffff163373ffffffffffffffffffffffffffffffffffffffff1614610577576040517f08c379a000000000000000000000000000000000000000000000000000000000815260040161056e90611a37565b60405180910390fd5b5f73ffffffffffffffffffffffffffffffffffffffff168173ffffffffffffffffffffffffffffffffffffffff16036105e5576040517f08c379a00000000000000000000000000000000000000000000000000000000081526004016105dc90611b6f565b60405180910390fd5b60015f8273ffffffffffffffffffffffffffffffffffffffff1673ffffffffffffffffffffffffffffffffffffffff1681526020019081526020015f205f9054906101000a900460ff161561066f576040517f08c379a000000000000000000000000000000000000000000000000000000000815260040161066690611bd7565b60405180910390fd5b6001805f8373ffffffffffffffffffffffffffffffffffffffff1673ffffffffffffffffffffffffffffffffffffffff1681526020019081526020015f205f6101000a81548160ff0219169083151502179055508073ffffffffffffffffffffffffffffffffffffffff167fc9fa2003fca4ce0dfc8cb0deae32266b715536df6685365b05b5be96ede8e49c60405160405180910390a250565b60608160015f8273ffffffffffffffffffffffffffffffffffffffff1673ffffffffffffffffffffffffffffffffffffffff1681526020019081526020015f205f9054906101000a900460ff16610795576040517f08c379a000000000000000000000000000000000000000000000000000000000815260040161078c90611a9f565b60405180910390fd5b60055f8473ffffffffffffffffffffffffffffffffffffffff1673ffffffffffffffffffffffffffffffffffffffff1681526020019081526020015f2080548060200260200160405190810160405280929190818152602001828054801561081a57602002820191905f5260205f20905b815481526020019060010190808311610806575b5050505050915050919050565b5f5f9054906101000a900473ffffffffffffffffffffffffffffffffffffffff1673ffffffffffffffffffffffffffffffffffffffff163373ffffffffffffffffffffffffffffffffffffffff16146108b5576040517f08c379a00000000000000000000000000000000000000000000000000000000081526004016108ac90611a37565b60405180910390fd5b5f73ffffffffffffffffffffffffffffffffffffffff168173ffffffffffffffffffffffffffffffffffffffff1603610923576040517f08c379a000000000000000000000000000000000000000000000000000000000815260040161091a90611b6f565b60405180910390fd5b60025f8273ffffffffffffffffffffffffffffffffffffffff1673ffffffffffffffffffffffffffffffffffffffff1681526020019081526020015f205f9054906101000a900460ff16156109ad576040517f08c379a00000000000000000000000000000000000000000000000000000000081526004016109a490611c3f565b60405180910390fd5b600160025f8373ffffffffffffffffffffffffffffffffffffffff1673ffffffffffffffffffffffffffffffffffffffff1681526020019081526020015f205f6101000a81548160ff0219169083151502179055508073ffffffffffffffffffffffffffffffffffffffff167f2dc8105a7545248d0e354c4c6b02fb583071cc719fb4bef1ca74d72d475570bc60405160405180910390a250565b5f5f5f60608060605f60605f60045f8b81526020019081526020015f20604051806101000160405290815f8201548152602001600182015f9054906101000a900473ffffffffffffffffffffffffffffffffffffffff1673ffffffffffffffffffffffffffffffffffffffff1673ffffffffffffffffffffffffffffffffffffffff168152602001600282015f9054906101000a900473ffffffffffffffffffffffffffffffffffffffff1673ffffffffffffffffffffffffffffffffffffffff1673ffffffffffffffffffffffffffffffffffffffff168152602001600382018054610b3490611c8a565b80601f0160208091040260200160405190810160405280929190818152602001828054610b6090611c8a565b8015610bab5780601f10610b8257610100808354040283529160200191610bab565b820191905f5260205f20905b815481529060010190602001808311610b8e57829003601f168201915b50505050508152602001600482018054610bc490611c8a565b80601f0160208091040260200160405190810160405280929190818152602001828054610bf090611c8a565b8015610c3b5780601f10610c1257610100808354040283529160200191610c3b565b820191905f5260205f20905b815481529060010190602001808311610c1e57829003601f168201915b50505050508152602001600582018054610c5490611c8a565b80601f0160208091040260200160405190810160405280929190818152602001828054610c8090611c8a565b8015610ccb5780601f10610ca257610100808354040283529160200191610ccb565b820191905f5260205f20905b815481529060010190602001808311610cae57829003601f168201915b5050505050815260200160068201548152602001600782018054610cee90611c8a565b80601f0160208091040260200160405190810160405280929190818152602001828054610d1a90611c8a565b8015610d655780601f10610d3c57610100808354040283529160200191610d65565b820191905f5260205f20905b815481529060010190602001808311610d4857829003601f168201915b50505050508152505090505f815f015103610db5576040517f08c379a0000000000000000000000000000000000000000000000000000000008152600401610dac90611d04565b60405180910390fd5b805f015181602001518260400151836060015184608001518560a001518660c001518760e001519850985098509850985098509850985050919395975091939597565b60035481565b6001602052805f5260405f205f915054906101000a900460ff1681565b6002602052805f5260405f205f915054906101000a900460ff1681565b5f5f9054906101000a900473ffffffffffffffffffffffffffffffffffffffff1673ffffffffffffffffffffffffffffffffffffffff163373ffffffffffffffffffffffffffffffffffffffff1614610ec6576040517f08c379a0000000000000000000000000000000000000000000000000000000008152600401610ebd90611a37565b60405180910390fd5b8860015f8273ffffffffffffffffffffffffffffffffffffffff1673ffffffffffffffffffffffffffffffffffffffff1681526020019081526020015f205f9054906101000a900460ff16610f50576040517f08c379a0000000000000000000000000000000000000000000000000000000008152600401610f4790611a9f565b60405180910390fd5b60025f8c73ffffffffffffffffffffffffffffffffffffffff1673ffffffffffffffffffffffffffffffffffffffff1681526020019081526020015f205f9054906101000a900460ff16610fd9576040517f08c379a0000000000000000000000000000000000000000000000000000000008152600401610fd090611b07565b60405180910390fd5b60065f8b73ffffffffffffffffffffffffffffffffffffffff1673ffffffffffffffffffffffffffffffffffffffff1681526020019081526020015f205f8c73ffffffffffffffffffffffffffffffffffffffff1673ffffffffffffffffffffffffffffffffffffffff1681526020019081526020015f205f9054906101000a900460ff1661109d576040517f08c379a000000000000000000000000000000000000000000000000000000000815260040161109490611d92565b60405180910390fd5b5f60035f8154809291906110b090611ddd565b9190505590506040518061010001604052808281526020018c73ffffffffffffffffffffffffffffffffffffffff1681526020018d73ffffffffffffffffffffffffffffffffffffffff1681526020018b8b8080601f0160208091040260200160405190810160405280939291908181526020018383808284375f81840152601f19601f82011690508083019250505050505050815260200189898080601f0160208091040260200160405190810160405280939291908181526020018383808284375f81840152601f19601f82011690508083019250505050505050815260200187878080601f0160208091040260200160405190810160405280939291908181526020018383808284375f81840152601f19601f82011690508083019250505050505050815260200142815260200185858080601f0160208091040260200160405190810160405280939291908181526020018383808284375f81840152601f19601f8201169050808301925050505050505081525060045f8381526020019081526020015f205f820151815f01556020820151816001015f6101000a81548173ffffffffffffffffffffffffffffffffffffffff021916908373ffffffffffffffffffffffffffffffffffffffff1602179055506040820151816002015f6101000a81548173ffffffffffffffffffffffffffffffffffffffff021916908373ffffffffffffffffffffffffffffffffffffffff16021790555060608201518160030190816112e29190611ff1565b5060808201518160040190816112f89190611ff1565b5060a082015181600501908161130e9190611ff1565b5060c0820151816006015560e082015181600701908161132e9190611ff1565b5090505060055f8c73ffffffffffffffffffffffffffffffffffffffff1673ffffffffffffffffffffffffffffffffffffffff1681526020019081526020015f2081908060018154018082558091505060019003905f5260205f20015f90919091909150558b73ffffffffffffffffffffffffffffffffffffffff168b73ffffffffffffffffffffffffffffffffffffffff16827f435273682f19c830bb3fd3d1ed1aefb672214b65429f7d507afa24c6f9f18ad58d8d6040516113f39291906120fa565b60405180910390a4505050505050505050505050565b6006602052815f5260405f20602052805f5260405f205f915091509054906101000a900460ff1681565b5f5f9054906101000a900473ffffffffffffffffffffffffffffffffffffffff1681565b5f5ffd5b5f5ffd5b5f73ffffffffffffffffffffffffffffffffffffffff82169050919050565b5f6114888261145f565b9050919050565b6114988161147e565b81146114a2575f5ffd5b50565b5f813590506114b38161148f565b92915050565b5f8115159050919050565b6114cd816114b9565b81146114d7575f5ffd5b50565b5f813590506114e8816114c4565b92915050565b5f5f5f6060848603121561150557611504611457565b5b5f611512868287016114a5565b9350506020611523868287016114a5565b9250506040611534868287016114da565b9150509250925092565b5f6020828403121561155357611552611457565b5b5f611560848285016114a5565b91505092915050565b5f81519050919050565b5f82825260208201905092915050565b5f819050602082019050919050565b5f819050919050565b6115a481611592565b82525050565b5f6115b5838361159b565b60208301905092915050565b5f602082019050919050565b5f6115d782611569565b6115e18185611573565b93506115ec83611583565b805f5b8381101561161c57815161160388826115aa565b975061160e836115c1565b9250506001810190506115ef565b5085935050505092915050565b5f6020820190508181035f83015261164181846115cd565b905092915050565b61165281611592565b811461165c575f5ffd5b50565b5f8135905061166d81611649565b92915050565b5f6020828403121561168857611687611457565b5b5f6116958482850161165f565b91505092915050565b6116a781611592565b82525050565b6116b68161147e565b82525050565b5f81519050919050565b5f82825260208201905092915050565b8281835e5f83830152505050565b5f601f19601f8301169050919050565b5f6116fe826116bc565b61170881856116c6565b93506117188185602086016116d6565b611721816116e4565b840191505092915050565b5f610100820190506117405f83018b61169e565b61174d602083018a6116ad565b61175a60408301896116ad565b818103606083015261176c81886116f4565b9050818103608083015261178081876116f4565b905081810360a083015261179481866116f4565b90506117a360c083018561169e565b81810360e08301526117b581846116f4565b90509998505050505050505050565b5f6020820190506117d75f83018461169e565b92915050565b6117e6816114b9565b82525050565b5f6020820190506117ff5f8301846117dd565b92915050565b5f5ffd5b5f5ffd5b5f5ffd5b5f5f83601f84011261182657611825611805565b5b8235905067ffffffffffffffff81111561184357611842611809565b5b60208301915083600182028301111561185f5761185e61180d565b5b9250929050565b5f5f5f5f5f5f5f5f5f5f60c08b8d03121561188457611883611457565b5b5f6118918d828e016114a5565b9a505060206118a28d828e016114a5565b99505060408b013567ffffffffffffffff8111156118c3576118c261145b565b5b6118cf8d828e01611811565b985098505060608b013567ffffffffffffffff8111156118f2576118f161145b565b5b6118fe8d828e01611811565b965096505060808b013567ffffffffffffffff8111156119215761192061145b565b5b61192d8d828e01611811565b945094505060a08b013567ffffffffffffffff8111156119505761194f61145b565b5b61195c8d828e01611811565b92509250509295989b9194979a5092959850565b5f5f6040838503121561198657611985611457565b5b5f611993858286016114a5565b92505060206119a4858286016114a5565b9150509250929050565b5f6020820190506119c15f8301846116ad565b92915050565b7f4f6e6c792061646d696e2063616e2063616c6c20746869732066756e6374696f5f8201527f6e00000000000000000000000000000000000000000000000000000000000000602082015250565b5f611a216021836116c6565b9150611a2c826119c7565b604082019050919050565b5f6020820190508181035f830152611a4e81611a15565b9050919050565b7f50617469656e74206973206e6f742072656769737465726564000000000000005f82015250565b5f611a896019836116c6565b9150611a9482611a55565b602082019050919050565b5f6020820190508181035f830152611ab681611a7d565b9050919050565b7f446f63746f72206e6f74207265676973746572656400000000000000000000005f82015250565b5f611af16015836116c6565b9150611afc82611abd565b602082019050919050565b5f6020820190508181035f830152611b1e81611ae5565b9050919050565b7f496e76616c69642077616c6c65740000000000000000000000000000000000005f82015250565b5f611b59600e836116c6565b9150611b6482611b25565b602082019050919050565b5f6020820190508181035f830152611b8681611b4d565b9050919050565b7f50617469656e7420616c726561647920726567697374657265640000000000005f82015250565b5f611bc1601a836116c6565b9150611bcc82611b8d565b602082019050919050565b5f6020820190508181035f830152611bee81611bb5565b9050919050565b7f446f63746f7220616c72656164792072656769737465726564000000000000005f82015250565b5f611c296019836116c6565b9150611c3482611bf5565b602082019050919050565b5f6020820190508181035f830152611c5681611c1d565b9050919050565b7f4e487b71000000000000000000000000000000000000000000000000000000005f52602260045260245ffd5b5f6002820490506001821680611ca157607f821691505b602082108103611cb457611cb3611c5d565b5b50919050565b7f507265736372697074696f6e20646f6573206e6f7420657869737400000000005f82015250565b5f611cee601b836116c6565b9150611cf982611cba565b602082019050919050565b5f6020820190508181035f830152611d1b81611ce2565b9050919050565b7f446f63746f7220686173206e6f2061636365737320746f2074686973207061745f8201527f69656e7400000000000000000000000000000000000000000000000000000000602082015250565b5f611d7c6024836116c6565b9150611d8782611d22565b604082019050919050565b5f6020820190508181035f830152611da981611d70565b9050919050565b7f4e487b71000000000000000000000000000000000000000000000000000000005f52601160045260245ffd5b5f611de782611592565b91507fffffffffffffffffffffffffffffffffffffffffffffffffffffffffffffffff8203611e1957611e18611db0565b5b600182019050919050565b7f4e487b71000000000000000000000000000000000000000000000000000000005f52604160045260245ffd5b5f819050815f5260205f209050919050565b5f6020601f8301049050919050565b5f82821b905092915050565b5f60088302611ead7fffffffffffffffffffffffffffffffffffffffffffffffffffffffffffffffff82611e72565b611eb78683611e72565b95508019841693508086168417925050509392505050565b5f819050919050565b5f611ef2611eed611ee884611592565b611ecf565b611592565b9050919050565b5f819050919050565b611f0b83611ed8565b611f1f611f1782611ef9565b848454611e7e565b825550505050565b5f5f905090565b611f36611f27565b611f41818484611f02565b505050565b5b81811015611f6457611f595f82611f2e565b600181019050611f47565b5050565b601f821115611fa957611f7a81611e51565b611f8384611e63565b81016020851015611f92578190505b611fa6611f9e85611e63565b830182611f46565b50505b505050565b5f82821c905092915050565b5f611fc95f1984600802611fae565b1980831691505092915050565b5f611fe18383611fba565b9150826002028217905092915050565b611ffa826116bc565b67ffffffffffffffff81111561201357612012611e24565b5b61201d8254611c8a565b612028828285611f68565b5f60209050601f831160018114612059575f8415612047578287015190505b6120518582611fd6565b8655506120b8565b601f19841661206786611e51565b5f5b8281101561208e57848901518255600182019150602085019450602081019050612069565b868310156120ab57848901516120a7601f891682611fba565b8355505b6001600288020188555050505b505050505050565b828183375f83830152505050565b5f6120d983856116c6565b93506120e68385846120c0565b6120ef836116e4565b840190509392505050565b5f6020820190508181035f8301526121138184866120ce565b9050939250505056fea26469706673582212206bcba21c1442264f1429e21c16d0b9328505c98a31d675cbf99425966608405464736f6c634300081e0033",
					"opcodes": "PUSH1 0x80 PUSH1 0x40 MSTORE PUSH1 0x1 PUSH1 0x3 SSTORE CALLVALUE DUP1 ISZERO PUSH1 0x13 JUMPI PUSH0 PUSH0 REVERT JUMPDEST POP CALLER PUSH0 PUSH0 PUSH2 0x100 EXP DUP2 SLOAD DUP2 PUSH20 0xFFFFFFFFFFFFFFFFFFFFFFFFFFFFFFFFFFFFFFFF MUL NOT AND SWAP1 DUP4 PUSH20 0xFFFFFFFFFFFFFFFFFFFFFFFFFFFFFFFFFFFFFFFF AND MUL OR SWAP1 SSTORE POP PUSH2 0x2152 DUP1 PUSH2 0x60 PUSH0 CODECOPY PUSH0 RETURN INVALID PUSH1 0x80 PUSH1 0x40 MSTORE CALLVALUE DUP1 ISZERO PUSH2 0xF JUMPI PUSH0 PUSH0 REVERT JUMPDEST POP PUSH1 0x4 CALLDATASIZE LT PUSH2 0xA7 JUMPI PUSH0 CALLDATALOAD PUSH1 0xE0 SHR DUP1 PUSH4 0x8E21E579 GT PUSH2 0x6F JUMPI DUP1 PUSH4 0x8E21E579 EQ PUSH2 0x166 JUMPI DUP1 PUSH4 0x8F9C79ED EQ PUSH2 0x184 JUMPI DUP1 PUSH4 0x996440C6 EQ PUSH2 0x1B4 JUMPI DUP1 PUSH4 0xC8154E0D EQ PUSH2 0x1E4 JUMPI DUP1 PUSH4 0xD3E2034D EQ PUSH2 0x200 JUMPI DUP1 PUSH4 0xF851A440 EQ PUSH2 0x230 JUMPI PUSH2 0xA7 JUMP JUMPDEST DUP1 PUSH4 0x39801CE EQ PUSH2 0xAB JUMPI DUP1 PUSH4 0x1388C519 EQ PUSH2 0xC7 JUMPI DUP1 PUSH4 0x366D4675 EQ PUSH2 0xE3 JUMPI DUP1 PUSH4 0x699CA998 EQ PUSH2 0x113 JUMPI DUP1 PUSH4 0x6F16AF10 EQ PUSH2 0x12F JUMPI JUMPDEST PUSH0 PUSH0 REVERT JUMPDEST PUSH2 0xC5 PUSH1 0x4 DUP1 CALLDATASIZE SUB DUP2 ADD SWAP1 PUSH2 0xC0 SWAP2 SWAP1 PUSH2 0x14EE JUMP JUMPDEST PUSH2 0x24E JUMP JUMPDEST STOP JUMPDEST PUSH2 0xE1 PUSH1 0x4 DUP1 CALLDATASIZE SUB DUP2 ADD SWAP1 PUSH2 0xDC SWAP2 SWAP1 PUSH2 0x153E JUMP JUMPDEST PUSH2 0x4E9 JUMP JUMPDEST STOP JUMPDEST PUSH2 0xFD PUSH1 0x4 DUP1 CALLDATASIZE SUB DUP2 ADD SWAP1 PUSH2 0xF8 SWAP2 SWAP1 PUSH2 0x153E JUMP JUMPDEST PUSH2 0x709 JUMP JUMPDEST PUSH1 0x40 MLOAD PUSH2 0x10A SWAP2 SWAP1 PUSH2 0x1629 JUMP JUMPDEST PUSH1 0x40 MLOAD DUP1 SWAP2 SUB SWAP1 RETURN JUMPDEST PUSH2 0x12D PUSH1 0x4 DUP1 CALLDATASIZE SUB DUP2 ADD SWAP1 PUSH2 0x128 SWAP2 SWAP1 PUSH2 0x153E JUMP JUMPDEST PUSH2 0x827 JUMP JUMPDEST STOP JUMPDEST PUSH2 0x149 PUSH1 0x4 DUP1 CALLDATASIZE SUB DUP2 ADD SWAP1 PUSH2 0x144 SWAP2 SWAP1 PUSH2 0x1673 JUMP JUMPDEST PUSH2 0xA48 JUMP JUMPDEST PUSH1 0x40 MLOAD PUSH2 0x15D SWAP9 SWAP8 SWAP7 SWAP6 SWAP5 SWAP4 SWAP3 SWAP2 SWAP1 PUSH2 0x172C JUMP JUMPDEST PUSH1 0x40 MLOAD DUP1 SWAP2 SUB SWAP1 RETURN JUMPDEST PUSH2 0x16E PUSH2 0xDF8 JUMP JUMPDEST PUSH1 0x40 MLOAD PUSH2 0x17B SWAP2 SWAP1 PUSH2 0x17C4 JUMP JUMPDEST PUSH1 0x40 MLOAD DUP1 SWAP2 SUB SWAP1 RETURN JUMPDEST PUSH2 0x19E PUSH1 0x4 DUP1 CALLDATASIZE SUB DUP2 ADD SWAP1 PUSH2 0x199 SWAP2 SWAP1 PUSH2 0x153E JUMP JUMPDEST PUSH2 0xDFE JUMP JUMPDEST PUSH1 0x40 MLOAD PUSH2 0x1AB SWAP2 SWAP1 PUSH2 0x17EC JUMP JUMPDEST PUSH1 0x40 MLOAD DUP1 SWAP2 SUB SWAP1 RETURN JUMPDEST PUSH2 0x1CE PUSH1 0x4 DUP1 CALLDATASIZE SUB DUP2 ADD SWAP1 PUSH2 0x1C9 SWAP2 SWAP1 PUSH2 0x153E JUMP JUMPDEST PUSH2 0xE1B JUMP JUMPDEST PUSH1 0x40 MLOAD PUSH2 0x1DB SWAP2 SWAP1 PUSH2 0x17EC JUMP JUMPDEST PUSH1 0x40 MLOAD DUP1 SWAP2 SUB SWAP1 RETURN JUMPDEST PUSH2 0x1FE PUSH1 0x4 DUP1 CALLDATASIZE SUB DUP2 ADD SWAP1 PUSH2 0x1F9 SWAP2 SWAP1 PUSH2 0x1866 JUMP JUMPDEST PUSH2 0xE38 JUMP JUMPDEST STOP JUMPDEST PUSH2 0x21A PUSH1 0x4 DUP1 CALLDATASIZE SUB DUP2 ADD SWAP1 PUSH2 0x215 SWAP2 SWAP1 PUSH2 0x1970 JUMP JUMPDEST PUSH2 0x1409 JUMP JUMPDEST PUSH1 0x40 MLOAD PUSH2 0x227 SWAP2 SWAP1 PUSH2 0x17EC JUMP JUMPDEST PUSH1 0x40 MLOAD DUP1 SWAP2 SUB SWAP1 RETURN JUMPDEST PUSH2 0x238 PUSH2 0x1433 JUMP JUMPDEST PUSH1 0x40 MLOAD PUSH2 0x245 SWAP2 SWAP1 PUSH2 0x19AE JUMP JUMPDEST PUSH1 0x40 MLOAD DUP1 SWAP2 SUB SWAP1 RETURN JUMPDEST PUSH0 PUSH0 SWAP1 SLOAD SWAP1 PUSH2 0x100 EXP SWAP1 DIV PUSH20 0xFFFFFFFFFFFFFFFFFFFFFFFFFFFFFFFFFFFFFFFF AND PUSH20 0xFFFFFFFFFFFFFFFFFFFFFFFFFFFFFFFFFFFFFFFF AND CALLER PUSH20 0xFFFFFFFFFFFFFFFFFFFFFFFFFFFFFFFFFFFFFFFF AND EQ PUSH2 0x2DC JUMPI PUSH1 0x40 MLOAD PUSH32 0x8C379A000000000000000000000000000000000000000000000000000000000 DUP2 MSTORE PUSH1 0x4 ADD PUSH2 0x2D3 SWAP1 PUSH2 0x1A37 JUMP JUMPDEST PUSH1 0x40 MLOAD DUP1 SWAP2 SUB SWAP1 REVERT JUMPDEST DUP3 PUSH1 0x1 PUSH0 DUP3 PUSH20 0xFFFFFFFFFFFFFFFFFFFFFFFFFFFFFFFFFFFFFFFF AND PUSH20 0xFFFFFFFFFFFFFFFFFFFFFFFFFFFFFFFFFFFFFFFF AND DUP2 MSTORE PUSH1 0x20 ADD SWAP1 DUP2 MSTORE PUSH1 0x20 ADD PUSH0 KECCAK256 PUSH0 SWAP1 SLOAD SWAP1 PUSH2 0x100 EXP SWAP1 DIV PUSH1 0xFF AND PUSH2 0x366 JUMPI PUSH1 0x40 MLOAD PUSH32 0x8C379A000000000000000000000000000000000000000000000000000000000 DUP2 MSTORE PUSH1 0x4 ADD PUSH2 0x35D SWAP1 PUSH2 0x1A9F JUMP JUMPDEST PUSH1 0x40 MLOAD DUP1 SWAP2 SUB SWAP1 REVERT JUMPDEST PUSH1 0x2 PUSH0 DUP5 PUSH20 0xFFFFFFFFFFFFFFFFFFFFFFFFFFFFFFFFFFFFFFFF AND PUSH20 0xFFFFFFFFFFFFFFFFFFFFFFFFFFFFFFFFFFFFFFFF AND DUP2 MSTORE PUSH1 0x20 ADD SWAP1 DUP2 MSTORE PUSH1 0x20 ADD PUSH0 KECCAK256 PUSH0 SWAP1 SLOAD SWAP1 PUSH2 0x100 EXP SWAP1 DIV PUSH1 0xFF AND PUSH2 0x3EF JUMPI PUSH1 0x40 MLOAD PUSH32 0x8C379A000000000000000000000000000000000000000000000000000000000 DUP2 MSTORE PUSH1 0x4 ADD PUSH2 0x3E6 SWAP1 PUSH2 0x1B07 JUMP JUMPDEST PUSH1 0x40 MLOAD DUP1 SWAP2 SUB SWAP1 REVERT JUMPDEST DUP2 PUSH1 0x6 PUSH0 DUP7 PUSH20 0xFFFFFFFFFFFFFFFFFFFFFFFFFFFFFFFFFFFFFFFF AND PUSH20 0xFFFFFFFFFFFFFFFFFFFFFFFFFFFFFFFFFFFFFFFF AND DUP2 MSTORE PUSH1 0x20 ADD SWAP1 DUP2 MSTORE PUSH1 0x20 ADD PUSH0 KECCAK256 PUSH0 DUP6 PUSH20 0xFFFFFFFFFFFFFFFFFFFFFFFFFFFFFFFFFFFFFFFF AND PUSH20 0xFFFFFFFFFFFFFFFFFFFFFFFFFFFFFFFFFFFFFFFF AND DUP2 MSTORE PUSH1 0x20 ADD SWAP1 DUP2 MSTORE PUSH1 0x20 ADD PUSH0 KECCAK256 PUSH0 PUSH2 0x100 EXP DUP2 SLOAD DUP2 PUSH1 0xFF MUL NOT AND SWAP1 DUP4 ISZERO ISZERO MUL OR SWAP1 SSTORE POP DUP3 PUSH20 0xFFFFFFFFFFFFFFFFFFFFFFFFFFFFFFFFFFFFFFFF AND DUP5 PUSH20 0xFFFFFFFFFFFFFFFFFFFFFFFFFFFFFFFFFFFFFFFF AND PUSH32 0x833A8C184EC07BF938DC27595F1302167ABDF9F957EE775FA12AE55AE701A2E3 DUP5 PUSH1 0x40 MLOAD PUSH2 0x4DB SWAP2 SWAP1 PUSH2 0x17EC JUMP JUMPDEST PUSH1 0x40 MLOAD DUP1 SWAP2 SUB SWAP1 LOG3 POP POP POP POP JUMP JUMPDEST PUSH0 PUSH0 SWAP1 SLOAD SWAP1 PUSH2 0x100 EXP SWAP1 DIV PUSH20 0xFFFFFFFFFFFFFFFFFFFFFFFFFFFFFFFFFFFFFFFF AND PUSH20 0xFFFFFFFFFFFFFFFFFFFFFFFFFFFFFFFFFFFFFFFF AND CALLER PUSH20 0xFFFFFFFFFFFFFFFFFFFFFFFFFFFFFFFFFFFFFFFF AND EQ PUSH2 0x577 JUMPI PUSH1 0x40 MLOAD PUSH32 0x8C379A000000000000000000000000000000000000000000000000000000000 DUP2 MSTORE PUSH1 0x4 ADD PUSH2 0x56E SWAP1 PUSH2 0x1A37 JUMP JUMPDEST PUSH1 0x40 MLOAD DUP1 SWAP2 SUB SWAP1 REVERT JUMPDEST PUSH0 PUSH20 0xFFFFFFFFFFFFFFFFFFFFFFFFFFFFFFFFFFFFFFFF AND DUP2 PUSH20 0xFFFFFFFFFFFFFFFFFFFFFFFFFFFFFFFFFFFFFFFF AND SUB PUSH2 0x5E5 JUMPI PUSH1 0x40 MLOAD PUSH32 0x8C379A000000000000000000000000000000000000000000000000000000000 DUP2 MSTORE PUSH1 0x4 ADD PUSH2 0x5DC SWAP1 PUSH2 0x1B6F JUMP JUMPDEST PUSH1 0x40 MLOAD DUP1 SWAP2 SUB SWAP1 REVERT JUMPDEST PUSH1 0x1 PUSH0 DUP3 PUSH20 0xFFFFFFFFFFFFFFFFFFFFFFFFFFFFFFFFFFFFFFFF AND PUSH20 0xFFFFFFFFFFFFFFFFFFFFFFFFFFFFFFFFFFFFFFFF AND DUP2 MSTORE PUSH1 0x20 ADD SWAP1 DUP2 MSTORE PUSH1 0x20 ADD PUSH0 KECCAK256 PUSH0 SWAP1 SLOAD SWAP1 PUSH2 0x100 EXP SWAP1 DIV PUSH1 0xFF AND ISZERO PUSH2 0x66F JUMPI PUSH1 0x40 MLOAD PUSH32 0x8C379A000000000000000000000000000000000000000000000000000000000 DUP2 MSTORE PUSH1 0x4 ADD PUSH2 0x666 SWAP1 PUSH2 0x1BD7 JUMP JUMPDEST PUSH1 0x40 MLOAD DUP1 SWAP2 SUB SWAP1 REVERT JUMPDEST PUSH1 0x1 DUP1 PUSH0 DUP4 PUSH20 0xFFFFFFFFFFFFFFFFFFFFFFFFFFFFFFFFFFFFFFFF AND PUSH20 0xFFFFFFFFFFFFFFFFFFFFFFFFFFFFFFFFFFFFFFFF AND DUP2 MSTORE PUSH1 0x20 ADD SWAP1 DUP2 MSTORE PUSH1 0x20 ADD PUSH0 KECCAK256 PUSH0 PUSH2 0x100 EXP DUP2 SLOAD DUP2 PUSH1 0xFF MUL NOT AND SWAP1 DUP4 ISZERO ISZERO MUL OR SWAP1 SSTORE POP DUP1 PUSH20 0xFFFFFFFFFFFFFFFFFFFFFFFFFFFFFFFFFFFFFFFF AND PUSH32 0xC9FA2003FCA4CE0DFC8CB0DEAE32266B715536DF6685365B05B5BE96EDE8E49C PUSH1 0x40 MLOAD PUSH1 0x40 MLOAD DUP1 SWAP2 SUB SWAP1 LOG2 POP JUMP JUMPDEST PUSH1 0x60 DUP2 PUSH1 0x1 PUSH0 DUP3 PUSH20 0xFFFFFFFFFFFFFFFFFFFFFFFFFFFFFFFFFFFFFFFF AND PUSH20 0xFFFFFFFFFFFFFFFFFFFFFFFFFFFFFFFFFFFFFFFF AND DUP2 MSTORE PUSH1 0x20 ADD SWAP1 DUP2 MSTORE PUSH1 0x20 ADD PUSH0 KECCAK256 PUSH0 SWAP1 SLOAD SWAP1 PUSH2 0x100 EXP SWAP1 DIV PUSH1 0xFF AND PUSH2 0x795 JUMPI PUSH1 0x40 MLOAD PUSH32 0x8C379A000000000000000000000000000000000000000000000000000000000 DUP2 MSTORE PUSH1 0x4 ADD PUSH2 0x78C SWAP1 PUSH2 0x1A9F JUMP JUMPDEST PUSH1 0x40 MLOAD DUP1 SWAP2 SUB SWAP1 REVERT JUMPDEST PUSH1 0x5 PUSH0 DUP5 PUSH20 0xFFFFFFFFFFFFFFFFFFFFFFFFFFFFFFFFFFFFFFFF AND PUSH20 0xFFFFFFFFFFFFFFFFFFFFFFFFFFFFFFFFFFFFFFFF AND DUP2 MSTORE PUSH1 0x20 ADD SWAP1 DUP2 MSTORE PUSH1 0x20 ADD PUSH0 KECCAK256 DUP1 SLOAD DUP1 PUSH1 0x20 MUL PUSH1 0x20 ADD PUSH1 0x40 MLOAD SWAP1 DUP2 ADD PUSH1 0x40 MSTORE DUP1 SWAP3 SWAP2 SWAP1 DUP2 DUP2 MSTORE PUSH1 0x20 ADD DUP3 DUP1 SLOAD DUP1 ISZERO PUSH2 0x81A JUMPI PUSH1 0x20 MUL DUP3 ADD SWAP2 SWAP1 PUSH0 MSTORE PUSH1 0x20 PUSH0 KECCAK256 SWAP1 JUMPDEST DUP2 SLOAD DUP2 MSTORE PUSH1 0x20 ADD SWAP1 PUSH1 0x1 ADD SWAP1 DUP1 DUP4 GT PUSH2 0x806 JUMPI JUMPDEST POP POP POP POP POP SWAP2 POP POP SWAP2 SWAP1 POP JUMP JUMPDEST PUSH0 PUSH0 SWAP1 SLOAD SWAP1 PUSH2 0x100 EXP SWAP1 DIV PUSH20 0xFFFFFFFFFFFFFFFFFFFFFFFFFFFFFFFFFFFFFFFF AND PUSH20 0xFFFFFFFFFFFFFFFFFFFFFFFFFFFFFFFFFFFFFFFF AND CALLER PUSH20 0xFFFFFFFFFFFFFFFFFFFFFFFFFFFFFFFFFFFFFFFF AND EQ PUSH2 0x8B5 JUMPI PUSH1 0x40 MLOAD PUSH32 0x8C379A000000000000000000000000000000000000000000000000000000000 DUP2 MSTORE PUSH1 0x4 ADD PUSH2 0x8AC SWAP1 PUSH2 0x1A37 JUMP JUMPDEST PUSH1 0x40 MLOAD DUP1 SWAP2 SUB SWAP1 REVERT JUMPDEST PUSH0 PUSH20 0xFFFFFFFFFFFFFFFFFFFFFFFFFFFFFFFFFFFFFFFF AND DUP2 PUSH20 0xFFFFFFFFFFFFFFFFFFFFFFFFFFFFFFFFFFFFFFFF AND SUB PUSH2 0x923 JUMPI PUSH1 0x40 MLOAD PUSH32 0x8C379A000000000000000000000000000000000000000000000000000000000 DUP2 MSTORE PUSH1 0x4 ADD PUSH2 0x91A SWAP1 PUSH2 0x1B6F JUMP JUMPDEST PUSH1 0x40 MLOAD DUP1 SWAP2 SUB SWAP1 REVERT JUMPDEST PUSH1 0x2 PUSH0 DUP3 PUSH20 0xFFFFFFFFFFFFFFFFFFFFFFFFFFFFFFFFFFFFFFFF AND PUSH20 0xFFFFFFFFFFFFFFFFFFFFFFFFFFFFFFFFFFFFFFFF AND DUP2 MSTORE PUSH1 0x20 ADD SWAP1 DUP2 MSTORE PUSH1 0x20 ADD PUSH0 KECCAK256 PUSH0 SWAP1 SLOAD SWAP1 PUSH2 0x100 EXP SWAP1 DIV PUSH1 0xFF AND ISZERO PUSH2 0x9AD JUMPI PUSH1 0x40 MLOAD PUSH32 0x8C379A000000000000000000000000000000000000000000000000000000000 DUP2 MSTORE PUSH1 0x4 ADD PUSH2 0x9A4 SWAP1 PUSH2 0x1C3F JUMP JUMPDEST PUSH1 0x40 MLOAD DUP1 SWAP2 SUB SWAP1 REVERT JUMPDEST PUSH1 0x1 PUSH1 0x2 PUSH0 DUP4 PUSH20 0xFFFFFFFFFFFFFFFFFFFFFFFFFFFFFFFFFFFFFFFF AND PUSH20 0xFFFFFFFFFFFFFFFFFFFFFFFFFFFFFFFFFFFFFFFF AND DUP2 MSTORE PUSH1 0x20 ADD SWAP1 DUP2 MSTORE PUSH1 0x20 ADD PUSH0 KECCAK256 PUSH0 PUSH2 0x100 EXP DUP2 SLOAD DUP2 PUSH1 0xFF MUL NOT AND SWAP1 DUP4 ISZERO ISZERO MUL OR SWAP1 SSTORE POP DUP1 PUSH20 0xFFFFFFFFFFFFFFFFFFFFFFFFFFFFFFFFFFFFFFFF AND PUSH32 0x2DC8105A7545248D0E354C4C6B02FB583071CC719FB4BEF1CA74D72D475570BC PUSH1 0x40 MLOAD PUSH1 0x40 MLOAD DUP1 SWAP2 SUB SWAP1 LOG2 POP JUMP JUMPDEST PUSH0 PUSH0 PUSH0 PUSH1 0x60 DUP1 PUSH1 0x60 PUSH0 PUSH1 0x60 PUSH0 PUSH1 0x4 PUSH0 DUP12 DUP2 MSTORE PUSH1 0x20 ADD SWAP1 DUP2 MSTORE PUSH1 0x20 ADD PUSH0 KECCAK256 PUSH1 0x40 MLOAD DUP1 PUSH2 0x100 ADD PUSH1 0x40 MSTORE SWAP1 DUP2 PUSH0 DUP3 ADD SLOAD DUP2 MSTORE PUSH1 0x20 ADD PUSH1 0x1 DUP3 ADD PUSH0 SWAP1 SLOAD SWAP1 PUSH2 0x100 EXP SWAP1 DIV PUSH20 0xFFFFFFFFFFFFFFFFFFFFFFFFFFFFFFFFFFFFFFFF AND PUSH20 0xFFFFFFFFFFFFFFFFFFFFFFFFFFFFFFFFFFFFFFFF AND PUSH20 0xFFFFFFFFFFFFFFFFFFFFFFFFFFFFFFFFFFFFFFFF AND DUP2 MSTORE PUSH1 0x20 ADD PUSH1 0x2 DUP3 ADD PUSH0 SWAP1 SLOAD SWAP1 PUSH2 0x100 EXP SWAP1 DIV PUSH20 0xFFFFFFFFFFFFFFFFFFFFFFFFFFFFFFFFFFFFFFFF AND PUSH20 0xFFFFFFFFFFFFFFFFFFFFFFFFFFFFFFFFFFFFFFFF AND PUSH20 0xFFFFFFFFFFFFFFFFFFFFFFFFFFFFFFFFFFFFFFFF AND DUP2 MSTORE PUSH1 0x20 ADD PUSH1 0x3 DUP3 ADD DUP1 SLOAD PUSH2 0xB34 SWAP1 PUSH2 0x1C8A JUMP JUMPDEST DUP1 PUSH1 0x1F ADD PUSH1 0x20 DUP1 SWAP2 DIV MUL PUSH1 0x20 ADD PUSH1 0x40 MLOAD SWAP1 DUP2 ADD PUSH1 0x40 MSTORE DUP1 SWAP3 SWAP2 SWAP1 DUP2 DUP2 MSTORE PUSH1 0x20 ADD DUP3 DUP1 SLOAD PUSH2 0xB60 SWAP1 PUSH2 0x1C8A JUMP JUMPDEST DUP1 ISZERO PUSH2 0xBAB JUMPI DUP1 PUSH1 0x1F LT PUSH2 0xB82 JUMPI PUSH2 0x100 DUP1 DUP4 SLOAD DIV MUL DUP4 MSTORE SWAP2 PUSH1 0x20 ADD SWAP2 PUSH2 0xBAB JUMP JUMPDEST DUP3 ADD SWAP2 SWAP1 PUSH0 MSTORE PUSH1 0x20 PUSH0 KECCAK256 SWAP1 JUMPDEST DUP2 SLOAD DUP2 MSTORE SWAP1 PUSH1 0x1 ADD SWAP1 PUSH1 0x20 ADD DUP1 DUP4 GT PUSH2 0xB8E JUMPI DUP3 SWAP1 SUB PUSH1 0x1F AND DUP3 ADD SWAP2 JUMPDEST POP POP POP POP POP DUP2 MSTORE PUSH1 0x20 ADD PUSH1 0x4 DUP3 ADD DUP1 SLOAD PUSH2 0xBC4 SWAP1 PUSH2 0x1C8A JUMP JUMPDEST DUP1 PUSH1 0x1F ADD PUSH1 0x20 DUP1 SWAP2 DIV MUL PUSH1 0x20 ADD PUSH1 0x40 MLOAD SWAP1 DUP2 ADD PUSH1 0x40 MSTORE DUP1 SWAP3 SWAP2 SWAP1 DUP2 DUP2 MSTORE PUSH1 0x20 ADD DUP3 DUP1 SLOAD PUSH2 0xBF0 SWAP1 PUSH2 0x1C8A JUMP JUMPDEST DUP1 ISZERO PUSH2 0xC3B JUMPI DUP1 PUSH1 0x1F LT PUSH2 0xC12 JUMPI PUSH2 0x100 DUP1 DUP4 SLOAD DIV MUL DUP4 MSTORE SWAP2 PUSH1 0x20 ADD SWAP2 PUSH2 0xC3B JUMP JUMPDEST DUP3 ADD SWAP2 SWAP1 PUSH0 MSTORE PUSH1 0x20 PUSH0 KECCAK256 SWAP1 JUMPDEST DUP2 SLOAD DUP2 MSTORE SWAP1 PUSH1 0x1 ADD SWAP1 PUSH1 0x20 ADD DUP1 DUP4 GT PUSH2 0xC1E JUMPI DUP3 SWAP1 SUB PUSH1 0x1F AND DUP3 ADD SWAP2 JUMPDEST POP POP POP POP POP DUP2 MSTORE PUSH1 0x20 ADD PUSH1 0x5 DUP3 ADD DUP1 SLOAD PUSH2 0xC54 SWAP1 PUSH2 0x1C8A JUMP JUMPDEST DUP1 PUSH1 0x1F ADD PUSH1 0x20 DUP1 SWAP2 DIV MUL PUSH1 0x20 ADD PUSH1 0x40 MLOAD SWAP1 DUP2 ADD PUSH1 0x40 MSTORE DUP1 SWAP3 SWAP2 SWAP1 DUP2 DUP2 MSTORE PUSH1 0x20 ADD DUP3 DUP1 SLOAD PUSH2 0xC80 SWAP1 PUSH2 0x1C8A JUMP JUMPDEST DUP1 ISZERO PUSH2 0xCCB JUMPI DUP1 PUSH1 0x1F LT PUSH2 0xCA2 JUMPI PUSH2 0x100 DUP1 DUP4 SLOAD DIV MUL DUP4 MSTORE SWAP2 PUSH1 0x20 ADD SWAP2 PUSH2 0xCCB JUMP JUMPDEST DUP3 ADD SWAP2 SWAP1 PUSH0 MSTORE PUSH1 0x20 PUSH0 KECCAK256 SWAP1 JUMPDEST DUP2 SLOAD DUP2 MSTORE SWAP1 PUSH1 0x1 ADD SWAP1 PUSH1 0x20 ADD DUP1 DUP4 GT PUSH2 0xCAE JUMPI DUP3 SWAP1 SUB PUSH1 0x1F AND DUP3 ADD SWAP2 JUMPDEST POP POP POP POP POP DUP2 MSTORE PUSH1 0x20 ADD PUSH1 0x6 DUP3 ADD SLOAD DUP2 MSTORE PUSH1 0x20 ADD PUSH1 0x7 DUP3 ADD DUP1 SLOAD PUSH2 0xCEE SWAP1 PUSH2 0x1C8A JUMP JUMPDEST DUP1 PUSH1 0x1F ADD PUSH1 0x20 DUP1 SWAP2 DIV MUL PUSH1 0x20 ADD PUSH1 0x40 MLOAD SWAP1 DUP2 ADD PUSH1 0x40 MSTORE DUP1 SWAP3 SWAP2 SWAP1 DUP2 DUP2 MSTORE PUSH1 0x20 ADD DUP3 DUP1 SLOAD PUSH2 0xD1A SWAP1 PUSH2 0x1C8A JUMP JUMPDEST DUP1 ISZERO PUSH2 0xD65 JUMPI DUP1 PUSH1 0x1F LT PUSH2 0xD3C JUMPI PUSH2 0x100 DUP1 DUP4 SLOAD DIV MUL DUP4 MSTORE SWAP2 PUSH1 0x20 ADD SWAP2 PUSH2 0xD65 JUMP JUMPDEST DUP3 ADD SWAP2 SWAP1 PUSH0 MSTORE PUSH1 0x20 PUSH0 KECCAK256 SWAP1 JUMPDEST DUP2 SLOAD DUP2 MSTORE SWAP1 PUSH1 0x1 ADD SWAP1 PUSH1 0x20 ADD DUP1 DUP4 GT PUSH2 0xD48 JUMPI DUP3 SWAP1 SUB PUSH1 0x1F AND DUP3 ADD SWAP2 JUMPDEST POP POP POP POP POP DUP2 MSTORE POP POP SWAP1 POP PUSH0 DUP2 PUSH0 ADD MLOAD SUB PUSH2 0xDB5 JUMPI PUSH1 0x40 MLOAD PUSH32 0x8C379A000000000000000000000000000000000000000000000000000000000 DUP2 MSTORE PUSH1 0x4 ADD PUSH2 0xDAC SWAP1 PUSH2 0x1D04 JUMP JUMPDEST PUSH1 0x40 MLOAD DUP1 SWAP2 SUB SWAP1 REVERT JUMPDEST DUP1 PUSH0 ADD MLOAD DUP2 PUSH1 0x20 ADD MLOAD DUP3 PUSH1 0x40 ADD MLOAD DUP4 PUSH1 0x60 ADD MLOAD DUP5 PUSH1 0x80 ADD MLOAD DUP6 PUSH1 0xA0 ADD MLOAD DUP7 PUSH1 0xC0 ADD MLOAD DUP8 PUSH1 0xE0 ADD MLOAD SWAP9 POP SWAP9 POP SWAP9 POP SWAP9 POP SWAP9 POP SWAP9 POP SWAP9 POP SWAP9 POP POP SWAP2 SWAP4 SWAP6 SWAP8 POP SWAP2 SWAP4 SWAP6 SWAP8 JUMP JUMPDEST PUSH1 0x3 SLOAD DUP2 JUMP JUMPDEST PUSH1 0x1 PUSH1 0x20 MSTORE DUP1 PUSH0 MSTORE PUSH1 0x40 PUSH0 KECCAK256 PUSH0 SWAP2 POP SLOAD SWAP1 PUSH2 0x100 EXP SWAP1 DIV PUSH1 0xFF AND DUP2 JUMP JUMPDEST PUSH1 0x2 PUSH1 0x20 MSTORE DUP1 PUSH0 MSTORE PUSH1 0x40 PUSH0 KECCAK256 PUSH0 SWAP2 POP SLOAD SWAP1 PUSH2 0x100 EXP SWAP1 DIV PUSH1 0xFF AND DUP2 JUMP JUMPDEST PUSH0 PUSH0 SWAP1 SLOAD SWAP1 PUSH2 0x100 EXP SWAP1 DIV PUSH20 0xFFFFFFFFFFFFFFFFFFFFFFFFFFFFFFFFFFFFFFFF AND PUSH20 0xFFFFFFFFFFFFFFFFFFFFFFFFFFFFFFFFFFFFFFFF AND CALLER PUSH20 0xFFFFFFFFFFFFFFFFFFFFFFFFFFFFFFFFFFFFFFFF AND EQ PUSH2 0xEC6 JUMPI PUSH1 0x40 MLOAD PUSH32 0x8C379A000000000000000000000000000000000000000000000000000000000 DUP2 MSTORE PUSH1 0x4 ADD PUSH2 0xEBD SWAP1 PUSH2 0x1A37 JUMP JUMPDEST PUSH1 0x40 MLOAD DUP1 SWAP2 SUB SWAP1 REVERT JUMPDEST DUP9 PUSH1 0x1 PUSH0 DUP3 PUSH20 0xFFFFFFFFFFFFFFFFFFFFFFFFFFFFFFFFFFFFFFFF AND PUSH20 0xFFFFFFFFFFFFFFFFFFFFFFFFFFFFFFFFFFFFFFFF AND DUP2 MSTORE PUSH1 0x20 ADD SWAP1 DUP2 MSTORE PUSH1 0x20 ADD PUSH0 KECCAK256 PUSH0 SWAP1 SLOAD SWAP1 PUSH2 0x100 EXP SWAP1 DIV PUSH1 0xFF AND PUSH2 0xF50 JUMPI PUSH1 0x40 MLOAD PUSH32 0x8C379A000000000000000000000000000000000000000000000000000000000 DUP2 MSTORE PUSH1 0x4 ADD PUSH2 0xF47 SWAP1 PUSH2 0x1A9F JUMP JUMPDEST PUSH1 0x40 MLOAD DUP1 SWAP2 SUB SWAP1 REVERT JUMPDEST PUSH1 0x2 PUSH0 DUP13 PUSH20 0xFFFFFFFFFFFFFFFFFFFFFFFFFFFFFFFFFFFFFFFF AND PUSH20 0xFFFFFFFFFFFFFFFFFFFFFFFFFFFFFFFFFFFFFFFF AND DUP2 MSTORE PUSH1 0x20 ADD SWAP1 DUP2 MSTORE PUSH1 0x20 ADD PUSH0 KECCAK256 PUSH0 SWAP1 SLOAD SWAP1 PUSH2 0x100 EXP SWAP1 DIV PUSH1 0xFF AND PUSH2 0xFD9 JUMPI PUSH1 0x40 MLOAD PUSH32 0x8C379A000000000000000000000000000000000000000000000000000000000 DUP2 MSTORE PUSH1 0x4 ADD PUSH2 0xFD0 SWAP1 PUSH2 0x1B07 JUMP JUMPDEST PUSH1 0x40 MLOAD DUP1 SWAP2 SUB SWAP1 REVERT JUMPDEST PUSH1 0x6 PUSH0 DUP12 PUSH20 0xFFFFFFFFFFFFFFFFFFFFFFFFFFFFFFFFFFFFFFFF AND PUSH20 0xFFFFFFFFFFFFFFFFFFFFFFFFFFFFFFFFFFFFFFFF AND DUP2 MSTORE PUSH1 0x20 ADD SWAP1 DUP2 MSTORE PUSH1 0x20 ADD PUSH0 KECCAK256 PUSH0 DUP13 PUSH20 0xFFFFFFFFFFFFFFFFFFFFFFFFFFFFFFFFFFFFFFFF AND PUSH20 0xFFFFFFFFFFFFFFFFFFFFFFFFFFFFFFFFFFFFFFFF AND DUP2 MSTORE PUSH1 0x20 ADD SWAP1 DUP2 MSTORE PUSH1 0x20 ADD PUSH0 KECCAK256 PUSH0 SWAP1 SLOAD SWAP1 PUSH2 0x100 EXP SWAP1 DIV PUSH1 0xFF AND PUSH2 0x109D JUMPI PUSH1 0x40 MLOAD PUSH32 0x8C379A000000000000000000000000000000000000000000000000000000000 DUP2 MSTORE PUSH1 0x4 ADD PUSH2 0x1094 SWAP1 PUSH2 0x1D92 JUMP JUMPDEST PUSH1 0x40 MLOAD DUP1 SWAP2 SUB SWAP1 REVERT JUMPDEST PUSH0 PUSH1 0x3 PUSH0 DUP2 SLOAD DUP1 SWAP3 SWAP2 SWAP1 PUSH2 0x10B0 SWAP1 PUSH2 0x1DDD JUMP JUMPDEST SWAP2 SWAP1 POP SSTORE SWAP1 POP PUSH1 0x40 MLOAD DUP1 PUSH2 0x100 ADD PUSH1 0x40 MSTORE DUP1 DUP3 DUP2 MSTORE PUSH1 0x20 ADD DUP13 PUSH20 0xFFFFFFFFFFFFFFFFFFFFFFFFFFFFFFFFFFFFFFFF AND DUP2 MSTORE PUSH1 0x20 ADD DUP14 PUSH20 0xFFFFFFFFFFFFFFFFFFFFFFFFFFFFFFFFFFFFFFFF AND DUP2 MSTORE PUSH1 0x20 ADD DUP12 DUP12 DUP1 DUP1 PUSH1 0x1F ADD PUSH1 0x20 DUP1 SWAP2 DIV MUL PUSH1 0x20 ADD PUSH1 0x40 MLOAD SWAP1 DUP2 ADD PUSH1 0x40 MSTORE DUP1 SWAP4 SWAP3 SWAP2 SWAP1 DUP2 DUP2 MSTORE PUSH1 0x20 ADD DUP4 DUP4 DUP1 DUP3 DUP5 CALLDATACOPY PUSH0 DUP2 DUP5 ADD MSTORE PUSH1 0x1F NOT PUSH1 0x1F DUP3 ADD AND SWAP1 POP DUP1 DUP4 ADD SWAP3 POP POP POP POP POP POP POP DUP2 MSTORE PUSH1 0x20 ADD DUP10 DUP10 DUP1 DUP1 PUSH1 0x1F ADD PUSH1 0x20 DUP1 SWAP2 DIV MUL PUSH1 0x20 ADD PUSH1 0x40 MLOAD SWAP1 DUP2 ADD PUSH1 0x40 MSTORE DUP1 SWAP4 SWAP3 SWAP2 SWAP1 DUP2 DUP2 MSTORE PUSH1 0x20 ADD DUP4 DUP4 DUP1 DUP3 DUP5 CALLDATACOPY PUSH0 DUP2 DUP5 ADD MSTORE PUSH1 0x1F NOT PUSH1 0x1F DUP3 ADD AND SWAP1 POP DUP1 DUP4 ADD SWAP3 POP POP POP POP POP POP POP DUP2 MSTORE PUSH1 0x20 ADD DUP8 DUP8 DUP1 DUP1 PUSH1 0x1F ADD PUSH1 0x20 DUP1 SWAP2 DIV MUL PUSH1 0x20 ADD PUSH1 0x40 MLOAD SWAP1 DUP2 ADD PUSH1 0x40 MSTORE DUP1 SWAP4 SWAP3 SWAP2 SWAP1 DUP2 DUP2 MSTORE PUSH1 0x20 ADD DUP4 DUP4 DUP1 DUP3 DUP5 CALLDATACOPY PUSH0 DUP2 DUP5 ADD MSTORE PUSH1 0x1F NOT PUSH1 0x1F DUP3 ADD AND SWAP1 POP DUP1 DUP4 ADD SWAP3 POP POP POP POP POP POP POP DUP2 MSTORE PUSH1 0x20 ADD TIMESTAMP DUP2 MSTORE PUSH1 0x20 ADD DUP6 DUP6 DUP1 DUP1 PUSH1 0x1F ADD PUSH1 0x20 DUP1 SWAP2 DIV MUL PUSH1 0x20 ADD PUSH1 0x40 MLOAD SWAP1 DUP2 ADD PUSH1 0x40 MSTORE DUP1 SWAP4 SWAP3 SWAP2 SWAP1 DUP2 DUP2 MSTORE PUSH1 0x20 ADD DUP4 DUP4 DUP1 DUP3 DUP5 CALLDATACOPY PUSH0 DUP2 DUP5 ADD MSTORE PUSH1 0x1F NOT PUSH1 0x1F DUP3 ADD AND SWAP1 POP DUP1 DUP4 ADD SWAP3 POP POP POP POP POP POP POP DUP2 MSTORE POP PUSH1 0x4 PUSH0 DUP4 DUP2 MSTORE PUSH1 0x20 ADD SWAP1 DUP2 MSTORE PUSH1 0x20 ADD PUSH0 KECCAK256 PUSH0 DUP3 ADD MLOAD DUP2 PUSH0 ADD SSTORE PUSH1 0x20 DUP3 ADD MLOAD DUP2 PUSH1 0x1 ADD PUSH0 PUSH2 0x100 EXP DUP2 SLOAD DUP2 PUSH20 0xFFFFFFFFFFFFFFFFFFFFFFFFFFFFFFFFFFFFFFFF MUL NOT AND SWAP1 DUP4 PUSH20 0xFFFFFFFFFFFFFFFFFFFFFFFFFFFFFFFFFFFFFFFF AND MUL OR SWAP1 SSTORE POP PUSH1 0x40 DUP3 ADD MLOAD DUP2 PUSH1 0x2 ADD PUSH0 PUSH2 0x100 EXP DUP2 SLOAD DUP2 PUSH20 0xFFFFFFFFFFFFFFFFFFFFFFFFFFFFFFFFFFFFFFFF MUL NOT AND SWAP1 DUP4 PUSH20 0xFFFFFFFFFFFFFFFFFFFFFFFFFFFFFFFFFFFFFFFF AND MUL OR SWAP1 SSTORE POP PUSH1 0x60 DUP3 ADD MLOAD DUP2 PUSH1 0x3 ADD SWAP1 DUP2 PUSH2 0x12E2 SWAP2 SWAP1 PUSH2 0x1FF1 JUMP JUMPDEST POP PUSH1 0x80 DUP3 ADD MLOAD DUP2 PUSH1 0x4 ADD SWAP1 DUP2 PUSH2 0x12F8 SWAP2 SWAP1 PUSH2 0x1FF1 JUMP JUMPDEST POP PUSH1 0xA0 DUP3 ADD MLOAD DUP2 PUSH1 0x5 ADD SWAP1 DUP2 PUSH2 0x130E SWAP2 SWAP1 PUSH2 0x1FF1 JUMP JUMPDEST POP PUSH1 0xC0 DUP3 ADD MLOAD DUP2 PUSH1 0x6 ADD SSTORE PUSH1 0xE0 DUP3 ADD MLOAD DUP2 PUSH1 0x7 ADD SWAP1 DUP2 PUSH2 0x132E SWAP2 SWAP1 PUSH2 0x1FF1 JUMP JUMPDEST POP SWAP1 POP POP PUSH1 0x5 PUSH0 DUP13 PUSH20 0xFFFFFFFFFFFFFFFFFFFFFFFFFFFFFFFFFFFFFFFF AND PUSH20 0xFFFFFFFFFFFFFFFFFFFFFFFFFFFFFFFFFFFFFFFF AND DUP2 MSTORE PUSH1 0x20 ADD SWAP1 DUP2 MSTORE PUSH1 0x20 ADD PUSH0 KECCAK256 DUP2 SWAP1 DUP1 PUSH1 0x1 DUP2 SLOAD ADD DUP1 DUP3 SSTORE DUP1 SWAP2 POP POP PUSH1 0x1 SWAP1 SUB SWAP1 PUSH0 MSTORE PUSH1 0x20 PUSH0 KECCAK256 ADD PUSH0 SWAP1 SWAP2 SWAP1 SWAP2 SWAP1 SWAP2 POP SSTORE DUP12 PUSH20 0xFFFFFFFFFFFFFFFFFFFFFFFFFFFFFFFFFFFFFFFF AND DUP12 PUSH20 0xFFFFFFFFFFFFFFFFFFFFFFFFFFFFFFFFFFFFFFFF AND DUP3 PUSH32 0x435273682F19C830BB3FD3D1ED1AEFB672214B65429F7D507AFA24C6F9F18AD5 DUP14 DUP14 PUSH1 0x40 MLOAD PUSH2 0x13F3 SWAP3 SWAP2 SWAP1 PUSH2 0x20FA JUMP JUMPDEST PUSH1 0x40 MLOAD DUP1 SWAP2 SUB SWAP1 LOG4 POP POP POP POP POP POP POP POP POP POP POP POP JUMP JUMPDEST PUSH1 0x6 PUSH1 0x20 MSTORE DUP2 PUSH0 MSTORE PUSH1 0x40 PUSH0 KECCAK256 PUSH1 0x20 MSTORE DUP1 PUSH0 MSTORE PUSH1 0x40 PUSH0 KECCAK256 PUSH0 SWAP2 POP SWAP2 POP SWAP1 SLOAD SWAP1 PUSH2 0x100 EXP SWAP1 DIV PUSH1 0xFF AND DUP2 JUMP JUMPDEST PUSH0 PUSH0 SWAP1 SLOAD SWAP1 PUSH2 0x100 EXP SWAP1 DIV PUSH20 0xFFFFFFFFFFFFFFFFFFFFFFFFFFFFFFFFFFFFFFFF AND DUP2 JUMP JUMPDEST PUSH0 PUSH0 REVERT JUMPDEST PUSH0 PUSH0 REVERT JUMPDEST PUSH0 PUSH20 0xFFFFFFFFFFFFFFFFFFFFFFFFFFFFFFFFFFFFFFFF DUP3 AND SWAP1 POP SWAP2 SWAP1 POP JUMP JUMPDEST PUSH0 PUSH2 0x1488 DUP3 PUSH2 0x145F JUMP JUMPDEST SWAP1 POP SWAP2 SWAP1 POP JUMP JUMPDEST PUSH2 0x1498 DUP2 PUSH2 0x147E JUMP JUMPDEST DUP2 EQ PUSH2 0x14A2 JUMPI PUSH0 PUSH0 REVERT JUMPDEST POP JUMP JUMPDEST PUSH0 DUP2 CALLDATALOAD SWAP1 POP PUSH2 0x14B3 DUP2 PUSH2 0x148F JUMP JUMPDEST SWAP3 SWAP2 POP POP JUMP JUMPDEST PUSH0 DUP2 ISZERO ISZERO SWAP1 POP SWAP2 SWAP1 POP JUMP JUMPDEST PUSH2 0x14CD DUP2 PUSH2 0x14B9 JUMP JUMPDEST DUP2 EQ PUSH2 0x14D7 JUMPI PUSH0 PUSH0 REVERT JUMPDEST POP JUMP JUMPDEST PUSH0 DUP2 CALLDATALOAD SWAP1 POP PUSH2 0x14E8 DUP2 PUSH2 0x14C4 JUMP JUMPDEST SWAP3 SWAP2 POP POP JUMP JUMPDEST PUSH0 PUSH0 PUSH0 PUSH1 0x60 DUP5 DUP7 SUB SLT ISZERO PUSH2 0x1505 JUMPI PUSH2 0x1504 PUSH2 0x1457 JUMP JUMPDEST JUMPDEST PUSH0 PUSH2 0x1512 DUP7 DUP3 DUP8 ADD PUSH2 0x14A5 JUMP JUMPDEST SWAP4 POP POP PUSH1 0x20 PUSH2 0x1523 DUP7 DUP3 DUP8 ADD PUSH2 0x14A5 JUMP JUMPDEST SWAP3 POP POP PUSH1 0x40 PUSH2 0x1534 DUP7 DUP3 DUP8 ADD PUSH2 0x14DA JUMP JUMPDEST SWAP2 POP POP SWAP3 POP SWAP3 POP SWAP3 JUMP JUMPDEST PUSH0 PUSH1 0x20 DUP3 DUP5 SUB SLT ISZERO PUSH2 0x1553 JUMPI PUSH2 0x1552 PUSH2 0x1457 JUMP JUMPDEST JUMPDEST PUSH0 PUSH2 0x1560 DUP5 DUP3 DUP6 ADD PUSH2 0x14A5 JUMP JUMPDEST SWAP2 POP POP SWAP3 SWAP2 POP POP JUMP JUMPDEST PUSH0 DUP2 MLOAD SWAP1 POP SWAP2 SWAP1 POP JUMP JUMPDEST PUSH0 DUP3 DUP3 MSTORE PUSH1 0x20 DUP3 ADD SWAP1 POP SWAP3 SWAP2 POP POP JUMP JUMPDEST PUSH0 DUP2 SWAP1 POP PUSH1 0x20 DUP3 ADD SWAP1 POP SWAP2 SWAP1 POP JUMP JUMPDEST PUSH0 DUP2 SWAP1 POP SWAP2 SWAP1 POP JUMP JUMPDEST PUSH2 0x15A4 DUP2 PUSH2 0x1592 JUMP JUMPDEST DUP3 MSTORE POP POP JUMP JUMPDEST PUSH0 PUSH2 0x15B5 DUP4 DUP4 PUSH2 0x159B JUMP JUMPDEST PUSH1 0x20 DUP4 ADD SWAP1 POP SWAP3 SWAP2 POP POP JUMP JUMPDEST PUSH0 PUSH1 0x20 DUP3 ADD SWAP1 POP SWAP2 SWAP1 POP JUMP JUMPDEST PUSH0 PUSH2 0x15D7 DUP3 PUSH2 0x1569 JUMP JUMPDEST PUSH2 0x15E1 DUP2 DUP6 PUSH2 0x1573 JUMP JUMPDEST SWAP4 POP PUSH2 0x15EC DUP4 PUSH2 0x1583 JUMP JUMPDEST DUP1 PUSH0 JUMPDEST DUP4 DUP2 LT ISZERO PUSH2 0x161C JUMPI DUP2 MLOAD PUSH2 0x1603 DUP9 DUP3 PUSH2 0x15AA JUMP JUMPDEST SWAP8 POP PUSH2 0x160E DUP4 PUSH2 0x15C1 JUMP JUMPDEST SWAP3 POP POP PUSH1 0x1 DUP2 ADD SWAP1 POP PUSH2 0x15EF JUMP JUMPDEST POP DUP6 SWAP4 POP POP POP POP SWAP3 SWAP2 POP POP JUMP JUMPDEST PUSH0 PUSH1 0x20 DUP3 ADD SWAP1 POP DUP2 DUP2 SUB PUSH0 DUP4 ADD MSTORE PUSH2 0x1641 DUP2 DUP5 PUSH2 0x15CD JUMP JUMPDEST SWAP1 POP SWAP3 SWAP2 POP POP JUMP JUMPDEST PUSH2 0x1652 DUP2 PUSH2 0x1592 JUMP JUMPDEST DUP2 EQ PUSH2 0x165C JUMPI PUSH0 PUSH0 REVERT JUMPDEST POP JUMP JUMPDEST PUSH0 DUP2 CALLDATALOAD SWAP1 POP PUSH2 0x166D DUP2 PUSH2 0x1649 JUMP JUMPDEST SWAP3 SWAP2 POP POP JUMP JUMPDEST PUSH0 PUSH1 0x20 DUP3 DUP5 SUB SLT ISZERO PUSH2 0x1688 JUMPI PUSH2 0x1687 PUSH2 0x1457 JUMP JUMPDEST JUMPDEST PUSH0 PUSH2 0x1695 DUP5 DUP3 DUP6 ADD PUSH2 0x165F JUMP JUMPDEST SWAP2 POP POP SWAP3 SWAP2 POP POP JUMP JUMPDEST PUSH2 0x16A7 DUP2 PUSH2 0x1592 JUMP JUMPDEST DUP3 MSTORE POP POP JUMP JUMPDEST PUSH2 0x16B6 DUP2 PUSH2 0x147E JUMP JUMPDEST DUP3 MSTORE POP POP JUMP JUMPDEST PUSH0 DUP2 MLOAD SWAP1 POP SWAP2 SWAP1 POP JUMP JUMPDEST PUSH0 DUP3 DUP3 MSTORE PUSH1 0x20 DUP3 ADD SWAP1 POP SWAP3 SWAP2 POP POP JUMP JUMPDEST DUP3 DUP2 DUP4 MCOPY PUSH0 DUP4 DUP4 ADD MSTORE POP POP POP JUMP JUMPDEST PUSH0 PUSH1 0x1F NOT PUSH1 0x1F DUP4 ADD AND SWAP1 POP SWAP2 SWAP1 POP JUMP JUMPDEST PUSH0 PUSH2 0x16FE DUP3 PUSH2 0x16BC JUMP JUMPDEST PUSH2 0x1708 DUP2 DUP6 PUSH2 0x16C6 JUMP JUMPDEST SWAP4 POP PUSH2 0x1718 DUP2 DUP6 PUSH1 0x20 DUP7 ADD PUSH2 0x16D6 JUMP JUMPDEST PUSH2 0x1721 DUP2 PUSH2 0x16E4 JUMP JUMPDEST DUP5 ADD SWAP2 POP POP SWAP3 SWAP2 POP POP JUMP JUMPDEST PUSH0 PUSH2 0x100 DUP3 ADD SWAP1 POP PUSH2 0x1740 PUSH0 DUP4 ADD DUP12 PUSH2 0x169E JUMP JUMPDEST PUSH2 0x174D PUSH1 0x20 DUP4 ADD DUP11 PUSH2 0x16AD JUMP JUMPDEST PUSH2 0x175A PUSH1 0x40 DUP4 ADD DUP10 PUSH2 0x16AD JUMP JUMPDEST DUP2 DUP2 SUB PUSH1 0x60 DUP4 ADD MSTORE PUSH2 0x176C DUP2 DUP9 PUSH2 0x16F4 JUMP JUMPDEST SWAP1 POP DUP2 DUP2 SUB PUSH1 0x80 DUP4 ADD MSTORE PUSH2 0x1780 DUP2 DUP8 PUSH2 0x16F4 JUMP JUMPDEST SWAP1 POP DUP2 DUP2 SUB PUSH1 0xA0 DUP4 ADD MSTORE PUSH2 0x1794 DUP2 DUP7 PUSH2 0x16F4 JUMP JUMPDEST SWAP1 POP PUSH2 0x17A3 PUSH1 0xC0 DUP4 ADD DUP6 PUSH2 0x169E JUMP JUMPDEST DUP2 DUP2 SUB PUSH1 0xE0 DUP4 ADD MSTORE PUSH2 0x17B5 DUP2 DUP5 PUSH2 0x16F4 JUMP JUMPDEST SWAP1 POP SWAP10 SWAP9 POP POP POP POP POP POP POP POP POP JUMP JUMPDEST PUSH0 PUSH1 0x20 DUP3 ADD SWAP1 POP PUSH2 0x17D7 PUSH0 DUP4 ADD DUP5 PUSH2 0x169E JUMP JUMPDEST SWAP3 SWAP2 POP POP JUMP JUMPDEST PUSH2 0x17E6 DUP2 PUSH2 0x14B9 JUMP JUMPDEST DUP3 MSTORE POP POP JUMP JUMPDEST PUSH0 PUSH1 0x20 DUP3 ADD SWAP1 POP PUSH2 0x17FF PUSH0 DUP4 ADD DUP5 PUSH2 0x17DD JUMP JUMPDEST SWAP3 SWAP2 POP POP JUMP JUMPDEST PUSH0 PUSH0 REVERT JUMPDEST PUSH0 PUSH0 REVERT JUMPDEST PUSH0 PUSH0 REVERT JUMPDEST PUSH0 PUSH0 DUP4 PUSH1 0x1F DUP5 ADD SLT PUSH2 0x1826 JUMPI PUSH2 0x1825 PUSH2 0x1805 JUMP JUMPDEST JUMPDEST DUP3 CALLDATALOAD SWAP1 POP PUSH8 0xFFFFFFFFFFFFFFFF DUP2 GT ISZERO PUSH2 0x1843 JUMPI PUSH2 0x1842 PUSH2 0x1809 JUMP JUMPDEST JUMPDEST PUSH1 0x20 DUP4 ADD SWAP2 POP DUP4 PUSH1 0x1 DUP3 MUL DUP4 ADD GT ISZERO PUSH2 0x185F JUMPI PUSH2 0x185E PUSH2 0x180D JUMP JUMPDEST JUMPDEST SWAP3 POP SWAP3 SWAP1 POP JUMP JUMPDEST PUSH0 PUSH0 PUSH0 PUSH0 PUSH0 PUSH0 PUSH0 PUSH0 PUSH0 PUSH0 PUSH1 0xC0 DUP12 DUP14 SUB SLT ISZERO PUSH2 0x1884 JUMPI PUSH2 0x1883 PUSH2 0x1457 JUMP JUMPDEST JUMPDEST PUSH0 PUSH2 0x1891 DUP14 DUP3 DUP15 ADD PUSH2 0x14A5 JUMP JUMPDEST SWAP11 POP POP PUSH1 0x20 PUSH2 0x18A2 DUP14 DUP3 DUP15 ADD PUSH2 0x14A5 JUMP JUMPDEST SWAP10 POP POP PUSH1 0x40 DUP12 ADD CALLDATALOAD PUSH8 0xFFFFFFFFFFFFFFFF DUP2 GT ISZERO PUSH2 0x18C3 JUMPI PUSH2 0x18C2 PUSH2 0x145B JUMP JUMPDEST JUMPDEST PUSH2 0x18CF DUP14 DUP3 DUP15 ADD PUSH2 0x1811 JUMP JUMPDEST SWAP9 POP SWAP9 POP POP PUSH1 0x60 DUP12 ADD CALLDATALOAD PUSH8 0xFFFFFFFFFFFFFFFF DUP2 GT ISZERO PUSH2 0x18F2 JUMPI PUSH2 0x18F1 PUSH2 0x145B JUMP JUMPDEST JUMPDEST PUSH2 0x18FE DUP14 DUP3 DUP15 ADD PUSH2 0x1811 JUMP JUMPDEST SWAP7 POP SWAP7 POP POP PUSH1 0x80 DUP12 ADD CALLDATALOAD PUSH8 0xFFFFFFFFFFFFFFFF DUP2 GT ISZERO PUSH2 0x1921 JUMPI PUSH2 0x1920 PUSH2 0x145B JUMP JUMPDEST JUMPDEST PUSH2 0x192D DUP14 DUP3 DUP15 ADD PUSH2 0x1811 JUMP JUMPDEST SWAP5 POP SWAP5 POP POP PUSH1 0xA0 DUP12 ADD CALLDATALOAD PUSH8 0xFFFFFFFFFFFFFFFF DUP2 GT ISZERO PUSH2 0x1950 JUMPI PUSH2 0x194F PUSH2 0x145B JUMP JUMPDEST JUMPDEST PUSH2 0x195C DUP14 DUP3 DUP15 ADD PUSH2 0x1811 JUMP JUMPDEST SWAP3 POP SWAP3 POP POP SWAP3 SWAP6 SWAP9 SWAP12 SWAP2 SWAP5 SWAP8 SWAP11 POP SWAP3 SWAP6 SWAP9 POP JUMP JUMPDEST PUSH0 PUSH0 PUSH1 0x40 DUP4 DUP6 SUB SLT ISZERO PUSH2 0x1986 JUMPI PUSH2 0x1985 PUSH2 0x1457 JUMP JUMPDEST JUMPDEST PUSH0 PUSH2 0x1993 DUP6 DUP3 DUP7 ADD PUSH2 0x14A5 JUMP JUMPDEST SWAP3 POP POP PUSH1 0x20 PUSH2 0x19A4 DUP6 DUP3 DUP7 ADD PUSH2 0x14A5 JUMP JUMPDEST SWAP2 POP POP SWAP3 POP SWAP3 SWAP1 POP JUMP JUMPDEST PUSH0 PUSH1 0x20 DUP3 ADD SWAP1 POP PUSH2 0x19C1 PUSH0 DUP4 ADD DUP5 PUSH2 0x16AD JUMP JUMPDEST SWAP3 SWAP2 POP POP JUMP JUMPDEST PUSH32 0x4F6E6C792061646D696E2063616E2063616C6C20746869732066756E6374696F PUSH0 DUP3 ADD MSTORE PUSH32 0x6E00000000000000000000000000000000000000000000000000000000000000 PUSH1 0x20 DUP3 ADD MSTORE POP JUMP JUMPDEST PUSH0 PUSH2 0x1A21 PUSH1 0x21 DUP4 PUSH2 0x16C6 JUMP JUMPDEST SWAP2 POP PUSH2 0x1A2C DUP3 PUSH2 0x19C7 JUMP JUMPDEST PUSH1 0x40 DUP3 ADD SWAP1 POP SWAP2 SWAP1 POP JUMP JUMPDEST PUSH0 PUSH1 0x20 DUP3 ADD SWAP1 POP DUP2 DUP2 SUB PUSH0 DUP4 ADD MSTORE PUSH2 0x1A4E DUP2 PUSH2 0x1A15 JUMP JUMPDEST SWAP1 POP SWAP2 SWAP1 POP JUMP JUMPDEST PUSH32 0x50617469656E74206973206E6F74207265676973746572656400000000000000 PUSH0 DUP3 ADD MSTORE POP JUMP JUMPDEST PUSH0 PUSH2 0x1A89 PUSH1 0x19 DUP4 PUSH2 0x16C6 JUMP JUMPDEST SWAP2 POP PUSH2 0x1A94 DUP3 PUSH2 0x1A55 JUMP JUMPDEST PUSH1 0x20 DUP3 ADD SWAP1 POP SWAP2 SWAP1 POP JUMP JUMPDEST PUSH0 PUSH1 0x20 DUP3 ADD SWAP1 POP DUP2 DUP2 SUB PUSH0 DUP4 ADD MSTORE PUSH2 0x1AB6 DUP2 PUSH2 0x1A7D JUMP JUMPDEST SWAP1 POP SWAP2 SWAP1 POP JUMP JUMPDEST PUSH32 0x446F63746F72206E6F7420726567697374657265640000000000000000000000 PUSH0 DUP3 ADD MSTORE POP JUMP JUMPDEST PUSH0 PUSH2 0x1AF1 PUSH1 0x15 DUP4 PUSH2 0x16C6 JUMP JUMPDEST SWAP2 POP PUSH2 0x1AFC DUP3 PUSH2 0x1ABD JUMP JUMPDEST PUSH1 0x20 DUP3 ADD SWAP1 POP SWAP2 SWAP1 POP JUMP JUMPDEST PUSH0 PUSH1 0x20 DUP3 ADD SWAP1 POP DUP2 DUP2 SUB PUSH0 DUP4 ADD MSTORE PUSH2 0x1B1E DUP2 PUSH2 0x1AE5 JUMP JUMPDEST SWAP1 POP SWAP2 SWAP1 POP JUMP JUMPDEST PUSH32 0x496E76616C69642077616C6C6574000000000000000000000000000000000000 PUSH0 DUP3 ADD MSTORE POP JUMP JUMPDEST PUSH0 PUSH2 0x1B59 PUSH1 0xE DUP4 PUSH2 0x16C6 JUMP JUMPDEST SWAP2 POP PUSH2 0x1B64 DUP3 PUSH2 0x1B25 JUMP JUMPDEST PUSH1 0x20 DUP3 ADD SWAP1 POP SWAP2 SWAP1 POP JUMP JUMPDEST PUSH0 PUSH1 0x20 DUP3 ADD SWAP1 POP DUP2 DUP2 SUB PUSH0 DUP4 ADD MSTORE PUSH2 0x1B86 DUP2 PUSH2 0x1B4D JUMP JUMPDEST SWAP1 POP SWAP2 SWAP1 POP JUMP JUMPDEST PUSH32 0x50617469656E7420616C72656164792072656769737465726564000000000000 PUSH0 DUP3 ADD MSTORE POP JUMP JUMPDEST PUSH0 PUSH2 0x1BC1 PUSH1 0x1A DUP4 PUSH2 0x16C6 JUMP JUMPDEST SWAP2 POP PUSH2 0x1BCC DUP3 PUSH2 0x1B8D JUMP JUMPDEST PUSH1 0x20 DUP3 ADD SWAP1 POP SWAP2 SWAP1 POP JUMP JUMPDEST PUSH0 PUSH1 0x20 DUP3 ADD SWAP1 POP DUP2 DUP2 SUB PUSH0 DUP4 ADD MSTORE PUSH2 0x1BEE DUP2 PUSH2 0x1BB5 JUMP JUMPDEST SWAP1 POP SWAP2 SWAP1 POP JUMP JUMPDEST PUSH32 0x446F63746F7220616C7265616479207265676973746572656400000000000000 PUSH0 DUP3 ADD MSTORE POP JUMP JUMPDEST PUSH0 PUSH2 0x1C29 PUSH1 0x19 DUP4 PUSH2 0x16C6 JUMP JUMPDEST SWAP2 POP PUSH2 0x1C34 DUP3 PUSH2 0x1BF5 JUMP JUMPDEST PUSH1 0x20 DUP3 ADD SWAP1 POP SWAP2 SWAP1 POP JUMP JUMPDEST PUSH0 PUSH1 0x20 DUP3 ADD SWAP1 POP DUP2 DUP2 SUB PUSH0 DUP4 ADD MSTORE PUSH2 0x1C56 DUP2 PUSH2 0x1C1D JUMP JUMPDEST SWAP1 POP SWAP2 SWAP1 POP JUMP JUMPDEST PUSH32 0x4E487B7100000000000000000000000000000000000000000000000000000000 PUSH0 MSTORE PUSH1 0x22 PUSH1 0x4 MSTORE PUSH1 0x24 PUSH0 REVERT JUMPDEST PUSH0 PUSH1 0x2 DUP3 DIV SWAP1 POP PUSH1 0x1 DUP3 AND DUP1 PUSH2 0x1CA1 JUMPI PUSH1 0x7F DUP3 AND SWAP2 POP JUMPDEST PUSH1 0x20 DUP3 LT DUP2 SUB PUSH2 0x1CB4 JUMPI PUSH2 0x1CB3 PUSH2 0x1C5D JUMP JUMPDEST JUMPDEST POP SWAP2 SWAP1 POP JUMP JUMPDEST PUSH32 0x507265736372697074696F6E20646F6573206E6F742065786973740000000000 PUSH0 DUP3 ADD MSTORE POP JUMP JUMPDEST PUSH0 PUSH2 0x1CEE PUSH1 0x1B DUP4 PUSH2 0x16C6 JUMP JUMPDEST SWAP2 POP PUSH2 0x1CF9 DUP3 PUSH2 0x1CBA JUMP JUMPDEST PUSH1 0x20 DUP3 ADD SWAP1 POP SWAP2 SWAP1 POP JUMP JUMPDEST PUSH0 PUSH1 0x20 DUP3 ADD SWAP1 POP DUP2 DUP2 SUB PUSH0 DUP4 ADD MSTORE PUSH2 0x1D1B DUP2 PUSH2 0x1CE2 JUMP JUMPDEST SWAP1 POP SWAP2 SWAP1 POP JUMP JUMPDEST PUSH32 0x446F63746F7220686173206E6F2061636365737320746F207468697320706174 PUSH0 DUP3 ADD MSTORE PUSH32 0x69656E7400000000000000000000000000000000000000000000000000000000 PUSH1 0x20 DUP3 ADD MSTORE POP JUMP JUMPDEST PUSH0 PUSH2 0x1D7C PUSH1 0x24 DUP4 PUSH2 0x16C6 JUMP JUMPDEST SWAP2 POP PUSH2 0x1D87 DUP3 PUSH2 0x1D22 JUMP JUMPDEST PUSH1 0x40 DUP3 ADD SWAP1 POP SWAP2 SWAP1 POP JUMP JUMPDEST PUSH0 PUSH1 0x20 DUP3 ADD SWAP1 POP DUP2 DUP2 SUB PUSH0 DUP4 ADD MSTORE PUSH2 0x1DA9 DUP2 PUSH2 0x1D70 JUMP JUMPDEST SWAP1 POP SWAP2 SWAP1 POP JUMP JUMPDEST PUSH32 0x4E487B7100000000000000000000000000000000000000000000000000000000 PUSH0 MSTORE PUSH1 0x11 PUSH1 0x4 MSTORE PUSH1 0x24 PUSH0 REVERT JUMPDEST PUSH0 PUSH2 0x1DE7 DUP3 PUSH2 0x1592 JUMP JUMPDEST SWAP2 POP PUSH32 0xFFFFFFFFFFFFFFFFFFFFFFFFFFFFFFFFFFFFFFFFFFFFFFFFFFFFFFFFFFFFFFFF DUP3 SUB PUSH2 0x1E19 JUMPI PUSH2 0x1E18 PUSH2 0x1DB0 JUMP JUMPDEST JUMPDEST PUSH1 0x1 DUP3 ADD SWAP1 POP SWAP2 SWAP1 POP JUMP JUMPDEST PUSH32 0x4E487B7100000000000000000000000000000000000000000000000000000000 PUSH0 MSTORE PUSH1 0x41 PUSH1 0x4 MSTORE PUSH1 0x24 PUSH0 REVERT JUMPDEST PUSH0 DUP2 SWAP1 POP DUP2 PUSH0 MSTORE PUSH1 0x20 PUSH0 KECCAK256 SWAP1 POP SWAP2 SWAP1 POP JUMP JUMPDEST PUSH0 PUSH1 0x20 PUSH1 0x1F DUP4 ADD DIV SWAP1 POP SWAP2 SWAP1 POP JUMP JUMPDEST PUSH0 DUP3 DUP3 SHL SWAP1 POP SWAP3 SWAP2 POP POP JUMP JUMPDEST PUSH0 PUSH1 0x8 DUP4 MUL PUSH2 0x1EAD PUSH32 0xFFFFFFFFFFFFFFFFFFFFFFFFFFFFFFFFFFFFFFFFFFFFFFFFFFFFFFFFFFFFFFFF DUP3 PUSH2 0x1E72 JUMP JUMPDEST PUSH2 0x1EB7 DUP7 DUP4 PUSH2 0x1E72 JUMP JUMPDEST SWAP6 POP DUP1 NOT DUP5 AND SWAP4 POP DUP1 DUP7 AND DUP5 OR SWAP3 POP POP POP SWAP4 SWAP3 POP POP POP JUMP JUMPDEST PUSH0 DUP2 SWAP1 POP SWAP2 SWAP1 POP JUMP JUMPDEST PUSH0 PUSH2 0x1EF2 PUSH2 0x1EED PUSH2 0x1EE8 DUP5 PUSH2 0x1592 JUMP JUMPDEST PUSH2 0x1ECF JUMP JUMPDEST PUSH2 0x1592 JUMP JUMPDEST SWAP1 POP SWAP2 SWAP1 POP JUMP JUMPDEST PUSH0 DUP2 SWAP1 POP SWAP2 SWAP1 POP JUMP JUMPDEST PUSH2 0x1F0B DUP4 PUSH2 0x1ED8 JUMP JUMPDEST PUSH2 0x1F1F PUSH2 0x1F17 DUP3 PUSH2 0x1EF9 JUMP JUMPDEST DUP5 DUP5 SLOAD PUSH2 0x1E7E JUMP JUMPDEST DUP3 SSTORE POP POP POP POP JUMP JUMPDEST PUSH0 PUSH0 SWAP1 POP SWAP1 JUMP JUMPDEST PUSH2 0x1F36 PUSH2 0x1F27 JUMP JUMPDEST PUSH2 0x1F41 DUP2 DUP5 DUP5 PUSH2 0x1F02 JUMP JUMPDEST POP POP POP JUMP JUMPDEST JUMPDEST DUP2 DUP2 LT ISZERO PUSH2 0x1F64 JUMPI PUSH2 0x1F59 PUSH0 DUP3 PUSH2 0x1F2E JUMP JUMPDEST PUSH1 0x1 DUP2 ADD SWAP1 POP PUSH2 0x1F47 JUMP JUMPDEST POP POP JUMP JUMPDEST PUSH1 0x1F DUP3 GT ISZERO PUSH2 0x1FA9 JUMPI PUSH2 0x1F7A DUP2 PUSH2 0x1E51 JUMP JUMPDEST PUSH2 0x1F83 DUP5 PUSH2 0x1E63 JUMP JUMPDEST DUP2 ADD PUSH1 0x20 DUP6 LT ISZERO PUSH2 0x1F92 JUMPI DUP2 SWAP1 POP JUMPDEST PUSH2 0x1FA6 PUSH2 0x1F9E DUP6 PUSH2 0x1E63 JUMP JUMPDEST DUP4 ADD DUP3 PUSH2 0x1F46 JUMP JUMPDEST POP POP JUMPDEST POP POP POP JUMP JUMPDEST PUSH0 DUP3 DUP3 SHR SWAP1 POP SWAP3 SWAP2 POP POP JUMP JUMPDEST PUSH0 PUSH2 0x1FC9 PUSH0 NOT DUP5 PUSH1 0x8 MUL PUSH2 0x1FAE JUMP JUMPDEST NOT DUP1 DUP4 AND SWAP2 POP POP SWAP3 SWAP2 POP POP JUMP JUMPDEST PUSH0 PUSH2 0x1FE1 DUP4 DUP4 PUSH2 0x1FBA JUMP JUMPDEST SWAP2 POP DUP3 PUSH1 0x2 MUL DUP3 OR SWAP1 POP SWAP3 SWAP2 POP POP JUMP JUMPDEST PUSH2 0x1FFA DUP3 PUSH2 0x16BC JUMP JUMPDEST PUSH8 0xFFFFFFFFFFFFFFFF DUP2 GT ISZERO PUSH2 0x2013 JUMPI PUSH2 0x2012 PUSH2 0x1E24 JUMP JUMPDEST JUMPDEST PUSH2 0x201D DUP3 SLOAD PUSH2 0x1C8A JUMP JUMPDEST PUSH2 0x2028 DUP3 DUP3 DUP6 PUSH2 0x1F68 JUMP JUMPDEST PUSH0 PUSH1 0x20 SWAP1 POP PUSH1 0x1F DUP4 GT PUSH1 0x1 DUP2 EQ PUSH2 0x2059 JUMPI PUSH0 DUP5 ISZERO PUSH2 0x2047 JUMPI DUP3 DUP8 ADD MLOAD SWAP1 POP JUMPDEST PUSH2 0x2051 DUP6 DUP3 PUSH2 0x1FD6 JUMP JUMPDEST DUP7 SSTORE POP PUSH2 0x20B8 JUMP JUMPDEST PUSH1 0x1F NOT DUP5 AND PUSH2 0x2067 DUP7 PUSH2 0x1E51 JUMP JUMPDEST PUSH0 JUMPDEST DUP3 DUP2 LT ISZERO PUSH2 0x208E JUMPI DUP5 DUP10 ADD MLOAD DUP3 SSTORE PUSH1 0x1 DUP3 ADD SWAP2 POP PUSH1 0x20 DUP6 ADD SWAP5 POP PUSH1 0x20 DUP2 ADD SWAP1 POP PUSH2 0x2069 JUMP JUMPDEST DUP7 DUP4 LT ISZERO PUSH2 0x20AB JUMPI DUP5 DUP10 ADD MLOAD PUSH2 0x20A7 PUSH1 0x1F DUP10 AND DUP3 PUSH2 0x1FBA JUMP JUMPDEST DUP4 SSTORE POP JUMPDEST PUSH1 0x1 PUSH1 0x2 DUP9 MUL ADD DUP9 SSTORE POP POP POP JUMPDEST POP POP POP POP POP POP JUMP JUMPDEST DUP3 DUP2 DUP4 CALLDATACOPY PUSH0 DUP4 DUP4 ADD MSTORE POP POP POP JUMP JUMPDEST PUSH0 PUSH2 0x20D9 DUP4 DUP6 PUSH2 0x16C6 JUMP JUMPDEST SWAP4 POP PUSH2 0x20E6 DUP4 DUP6 DUP5 PUSH2 0x20C0 JUMP JUMPDEST PUSH2 0x20EF DUP4 PUSH2 0x16E4 JUMP JUMPDEST DUP5 ADD SWAP1 POP SWAP4 SWAP3 POP POP POP JUMP JUMPDEST PUSH0 PUSH1 0x20 DUP3 ADD SWAP1 POP DUP2 DUP2 SUB PUSH0 DUP4 ADD MSTORE PUSH2 0x2113 DUP2 DUP5 DUP7 PUSH2 0x20CE JUMP JUMPDEST SWAP1 POP SWAP4 SWAP3 POP POP POP JUMP INVALID LOG2 PUSH5 0x6970667358 0x22 SLT KECCAK256 PUSH12 0xCBA21C1442264F1429E21C16 0xD0 0xB9 ORIGIN DUP6 SDIV 0xC9 DUP11 BALANCE 0xD6 PUSH22 0xCBF99425966608405464736F6C634300081E00330000 "
				},
				"gasEstimates": {
					"creation": {
						"codeDepositCost": "1706000",
						"executionCost": "48160",
						"totalCost": "1754160"
					},
					"external": {
						"addPrescriptionByRelayer(address,address,string,string,string,string)": "infinite",
						"admin()": "2617",
						"getPrescription(uint256)": "infinite",
						"getPrescriptionsForPatient(address)": "infinite",
						"isDoctor(address)": "2877",
						"isPatient(address)": "2855",
						"nextPrescriptionId()": "2425",
						"patientToDoctorAccess(address,address)": "infinite",
						"registerDoctor(address)": "30476",
						"registerPatient(address)": "30432",
						"setDoctorAccess(address,address,bool)": "infinite"
					}
				},
				"methodIdentifiers": {
					"addPrescriptionByRelayer(address,address,string,string,string,string)": "c8154e0d",
					"admin()": "f851a440",
					"getPrescription(uint256)": "6f16af10",
					"getPrescriptionsForPatient(address)": "366d4675",
					"isDoctor(address)": "996440c6",
					"isPatient(address)": "8f9c79ed",
					"nextPrescriptionId()": "8e21e579",
					"patientToDoctorAccess(address,address)": "d3e2034d",
					"registerDoctor(address)": "699ca998",
					"registerPatient(address)": "1388c519",
					"setDoctorAccess(address,address,bool)": "039801ce"
				}
			},
			"storageLayout": {
				"storage": [
					{
						"astId": 3,
						"contract": "contracts/MedicalData.sol:MedicalData",
						"label": "admin",
						"offset": 0,
						"slot": "0",
						"type": "t_address"
					},
					{
						"astId": 7,
						"contract": "contracts/MedicalData.sol:MedicalData",
						"label": "isPatient",
						"offset": 0,
						"slot": "1",
						"type": "t_mapping(t_address,t_bool)"
					},
					{
						"astId": 11,
						"contract": "contracts/MedicalData.sol:MedicalData",
						"label": "isDoctor",
						"offset": 0,
						"slot": "2",
						"type": "t_mapping(t_address,t_bool)"
					},
					{
						"astId": 32,
						"contract": "contracts/MedicalData.sol:MedicalData",
						"label": "nextPrescriptionId",
						"offset": 0,
						"slot": "3",
						"type": "t_uint256"
					},
					{
						"astId": 38,
						"contract": "contracts/MedicalData.sol:MedicalData",
						"label": "prescriptions",
						"offset": 0,
						"slot": "4",
						"type": "t_mapping(t_uint256,t_struct(Prescription)29_storage)"
					},
					{
						"astId": 44,
						"contract": "contracts/MedicalData.sol:MedicalData",
						"label": "patientPrescriptionIds",
						"offset": 0,
						"slot": "5",
						"type": "t_mapping(t_address,t_array(t_uint256)dyn_storage)"
					},
					{
						"astId": 51,
						"contract": "contracts/MedicalData.sol:MedicalData",
						"label": "patientToDoctorAccess",
						"offset": 0,
						"slot": "6",
						"type": "t_mapping(t_address,t_mapping(t_address,t_bool))"
					}
				],
				"types": {
					"t_address": {
						"encoding": "inplace",
						"label": "address",
						"numberOfBytes": "20"
					},
					"t_array(t_uint256)dyn_storage": {
						"base": "t_uint256",
						"encoding": "dynamic_array",
						"label": "uint256[]",
						"numberOfBytes": "32"
					},
					"t_bool": {
						"encoding": "inplace",
						"label": "bool",
						"numberOfBytes": "1"
					},
					"t_mapping(t_address,t_array(t_uint256)dyn_storage)": {
						"encoding": "mapping",
						"key": "t_address",
						"label": "mapping(address => uint256[])",
						"numberOfBytes": "32",
						"value": "t_array(t_uint256)dyn_storage"
					},
					"t_mapping(t_address,t_bool)": {
						"encoding": "mapping",
						"key": "t_address",
						"label": "mapping(address => bool)",
						"numberOfBytes": "32",
						"value": "t_bool"
					},
					"t_mapping(t_address,t_mapping(t_address,t_bool))": {
						"encoding": "mapping",
						"key": "t_address",
						"label": "mapping(address => mapping(address => bool))",
						"numberOfBytes": "32",
						"value": "t_mapping(t_address,t_bool)"
					},
					"t_mapping(t_uint256,t_struct(Prescription)29_storage)": {
						"encoding": "mapping",
						"key": "t_uint256",
						"label": "mapping(uint256 => struct MedicalData.Prescription)",
						"numberOfBytes": "32",
						"value": "t_struct(Prescription)29_storage"
					},
					"t_string_storage": {
						"encoding": "bytes",
						"label": "string",
						"numberOfBytes": "32"
					},
					"t_struct(Prescription)29_storage": {
						"encoding": "inplace",
						"label": "struct MedicalData.Prescription",
						"members": [
							{
								"astId": 14,
								"contract": "contracts/MedicalData.sol:MedicalData",
								"label": "id",
								"offset": 0,
								"slot": "0",
								"type": "t_uint256"
							},
							{
								"astId": 16,
								"contract": "contracts/MedicalData.sol:MedicalData",
								"label": "patient",
								"offset": 0,
								"slot": "1",
								"type": "t_address"
							},
							{
								"astId": 18,
								"contract": "contracts/MedicalData.sol:MedicalData",
								"label": "doctor",
								"offset": 0,
								"slot": "2",
								"type": "t_address"
							},
							{
								"astId": 20,
								"contract": "contracts/MedicalData.sol:MedicalData",
								"label": "medicationName",
								"offset": 0,
								"slot": "3",
								"type": "t_string_storage"
							},
							{
								"astId": 22,
								"contract": "contracts/MedicalData.sol:MedicalData",
								"label": "dosage",
								"offset": 0,
								"slot": "4",
								"type": "t_string_storage"
							},
							{
								"astId": 24,
								"contract": "contracts/MedicalData.sol:MedicalData",
								"label": "schedule",
								"offset": 0,
								"slot": "5",
								"type": "t_string_storage"
							},
							{
								"astId": 26,
								"contract": "contracts/MedicalData.sol:MedicalData",
								"label": "timestamp",
								"offset": 0,
								"slot": "6",
								"type": "t_uint256"
							},
							{
								"astId": 28,
								"contract": "contracts/MedicalData.sol:MedicalData",
								"label": "ipfsHash",
								"offset": 0,
								"slot": "7",
								"type": "t_string_storage"
							}
						],
						"numberOfBytes": "256"
					},
					"t_uint256": {
						"encoding": "inplace",
						"label": "uint256",
						"numberOfBytes": "32"
					}
				}
			},
			"userdoc": {
				"kind": "user",
				"methods": {
					"addPrescriptionByRelayer(address,address,string,string,string,string)": {
						"notice": "Транзакцію надсилає backend-relayer"
					},
					"getPrescription(uint256)": {
						"notice": "Отримати одне призначення за ID"
					},
					"getPrescriptionsForPatient(address)": {
						"notice": "Отримати список ID призначень для пацієнта"
					},
					"registerDoctor(address)": {
						"notice": "Реєстрація лікаря"
					},
					"registerPatient(address)": {
						"notice": "Реєстрація пацієнта"
					},
					"setDoctorAccess(address,address,bool)": {
						"notice": "Адмін встановлює/знімає право лікаря працювати з пацієнтом"
					}
				},
				"version": 1
			}
		}
	}
}